{
  "_format": "hh-sol-artifact-1",
  "contractName": "NFT1155",
  "sourceName": "contracts/NFT1155.sol",
  "abi": [
    {
      "inputs": [],
      "stateMutability": "nonpayable",
      "type": "constructor"
    },
    {
      "anonymous": false,
      "inputs": [
        {
          "indexed": true,
          "internalType": "address",
          "name": "account",
          "type": "address"
        },
        {
          "indexed": true,
          "internalType": "address",
          "name": "operator",
          "type": "address"
        },
        {
          "indexed": false,
          "internalType": "bool",
          "name": "approved",
          "type": "bool"
        }
      ],
      "name": "ApprovalForAll",
      "type": "event"
    },
    {
      "anonymous": false,
      "inputs": [
        {
          "indexed": true,
          "internalType": "address",
          "name": "operator",
          "type": "address"
        },
        {
          "indexed": true,
          "internalType": "address",
          "name": "from",
          "type": "address"
        },
        {
          "indexed": true,
          "internalType": "address",
          "name": "to",
          "type": "address"
        },
        {
          "indexed": false,
          "internalType": "uint256[]",
          "name": "ids",
          "type": "uint256[]"
        },
        {
          "indexed": false,
          "internalType": "uint256[]",
          "name": "values",
          "type": "uint256[]"
        }
      ],
      "name": "TransferBatch",
      "type": "event"
    },
    {
      "anonymous": false,
      "inputs": [
        {
          "indexed": true,
          "internalType": "address",
          "name": "operator",
          "type": "address"
        },
        {
          "indexed": true,
          "internalType": "address",
          "name": "from",
          "type": "address"
        },
        {
          "indexed": true,
          "internalType": "address",
          "name": "to",
          "type": "address"
        },
        {
          "indexed": false,
          "internalType": "uint256",
          "name": "id",
          "type": "uint256"
        },
        {
          "indexed": false,
          "internalType": "uint256",
          "name": "value",
          "type": "uint256"
        }
      ],
      "name": "TransferSingle",
      "type": "event"
    },
    {
      "anonymous": false,
      "inputs": [
        {
          "indexed": false,
          "internalType": "string",
          "name": "value",
          "type": "string"
        },
        {
          "indexed": true,
          "internalType": "uint256",
          "name": "id",
          "type": "uint256"
        }
      ],
      "name": "URI",
      "type": "event"
    },
    {
      "inputs": [],
      "name": "_tokenIdCounter",
      "outputs": [
        {
          "internalType": "uint256",
          "name": "_value",
          "type": "uint256"
        }
      ],
      "stateMutability": "view",
      "type": "function"
    },
    {
      "inputs": [
        {
          "internalType": "address",
          "name": "owner",
          "type": "address"
        },
        {
          "internalType": "uint256",
          "name": "id",
          "type": "uint256"
        }
      ],
      "name": "balanceOf",
      "outputs": [
        {
          "internalType": "uint256",
          "name": "",
          "type": "uint256"
        }
      ],
      "stateMutability": "view",
      "type": "function"
    },
    {
      "inputs": [
        {
          "internalType": "address[]",
          "name": "accounts",
          "type": "address[]"
        },
        {
          "internalType": "uint256[]",
          "name": "ids",
          "type": "uint256[]"
        }
      ],
      "name": "balanceOfBatch",
      "outputs": [
        {
          "internalType": "uint256[]",
          "name": "",
          "type": "uint256[]"
        }
      ],
      "stateMutability": "view",
      "type": "function"
    },
    {
      "inputs": [
        {
          "internalType": "address",
          "name": "account",
          "type": "address"
        },
        {
          "internalType": "address",
          "name": "operator",
          "type": "address"
        }
      ],
      "name": "isApprovedForAll",
      "outputs": [
        {
          "internalType": "bool",
          "name": "",
          "type": "bool"
        }
      ],
      "stateMutability": "view",
      "type": "function"
    },
    {
      "inputs": [
        {
          "internalType": "address",
          "name": "to",
          "type": "address"
        },
        {
          "internalType": "uint256",
          "name": "amountNFT",
          "type": "uint256"
        },
        {
          "internalType": "uint256",
          "name": "amountOfEach",
          "type": "uint256"
        }
      ],
      "name": "mintBatchMultipleIdNFT",
      "outputs": [],
      "stateMutability": "nonpayable",
      "type": "function"
    },
    {
      "inputs": [
        {
          "internalType": "address",
          "name": "to",
          "type": "address"
        },
        {
          "internalType": "uint256",
          "name": "amount",
          "type": "uint256"
        }
      ],
      "name": "mintNFT",
      "outputs": [
        {
          "internalType": "uint256",
          "name": "",
          "type": "uint256"
        }
      ],
      "stateMutability": "nonpayable",
      "type": "function"
    },
    {
      "inputs": [
        {
          "internalType": "address",
          "name": "from",
          "type": "address"
        },
        {
          "internalType": "address",
          "name": "to",
          "type": "address"
        },
        {
          "internalType": "uint256[]",
          "name": "ids",
          "type": "uint256[]"
        },
        {
          "internalType": "uint256[]",
          "name": "amounts",
          "type": "uint256[]"
        },
        {
          "internalType": "bytes",
          "name": "data",
          "type": "bytes"
        }
      ],
      "name": "safeBatchTransferFrom",
      "outputs": [],
      "stateMutability": "nonpayable",
      "type": "function"
    },
    {
      "inputs": [
        {
          "internalType": "address",
          "name": "from",
          "type": "address"
        },
        {
          "internalType": "address",
          "name": "to",
          "type": "address"
        },
        {
          "internalType": "uint256",
          "name": "id",
          "type": "uint256"
        },
        {
          "internalType": "uint256",
          "name": "amount",
          "type": "uint256"
        },
        {
          "internalType": "bytes",
          "name": "data",
          "type": "bytes"
        }
      ],
      "name": "safeTransferFrom",
      "outputs": [],
      "stateMutability": "nonpayable",
      "type": "function"
    },
    {
      "inputs": [
        {
          "internalType": "address",
          "name": "from",
          "type": "address"
        },
        {
          "internalType": "address",
          "name": "to",
          "type": "address"
        },
        {
          "internalType": "uint256",
          "name": "tokenId",
          "type": "uint256"
        },
        {
          "internalType": "uint256",
          "name": "amount",
          "type": "uint256"
        }
      ],
      "name": "safeTransferNFTFrom",
      "outputs": [],
      "stateMutability": "nonpayable",
      "type": "function"
    },
    {
      "inputs": [
        {
          "internalType": "address",
          "name": "operator",
          "type": "address"
        },
        {
          "internalType": "bool",
          "name": "approved",
          "type": "bool"
        }
      ],
      "name": "setApprovalForAll",
      "outputs": [],
      "stateMutability": "nonpayable",
      "type": "function"
    },
    {
      "inputs": [
        {
          "internalType": "bytes4",
          "name": "interfaceId",
          "type": "bytes4"
        }
      ],
      "name": "supportsInterface",
      "outputs": [
        {
          "internalType": "bool",
          "name": "",
          "type": "bool"
        }
      ],
      "stateMutability": "view",
      "type": "function"
    },
    {
      "inputs": [
        {
          "internalType": "uint256",
          "name": "",
          "type": "uint256"
        }
      ],
      "name": "uri",
      "outputs": [
        {
          "internalType": "string",
          "name": "",
          "type": "string"
        }
      ],
      "stateMutability": "view",
      "type": "function"
    }
  ],
  "bytecode": "0x60806040523480156200001157600080fd5b5060408051808201909152601781527f68747470733a2f2f6578616d706c65313135352e636f6d0000000000000000006020820152620000586301ffc9a760e01b6200008e565b620000638162000113565b62000075636cdb3d1360e11b6200008e565b620000876303a24d0760e21b6200008e565b50620001d8565b6001600160e01b03198082161415620000ee576040805162461bcd60e51b815260206004820152601c60248201527f4552433136353a20696e76616c696420696e7465726661636520696400000000604482015290519081900360640190fd5b6001600160e01b0319166000908152602081905260409020805460ff19166001179055565b8051620001289060039060208401906200012c565b5050565b828054600181600116156101000203166002900490600052602060002090601f016020900481019282620001645760008555620001af565b82601f106200017f57805160ff1916838001178555620001af565b82800160010185558215620001af579182015b82811115620001af57825182559160200191906001019062000192565b50620001bd929150620001c1565b5090565b5b80821115620001bd5760008155600101620001c2565b61182c80620001e86000396000f3fe608060405234801561001057600080fd5b50600436106100b35760003560e01c80634b04de6b116100715780634b04de6b146103e45780634e1273f41461042057806384c4bd4b14610593578063a22cb4651461059b578063e985e9c5146105c9578063f242432a146105f7576100b3565b8062fdd58e146100b857806301ffc9a7146100f65780630e89341c14610131578063118ca291146101c35780632eb2c2d6146101f75780633c168eab146103b8575b600080fd5b6100e4600480360360408110156100ce57600080fd5b506001600160a01b0381351690602001356106c0565b60408051918252519081900360200190f35b61011d6004803603602081101561010c57600080fd5b50356001600160e01b0319166106d3565b604080519115158252519081900360200190f35b61014e6004803603602081101561014757600080fd5b50356106f2565b6040805160208082528351818301528351919283929083019185019080838360005b83811015610188578181015183820152602001610170565b50505050905090810190601f1680156101b55780820380516001836020036101000a031916815260200191505b509250505060405180910390f35b6101f5600480360360608110156101d957600080fd5b506001600160a01b03813516906020810135906040013561078a565b005b6101f5600480360360a081101561020d57600080fd5b6001600160a01b038235811692602081013590911691810190606081016040820135600160201b81111561024057600080fd5b82018360208201111561025257600080fd5b803590602001918460208302840111600160201b8311171561027357600080fd5b9190808060200260200160405190810160405280939291908181526020018383602002808284376000920191909152509295949360208101935035915050600160201b8111156102c257600080fd5b8201836020820111156102d457600080fd5b803590602001918460208302840111600160201b831117156102f557600080fd5b9190808060200260200160405190810160405280939291908181526020018383602002808284376000920191909152509295949360208101935035915050600160201b81111561034457600080fd5b82018360208201111561035657600080fd5b803590602001918460018302840111600160201b8311171561037757600080fd5b91908080601f0160208091040260200160405190810160405280939291908181526020018383808284376000920191909152509295506107ae945050505050565b6100e4600480360360408110156103ce57600080fd5b506001600160a01b038135169060200135610aac565b6101f5600480360360808110156103fa57600080fd5b506001600160a01b03813581169160208101359091169060408101359060600135610ae1565b6105436004803603604081101561043657600080fd5b810190602081018135600160201b81111561045057600080fd5b82018360208201111561046257600080fd5b803590602001918460208302840111600160201b8311171561048357600080fd5b9190808060200260200160405190810160405280939291908181526020018383602002808284376000920191909152509295949360208101935035915050600160201b8111156104d257600080fd5b8201836020820111156104e457600080fd5b803590602001918460208302840111600160201b8311171561050557600080fd5b919080806020026020016040519081016040528093929190818152602001838360200280828437600092019190915250929550610af7945050505050565b60408051602080825283518183015283519192839290830191858101910280838360005b8381101561057f578181015183820152602001610567565b505050509050019250505060405180910390f35b6100e4610be3565b6101f5600480360360408110156105b157600080fd5b506001600160a01b0381351690602001351515610be9565b61011d600480360360408110156105df57600080fd5b506001600160a01b0381358116916020013516610cd8565b6101f5600480360360a081101561060d57600080fd5b6001600160a01b03823581169260208101359091169160408201359160608101359181019060a081016080820135600160201b81111561064c57600080fd5b82018360208201111561065e57600080fd5b803590602001918460018302840111600160201b8311171561067f57600080fd5b91908080601f016020809104026020016040519081016040528093929190818152602001838380828437600092019190915250929550610d06945050505050565b60006106cc8383610ed1565b9392505050565b6001600160e01b03191660009081526020819052604090205460ff1690565b60038054604080516020601f600260001961010060018816150201909516949094049384018190048102820181019092528281526060939092909183018282801561077e5780601f106107535761010080835404028352916020019161077e565b820191906000526020600020905b81548152906001019060200180831161076157829003601f168201915b50505050509050919050565b60005b828110156107a85761079f8483610aac565b5060010161078d565b50505050565b81518351146107ee5760405162461bcd60e51b81526004018080602001828103825260288152602001806117ae6028913960400191505060405180910390fd5b6001600160a01b0384166108335760405162461bcd60e51b81526004018080602001828103825260258152602001806116db6025913960400191505060405180910390fd5b61083b610f40565b6001600160a01b0316856001600160a01b03161480610866575061086685610861610f40565b610cd8565b6108a15760405162461bcd60e51b81526004018080602001828103825260328152602001806117006032913960400191505060405180910390fd5b60006108ab610f40565b90506108bb818787878787610aa4565b60005b84518110156109bc5760008582815181106108d557fe5b6020026020010151905060008583815181106108ed57fe5b6020026020010151905061095a816040518060600160405280602a8152602001611732602a91396001600086815260200190815260200160002060008d6001600160a01b03166001600160a01b0316815260200190815260200160002054610f459092919063ffffffff16565b60008381526001602090815260408083206001600160a01b038e811685529252808320939093558a16815220546109919082610fdc565b60009283526001602081815260408086206001600160a01b038d1687529091529093205550016108be565b50846001600160a01b0316866001600160a01b0316826001600160a01b03167f4a39dc06d4c0dbc64b70af90fd698a233a518aa5d07e595d983b8c0526c8f7fb8787604051808060200180602001838103835285818151815260200191508051906020019060200280838360005b83811015610a42578181015183820152602001610a2a565b50505050905001838103825284818151815260200191508051906020019060200280838360005b83811015610a81578181015183820152602001610a69565b5050505090500194505050505060405180910390a4610aa4818787878787611036565b505050505050565b60006060610aba60046112b5565b610acf84610ac860046112be565b85846112c2565b610ad960046112be565b949350505050565b6060610af08585858585610d06565b5050505050565b60608151835114610b395760405162461bcd60e51b81526004018080602001828103825260298152602001806117856029913960400191505060405180910390fd5b6000835167ffffffffffffffff81118015610b5357600080fd5b50604051908082528060200260200182016040528015610b7d578160200160208202803683370190505b50905060005b8451811015610bdb57610bbc858281518110610b9b57fe5b6020026020010151858381518110610baf57fe5b60200260200101516106c0565b828281518110610bc857fe5b6020908102919091010152600101610b83565b509392505050565b60045481565b816001600160a01b0316610bfb610f40565b6001600160a01b03161415610c415760405162461bcd60e51b815260040180806020018281038252602981526020018061175c6029913960400191505060405180910390fd5b8060026000610c4e610f40565b6001600160a01b03908116825260208083019390935260409182016000908120918716808252919093529120805460ff191692151592909217909155610c92610f40565b6001600160a01b03167f17307eab39ab6107e8899845ad3d59bd9653f200f220920489ca2b5937696c318360405180821515815260200191505060405180910390a35050565b6001600160a01b03918216600090815260026020908152604080832093909416825291909152205460ff1690565b6001600160a01b038416610d4b5760405162461bcd60e51b81526004018080602001828103825260258152602001806116db6025913960400191505060405180910390fd5b610d53610f40565b6001600160a01b0316856001600160a01b03161480610d795750610d7985610861610f40565b610db45760405162461bcd60e51b81526004018080602001828103825260298152602001806116b26029913960400191505060405180910390fd5b6000610dbe610f40565b9050610dde818787610dcf886113c3565b610dd8886113c3565b87610aa4565b610e25836040518060600160405280602a8152602001611732602a913960008781526001602090815260408083206001600160a01b038d1684529091529020549190610f45565b60008581526001602090815260408083206001600160a01b038b81168552925280832093909355871681522054610e5c9084610fdc565b60008581526001602090815260408083206001600160a01b03808b168086529184529382902094909455805188815291820187905280518a8416938616927fc3d58168c5ae7397731d063d5bbf3d657854427343f4c083240f7aacaa2d0f6292908290030190a4610aa4818787878787611408565b60006001600160a01b038316610f185760405162461bcd60e51b815260040180806020018281038252602b815260200180611687602b913960400191505060405180910390fd5b5060009081526001602090815260408083206001600160a01b03949094168352929052205490565b335b90565b60008184841115610fd45760405162461bcd60e51b81526004018080602001828103825283818151815260200191508051906020019080838360005b83811015610f99578181015183820152602001610f81565b50505050905090810190601f168015610fc65780820380516001836020036101000a031916815260200191505b509250505060405180910390fd5b505050900390565b6000828201838110156106cc576040805162461bcd60e51b815260206004820152601b60248201527f536166654d6174683a206164646974696f6e206f766572666c6f770000000000604482015290519081900360640190fd5b611048846001600160a01b0316611579565b15610aa457836001600160a01b031663bc197c8187878686866040518663ffffffff1660e01b815260040180866001600160a01b03168152602001856001600160a01b03168152602001806020018060200180602001848103845287818151815260200191508051906020019060200280838360005b838110156110d65781810151838201526020016110be565b50505050905001848103835286818151815260200191508051906020019060200280838360005b838110156111155781810151838201526020016110fd565b50505050905001848103825285818151815260200191508051906020019080838360005b83811015611151578181015183820152602001611139565b50505050905090810190601f16801561117e5780820380516001836020036101000a031916815260200191505b5098505050505050505050602060405180830381600087803b1580156111a357600080fd5b505af19250505080156111c857506040513d60208110156111c357600080fd5b505160015b61125d576111d4611585565b806111df5750611226565b60405162461bcd60e51b8152602060048201818152835160248401528351849391928392604401919085019080838360008315610f99578181015183820152602001610f81565b60405162461bcd60e51b815260040180806020018281038252603481526020018061162b6034913960400191505060405180910390fd5b6001600160e01b0319811663bc197c8160e01b146112ac5760405162461bcd60e51b815260040180806020018281038252602881526020018061165f6028913960400191505060405180910390fd5b50505050505050565b80546001019055565b5490565b6001600160a01b0384166113075760405162461bcd60e51b81526004018080602001828103825260218152602001806117d66021913960400191505060405180910390fd5b6000611311610f40565b905061132381600087610dcf886113c3565b60008481526001602090815260408083206001600160a01b03891684529091529020546113509084610fdc565b60008581526001602090815260408083206001600160a01b03808b16808652918452828520959095558151898152928301889052815190948616927fc3d58168c5ae7397731d063d5bbf3d657854427343f4c083240f7aacaa2d0f6292908290030190a4610af081600087878787611408565b604080516001808252818301909252606091600091906020808301908036833701905050905082816000815181106113f757fe5b602090810291909101015292915050565b61141a846001600160a01b0316611579565b15610aa457836001600160a01b031663f23a6e6187878686866040518663ffffffff1660e01b815260040180866001600160a01b03168152602001856001600160a01b0316815260200184815260200183815260200180602001828103825283818151815260200191508051906020019080838360005b838110156114a9578181015183820152602001611491565b50505050905090810190601f1680156114d65780820380516001836020036101000a031916815260200191505b509650505050505050602060405180830381600087803b1580156114f957600080fd5b505af192505050801561151e57506040513d602081101561151957600080fd5b505160015b61152a576111d4611585565b6001600160e01b0319811663f23a6e6160e01b146112ac5760405162461bcd60e51b815260040180806020018281038252602881526020018061165f6028913960400191505060405180910390fd5b3b151590565b60e01c90565b600060443d101561159557610f42565b600481823e6308c379a06115a9825161157f565b146115b357610f42565b6040513d600319016004823e80513d67ffffffffffffffff81602484011181841117156115e35750505050610f42565b828401925082519150808211156115fd5750505050610f42565b503d8301602082840101111561161557505050610f42565b601f01601f191681016020016040529150509056fe455243313135353a207472616e7366657220746f206e6f6e2045524331313535526563656976657220696d706c656d656e746572455243313135353a204552433131353552656365697665722072656a656374656420746f6b656e73455243313135353a2062616c616e636520717565727920666f7220746865207a65726f2061646472657373455243313135353a2063616c6c6572206973206e6f74206f776e6572206e6f7220617070726f766564455243313135353a207472616e7366657220746f20746865207a65726f2061646472657373455243313135353a207472616e736665722063616c6c6572206973206e6f74206f776e6572206e6f7220617070726f766564455243313135353a20696e73756666696369656e742062616c616e636520666f72207472616e73666572455243313135353a2073657474696e6720617070726f76616c2073746174757320666f722073656c66455243313135353a206163636f756e747320616e6420696473206c656e677468206d69736d61746368455243313135353a2069647320616e6420616d6f756e7473206c656e677468206d69736d61746368455243313135353a206d696e7420746f20746865207a65726f2061646472657373a2646970667358221220dd23e46005b2d9d3a3f843c8abf0306d20791b57a09f59e6f5afd813e875abcb64736f6c63430007060033",
  "linkReferences": {},
  "deployedLinkReferences": {}
}