{
  "_format": "hh-sol-artifact-1",
  "contractName": "U2UDeployerPremintRoundZero",
  "sourceName": "contracts/deployers/U2UDeployerPremintRoundZero.sol",
  "abi": [
    {
      "anonymous": false,
      "inputs": [
        {
          "indexed": true,
          "internalType": "address",
          "name": "previousOwner",
          "type": "address"
        },
        {
          "indexed": true,
          "internalType": "address",
          "name": "newOwner",
          "type": "address"
        }
      ],
      "name": "OwnershipTransferred",
      "type": "event"
    },
    {
      "inputs": [
        {
          "internalType": "uint256",
          "name": "projectCount",
          "type": "uint256"
        },
        {
          "components": [
            {
              "internalType": "enum LibStructs.RoundType",
              "name": "roundType",
              "type": "uint8"
            },
            {
              "internalType": "uint256",
              "name": "price",
              "type": "uint256"
            },
            {
              "internalType": "uint256",
              "name": "start",
              "type": "uint256"
            },
            {
              "internalType": "uint256",
              "name": "end",
              "type": "uint256"
            },
            {
              "internalType": "uint256",
              "name": "startClaim",
              "type": "uint256"
            },
            {
              "internalType": "uint256",
              "name": "maxAmountNFT",
              "type": "uint256"
            },
            {
              "internalType": "uint256",
              "name": "soldAmountNFT",
              "type": "uint256"
            },
            {
              "internalType": "uint256",
              "name": "maxAmountNFTPerWallet",
              "type": "uint256"
            }
          ],
          "internalType": "struct LibStructs.Round",
          "name": "round",
          "type": "tuple"
        },
        {
          "components": [
            {
              "internalType": "bool",
              "name": "isERC721",
              "type": "bool"
            },
            {
              "internalType": "bool",
              "name": "isU2UCollection",
              "type": "bool"
            },
            {
              "internalType": "bool",
              "name": "isPreminted",
              "type": "bool"
            },
            {
              "internalType": "address",
              "name": "collectionAddress",
              "type": "address"
            },
            {
              "internalType": "address",
              "name": "owner",
              "type": "address"
            }
          ],
          "internalType": "struct LibStructs.Collection",
          "name": "collection",
          "type": "tuple"
        }
      ],
      "name": "deploy",
      "outputs": [
        {
          "internalType": "address",
          "name": "",
          "type": "address"
        }
      ],
      "stateMutability": "nonpayable",
      "type": "function"
    },
    {
      "inputs": [
        {
          "internalType": "uint256",
          "name": "",
          "type": "uint256"
        }
      ],
      "name": "deployedContracts",
      "outputs": [
        {
          "internalType": "address",
          "name": "",
          "type": "address"
        }
      ],
      "stateMutability": "view",
      "type": "function"
    },
    {
      "inputs": [],
      "name": "deployedContractsLength",
      "outputs": [
        {
          "internalType": "uint256",
          "name": "",
          "type": "uint256"
        }
      ],
      "stateMutability": "view",
      "type": "function"
    },
    {
      "inputs": [],
      "name": "owner",
      "outputs": [
        {
          "internalType": "address",
          "name": "",
          "type": "address"
        }
      ],
      "stateMutability": "view",
      "type": "function"
    },
    {
      "inputs": [],
      "name": "projectManager",
      "outputs": [
        {
          "internalType": "address",
          "name": "",
          "type": "address"
        }
      ],
      "stateMutability": "view",
      "type": "function"
    },
    {
      "inputs": [],
      "name": "renounceOwnership",
      "outputs": [],
      "stateMutability": "nonpayable",
      "type": "function"
    },
    {
      "inputs": [
        {
          "internalType": "address",
          "name": "newOwner",
          "type": "address"
        }
      ],
      "name": "transferOwnership",
      "outputs": [],
      "stateMutability": "nonpayable",
      "type": "function"
    }
  ],
  "bytecode": "0x6080604052600180546001600160a01b03191673ccb0c2790f30ae2e806a49813a2a66037458d31517905534801561003657600080fd5b506000610041610090565b600080546001600160a01b0319166001600160a01b0383169081178255604051929350917f8be0079c531659141344cd1fd0a4f28419497f9722a3daafe3b4186f6b6457e0908290a350610094565b3390565b615b90806100a36000396000f3fe60806040523480156200001157600080fd5b5060043610620000885760003560e01c8063715018a61162000063578063715018a614620000df5780638da5cb5b14620000eb5780639ad1ee1014620000f5578063f2fde38b146200010c5762000088565b8063029eb76e146200008d5780630852aaab14620000af57806327ed1bf314620000c8575b600080fd5b6200009762000123565b604051620000a6919062000634565b60405180910390f35b620000b962000132565b604051620000a6919062000648565b62000097620000d936600462000528565b62000138565b620000e9620002a4565b005b6200009762000367565b62000097620001063660046200050f565b62000376565b620000e96200011d366004620004eb565b620003a1565b6001546001600160a01b031681565b60025490565b600062000144620004bc565b6001600160a01b03166200015762000367565b6001600160a01b031614620001b3576040805162461bcd60e51b815260206004820181905260248201527f4f776e61626c653a2063616c6c6572206973206e6f7420746865206f776e6572604482015290519081900360640190fd5b6000848484604051620001c690620004c0565b620001d49392919062000651565b604051809103906000f080158015620001f1573d6000803e3d6000fd5b50600280546001810182556000919091527f405787fa12a823e0f2b7631cc41b3ba8828b3321ca811111fa75cd3aa3bb5ace0180546001600160a01b0319166001600160a01b03831690811790915560405163f2fde38b60e01b81529192509063f2fde38b906200026790339060040162000634565b600060405180830381600087803b1580156200028257600080fd5b505af115801562000297573d6000803e3d6000fd5b5092979650505050505050565b620002ae620004bc565b6001600160a01b0316620002c162000367565b6001600160a01b0316146200031d576040805162461bcd60e51b815260206004820181905260248201527f4f776e61626c653a2063616c6c6572206973206e6f7420746865206f776e6572604482015290519081900360640190fd5b600080546040516001600160a01b03909116907f8be0079c531659141344cd1fd0a4f28419497f9722a3daafe3b4186f6b6457e0908390a3600080546001600160a01b0319169055565b6000546001600160a01b031690565b600281815481106200038757600080fd5b6000918252602090912001546001600160a01b0316905081565b620003ab620004bc565b6001600160a01b0316620003be62000367565b6001600160a01b0316146200041a576040805162461bcd60e51b815260206004820181905260248201527f4f776e61626c653a2063616c6c6572206973206e6f7420746865206f776e6572604482015290519081900360640190fd5b6001600160a01b038116620004615760405162461bcd60e51b815260040180806020018281038252602681526020018062005b356026913960400191505060405180910390fd5b600080546040516001600160a01b03808516939216917f8be0079c531659141344cd1fd0a4f28419497f9722a3daafe3b4186f6b6457e091a3600080546001600160a01b0319166001600160a01b0392909216919091179055565b3390565b61545c80620006d983390190565b80356001600160a01b0381168114620004e657600080fd5b919050565b600060208284031215620004fd578081fd5b6200050882620004ce565b9392505050565b60006020828403121562000521578081fd5b5035919050565b60008060008385036101c08112156200053f578283fd5b84359350610100601f198201121562000556578283fd5b60208501925060a061011f19820112156200056f578182fd5b50610120840190509250925092565b6001600160a01b03169052565b15159052565b600381106200059c57fe5b9052565b8035801515808214620005b257600080fd5b8352506020810135801515808214620005ca57600080fd5b60208401525060408101358015158114620005e457600080fd5b620005f360408401826200058b565b506200060260608201620004ce565b6200061160608401826200057e565b506200062060808201620004ce565b6200062f60808401826200057e565b505050565b6001600160a01b0391909116815260200190565b90815260200190565b8381526101c081018335600381106200066957600080fd5b62000678602084018262000591565b50602084013560408301526040840135606083015260608401356080830152608084013560a083015260a084013560c083015260c084013560e083015260e0840135610100830152620006d0610120830184620005a0565b94935050505056fe60806040526002805460ff19169055600f805473ccb0c2790f30ae2e806a49813a2a66037458d3156001600160a01b0319918216179091556010805473d069121812e49ab933454f2fa1f6fb852bbe67cd9083161761ffff60a01b1916607d60a21b179055601780547302bbf482d7a8b027a5b1b8a84f4bccc1ab67d27692169190911790553480156200009257600080fd5b506040516200545c3803806200545c833981016040819052620000b5916200037c565b6000620000c16200021d565b600080546001600160a01b0319166001600160a01b0383169081178255604051929350917f8be0079c531659141344cd1fd0a4f28419497f9722a3daafe3b4186f6b6457e0908290a3506200011d6301ffc9a760e01b62000221565b6003839055815160078054849290829060ff191660018360028111156200014057fe5b0217905550602082810151600183015560408084015160028401556060808501516003850155608080860151600486015560a086015160058087019190915560c087015160068088019190915560e0909701516007909601959095558651855494880151938801519288015160ff199095169015151761ff001916610100931515939093029290921762ff000019166201000091151591909102176301000000600160b81b03191663010000006001600160a01b03938416021790925592015181546001600160a01b0319169216919091179055506200043f9050565b3390565b6001600160e01b0319808216141562000281576040805162461bcd60e51b815260206004820152601c60248201527f4552433136353a20696e76616c696420696e7465726661636520696400000000604482015290519081900360640190fd5b6001600160e01b0319166000908152600160208190526040909120805460ff19169091179055565b80516001600160a01b0381168114620002c157600080fd5b919050565b80518015158114620002c157600080fd5b805160038110620002c157600080fd5b600060a08284031215620002f9578081fd5b60405160a081016001600160401b03811182821017156200031657fe5b6040529050806200032783620002c6565b81526200033760208401620002c6565b60208201526200034a60408401620002c6565b60408201526200035d60608401620002a9565b60608201526200037060808401620002a9565b60808201525092915050565b60008060008385036101c081121562000393578384fd5b8451935061010080601f1983011215620003ab578384fd5b60405191508082016001600160401b0381118382101715620003c957fe5b604052620003da60208701620002d7565b825260408601516020830152606086015160408301526080860151606083015260a0860151608083015260c086015160a083015260e086015160c08301528086015160e0830152508092505062000436856101208601620002e7565b90509250925092565b61500d806200044f6000396000f3fe60806040526004361061025b5760003560e01c806398f0ef9b11610144578063bd331d9c116100b6578063e1b0e0f41161007a578063e1b0e0f4146106a7578063f23a6e61146106c7578063f2fde38b146106e7578063f52b219114610707578063f83d08ba14610727578063ff94e88b1461073c5761025b565b8063bd331d9c14610612578063c13f0a4714610632578063c19eaa2214610647578063d36862e814610667578063e12f3a61146106875761025b565b8063b1604a6311610108578063b1604a6314610568578063b2e3adbb14610588578063b3f006741461059d578063b5c210ca146105b2578063ba3b8dc6146105d2578063bc197c81146105f25761025b565b806398f0ef9b146104c45780639f8743f7146104e4578063a0355eca14610506578063a4e2d63414610526578063b01581101461053b5761025b565b80632f1a66f7116101dd57806372c3e3d6116101a157806372c3e3d6146104185780637d86606f1461042d5780637fd6f15c1461044d5780638da5cb5b1461046f5780638e0055531461048457806391b7f5ed146104a45761025b565b80632f1a66f7146103b1578063421cc337146103b95780634251921e146103d957806368ec1e7b146103fb578063715018a6146104035761025b565b80631458f563116102245780631458f56314610311578063150b7a02146103315780631e996b851461035e5780632621d2231461037e5780632e00b2dd1461039e5761025b565b806269100b1461026057806301ffc9a714610282578063029eb76e146102b857806303e4ecb8146102da5780631270e10c146102ef575b600080fd5b34801561026c57600080fd5b5061028061027b36600461423b565b61074f565b005b34801561028e57600080fd5b506102a261029d366004614275565b6107f3565b6040516102af91906146c3565b60405180910390f35b3480156102c457600080fd5b506102cd610806565b6040516102af919061456d565b3480156102e657600080fd5b50610280610815565b3480156102fb57600080fd5b50610304610ace565b6040516102af9190614d9a565b34801561031d57600080fd5b5061028061032c3660046141fc565b610afb565b34801561033d57600080fd5b5061035161034c3660046140e8565b610c4f565b6040516102af91906146ce565b34801561036a57600080fd5b50610280610379366004614490565b610c60565b34801561038a57600080fd5b506102806103993660046141fc565b610d78565b6102806103ac366004614460565b610ec0565b6102806112f9565b3480156103c557600080fd5b506102806103d4366004614460565b611689565b3480156103e557600080fd5b506103ee61174f565b6040516102af9190614cdf565b6102806117d3565b34801561040f57600080fd5b50610280611b40565b34801561042457600080fd5b50610304611bec565b34801561043957600080fd5b506102806104483660046144b1565b611c19565b34801561045957600080fd5b50610462611d3e565b6040516102af9190614d8b565b34801561047b57600080fd5b506102cd611d4f565b34801561049057600080fd5b5061028061049f36600461443e565b611d5e565b3480156104b057600080fd5b506102806104bf366004614460565b611de2565b3480156104d057600080fd5b506102806104df366004614460565b611e6a565b3480156104f057600080fd5b506104f9611ef2565b6040516102af9190614d29565b34801561051257600080fd5b50610280610521366004614490565b611f97565b34801561053257600080fd5b506102a2612496565b34801561054757600080fd5b5061055b610556366004614012565b61249f565b6040516102af91906146a9565b34801561057457600080fd5b5061028061058336600461423b565b612549565b34801561059457600080fd5b50610280612cb3565b3480156105a957600080fd5b506102cd612fe1565b3480156105be57600080fd5b506102a26105cd366004614012565b612ff0565b3480156105de57600080fd5b506102806105ed3660046141d1565b613005565b3480156105fe57600080fd5b5061035161060d36600461402e565b61317a565b34801561061e57600080fd5b5061028061062d36600461429d565b61318e565b34801561063e57600080fd5b5061055b6131e6565b34801561065357600080fd5b50610280610662366004614460565b61327d565b34801561067357600080fd5b50610304610682366004614012565b613305565b34801561069357600080fd5b506103046106a2366004614012565b613347565b3480156106b357600080fd5b506103046106c2366004614012565b61339b565b3480156106d357600080fd5b506103516106e2366004614158565b6133dd565b3480156106f357600080fd5b50610280610702366004614012565b6133ef565b34801561071357600080fd5b506102a2610722366004614012565b6134f1565b34801561073357600080fd5b50610280613536565b61028061074a366004614460565b6135a7565b61075761395c565b6001600160a01b0316610768611d4f565b6001600160a01b0316146107b1576040805162461bcd60e51b81526020600482018190526024820152600080516020614fb8833981519152604482015290519081900360640190fd5b60095442106107db5760405162461bcd60e51b81526004016107d290614cb9565b60405180910390fd5b6107e760156000613d8f565b6107f081612549565b50565b60006107fe82613960565b90505b919050565b600f546001600160a01b031681565b600a5442116108365760405162461bcd60e51b81526004016107d290614bab565b600b544211806108465750600b54155b6108625760405162461bcd60e51b81526004016107d29061484a565b3360009081526014602052604090205461088e5760405162461bcd60e51b81526004016107d290614ab9565b60055460ff166108b05760405162461bcd60e51b81526004016107d290614a4f565b33600081815260146020908152604080832080548251818502810185019093528083529192909190849084015b82821015610923578382906000526020600020906002020160405180604001604052908160008201548152602001600182015481525050815260200190600101906108dd565b5050506001600160a01b038416600090815260146020526040812092935061094c929150613d8f565b60005b8151811015610ac95781516001600160a01b038416600090815260136020526040902055600554610100900460ff1615610a1f576000600560000160039054906101000a90046001600160a01b03169050806001600160a01b03166342842e0e30868686815181106109bd57fe5b6020026020010151600001516040518463ffffffff1660e01b81526004016109e793929190614581565b600060405180830381600087803b158015610a0157600080fd5b505af1158015610a15573d6000803e3d6000fd5b5050505050610ab7565b6000600560000160039054906101000a90046001600160a01b03169050806001600160a01b031663293200b43086868681518110610a5957fe5b6020026020010151600001516040518463ffffffff1660e01b8152600401610a8393929190614581565b600060405180830381600087803b158015610a9d57600080fd5b505af1158015610ab1573d6000803e3d6000fd5b50505050505b610ac281600161397f565b905061094f565b505050565b60025460009060ff1615610af45760405162461bcd60e51b81526004016107d290614b86565b5060035490565b60025460ff1615610b1e5760405162461bcd60e51b81526004016107d290614b86565b610b2661395c565b6001600160a01b0316610b37611d4f565b6001600160a01b031614610b80576040805162461bcd60e51b81526020600482018190526024820152600080516020614fb8833981519152604482015290519081900360640190fd5b6009544210610ba15760405162461bcd60e51b81526004016107d290614cb9565b60005b81811015610c0d57600160186000858585818110610bbe57fe5b9050602002016020810190610bd39190614012565b6001600160a01b031681526020810191909152604001600020805460ff1916911515919091179055610c0681600161397f565b9050610ba4565b507f76098002777f57791d03f7af987692e011b7364b84a04eb97f8af7c59048e8146003548383604051610c4393929190614da3565b60405180910390a15050565b630a85bd0160e11b95945050505050565b600f54600354604051631e1e7e5960e31b815233926000926001600160a01b039091169163f0f3f2c891610c9691600401614d9a565b60006040518083038186803b158015610cae57600080fd5b505afa158015610cc2573d6000803e3d6000fd5b505050506040513d6000823e601f3d908101601f19168201604052610cea91908101906142b4565b6020015190506000805b8251811015610d4157836001600160a01b0316838281518110610d1357fe5b60200260200101516001600160a01b03161415610d2f57600191505b610d3a81600161397f565b9050610cf4565b5080610d5f5760405162461bcd60e51b81526004016107d29061473e565b600c54610d6c908661397f565b600c55505050600e5550565b60025460ff1615610d9b5760405162461bcd60e51b81526004016107d290614b86565b610da361395c565b6001600160a01b0316610db4611d4f565b6001600160a01b031614610dfd576040805162461bcd60e51b81526020600482018190526024820152600080516020614fb8833981519152604482015290519081900360640190fd5b6009544210610e1e5760405162461bcd60e51b81526004016107d290614cb9565b60005b81811015610e8a57600060186000858585818110610e3b57fe5b9050602002016020810190610e509190614012565b6001600160a01b031681526020810191909152604001600020805460ff1916911515919091179055610e8381600161397f565b9050610e21565b507f4c54fd7a6808acfa90174c7f3a17b6a220534093c7e2f45fb234b7535d38a6b46003548383604051610c4393929190614da3565b6009544211610ee15760405162461bcd60e51b81526004016107d290614901565b600a544210610f025760405162461bcd60e51b81526004016107d2906146e3565b600c54600d54829190610f15908361397f565b111580610f225750600c54155b610f3e5760405162461bcd60e51b81526004016107d290614b5e565b600e5433600090815260126020526040902054839190610f5e908361397f565b111580610f6b5750600e54155b610f875760405162461bcd60e51b81526004016107d290614775565b60025460ff1615610faa5760405162461bcd60e51b81526004016107d290614b86565b60055460ff16158015610fc45750600554610100900460ff165b610fe05760405162461bcd60e51b81526004016107d2906149fe565b60085433903490600090610ff59087906139e2565b6017546040516370a0823160e01b81529192506000916001600160a01b03909116906370a082319061102b90879060040161456d565b60206040518083038186803b15801561104357600080fd5b505afa158015611057573d6000803e3d6000fd5b505050506040513d601f19601f8201168201806040525081019061107b9190614478565b118061109f57506001600160a01b03831660009081526018602052604090205460ff165b6110bb5760405162461bcd60e51b81526004016107d29061481b565b808210156110db5760405162461bcd60e51b81526004016107d29061492b565b6110e483613a3b565b600060156000815481106110f457fe5b6000918252602090912060029091020154600d54909150611115908861397f565b600d556001600160a01b03841660009081526012602052604090205461113b908861397f565b60126000866001600160a01b03166001600160a01b03168152602001908152602001600020819055506000604051806040016040528083815260200189815250905060146000866001600160a01b03166001600160a01b03168152602001908152602001600020819080600181540180825580915050600190039060005260206000209060020201600090919091909150600082015181600001556020820151816001015550506000600560000160039054906101000a90046001600160a01b031690506060816001600160a01b031663f242432a600560010160009054906101000a90046001600160a01b031630878e866040518663ffffffff1660e01b815260040161124d9594939291906145ce565b600060405180830381600087803b15801561126757600080fd5b505af115801561127b573d6000803e3d6000fd5b5050505061128a60008b613a93565b6112948686613ba0565b7f4176a0eed17d645c2414488a594c6163719df60e816525d041251d1e6219a83787600354600560000160039054906101000a90046001600160a01b0316878e6040516112e5959493929190614675565b60405180910390a150505050505050505050565b600954421161131a5760405162461bcd60e51b81526004016107d290614901565b600a54421061133b5760405162461bcd60e51b81526004016107d2906146e3565b600c54600d54108061134d5750600c54155b6113695760405162461bcd60e51b81526004016107d290614b5e565b600e543360009081526012602052604090205410806113885750600e54155b6113a45760405162461bcd60e51b81526004016107d290614775565b60025460ff16156113c75760405162461bcd60e51b81526004016107d290614b86565b60055460ff1680156113e05750600554610100900460ff165b6113fc5760405162461bcd60e51b81526004016107d290614878565b6017546040516370a0823160e01b8152339134916000916001600160a01b0316906370a082319061143190869060040161456d565b60206040518083038186803b15801561144957600080fd5b505afa15801561145d573d6000803e3d6000fd5b505050506040513d601f19601f820116820180604052508101906114819190614478565b11806114a557506001600160a01b03821660009081526018602052604090205460ff165b6114c15760405162461bcd60e51b81526004016107d29061481b565b6008548110156114e35760405162461bcd60e51b81526004016107d29061492b565b6114ec82613a3b565b60006114f6613c84565b905060006015828154811061150757fe5b6000918252602090912060029091020154600d5490915061152990600161397f565b600d556001600160a01b03841660009081526012602052604090205461155090600161397f565b6001600160a01b03808616600081815260126020908152604080832095909555845180860186528681526001818301818152948452601483528684208054808301825590855292909320815160029093020191825592519101556005546006549351632142170760e11b81529193630100000090910483169283926342842e0e926115e392169030908890600401614581565b600060405180830381600087803b1580156115fd57600080fd5b505af1158015611611573d6000803e3d6000fd5b50505050611620846001613a93565b61162f85600760010154613ba0565b6003546005546040517fe01ed4c4f469fbc4b6f97ecaaee0d1ae03e2d87394cf371cc92e0064effdda2c92611679928a9263010000009091046001600160a01b031690889061464b565b60405180910390a1505050505050565b61169161395c565b6001600160a01b03166116a2611d4f565b6001600160a01b0316146116eb576040805162461bcd60e51b81526020600482018190526024820152600080516020614fb8833981519152604482015290519081900360640190fd5b600954421061170c5760405162461bcd60e51b81526004016107d290614cb9565b806117295760405162461bcd60e51b81526004016107d29061495a565b600a54811161174a5760405162461bcd60e51b81526004016107d290614985565b600b55565b611757613db0565b60025460ff161561177a5760405162461bcd60e51b81526004016107d290614b86565b506040805160a08101825260055460ff8082161515835261010082048116151560208401526201000082041615159282019290925263010000009091046001600160a01b03908116606083015260065416608082015290565b60095442116117f45760405162461bcd60e51b81526004016107d290614901565b600a5442106118155760405162461bcd60e51b81526004016107d2906146e3565b600c54600d5410806118275750600c54155b6118435760405162461bcd60e51b81526004016107d290614b5e565b600e543360009081526012602052604090205410806118625750600e54155b61187e5760405162461bcd60e51b81526004016107d290614775565b60025460ff16156118a15760405162461bcd60e51b81526004016107d290614b86565b60055460ff166118c35760405162461bcd60e51b81526004016107d2906149bc565b6017546040516370a0823160e01b8152339134916000916001600160a01b0316906370a08231906118f890869060040161456d565b60206040518083038186803b15801561191057600080fd5b505afa158015611924573d6000803e3d6000fd5b505050506040513d601f19601f820116820180604052508101906119489190614478565b118061196c57506001600160a01b03821660009081526018602052604090205460ff165b6119885760405162461bcd60e51b81526004016107d29061481b565b6008548110156119aa5760405162461bcd60e51b81526004016107d29061492b565b6119b382613a3b565b60006119bd613c84565b90506000601582815481106119ce57fe5b6000918252602090912060029091020154600d549091506119f090600161397f565b600d556001600160a01b038416600090815260126020526040902054611a1790600161397f565b6001600160a01b03808616600081815260126020908152604080832095909555845180860186528681526001818301818152948452601483528684208054808301825590855292909320815160029093020191825592519101556005546006549351630a4c802d60e21b815291936301000000909104831692839263293200b492611aaa92169030908890600401614581565b600060405180830381600087803b158015611ac457600080fd5b505af1158015611ad8573d6000803e3d6000fd5b50505050611ae7846001613a93565b611af685600760010154613ba0565b6003546005546040517f6a72c352c64d27d46d3443219106d6aef11c7b87db76c9a0e0848fb236d3f62d92611679928a9263010000009091046001600160a01b031690889061464b565b611b4861395c565b6001600160a01b0316611b59611d4f565b6001600160a01b031614611ba2576040805162461bcd60e51b81526020600482018190526024820152600080516020614fb8833981519152604482015290519081900360640190fd5b600080546040516001600160a01b03909116907f8be0079c531659141344cd1fd0a4f28419497f9722a3daafe3b4186f6b6457e0908390a3600080546001600160a01b0319169055565b60025460009060ff1615611c125760405162461bcd60e51b81526004016107d290614b86565b5060045490565b600f54600354604051631e1e7e5960e31b815233926000926001600160a01b039091169163f0f3f2c891611c4f91600401614d9a565b60006040518083038186803b158015611c6757600080fd5b505afa158015611c7b573d6000803e3d6000fd5b505050506040513d6000823e601f3d908101601f19168201604052611ca391908101906142b4565b6020015190506000805b8251811015611cfa57836001600160a01b0316838281518110611ccc57fe5b60200260200101516001600160a01b03161415611ce857600191505b611cf381600161397f565b9050611cad565b5080611d185760405162461bcd60e51b81526004016107d29061473e565b600c54611d25908761397f565b600c55600e859055611d3684612549565b505050505050565b601054600160a01b900461ffff1681565b6000546001600160a01b031690565b611d6661395c565b6001600160a01b0316611d77611d4f565b6001600160a01b031614611dc0576040805162461bcd60e51b81526020600482018190526024820152600080516020614fb8833981519152604482015290519081900360640190fd5b6010805461ffff909216600160a01b0261ffff60a01b19909216919091179055565b611dea61395c565b6001600160a01b0316611dfb611d4f565b6001600160a01b031614611e44576040805162461bcd60e51b81526020600482018190526024820152600080516020614fb8833981519152604482015290519081900360640190fd5b6009544210611e655760405162461bcd60e51b81526004016107d290614cb9565b600855565b611e7261395c565b6001600160a01b0316611e83611d4f565b6001600160a01b031614611ecc576040805162461bcd60e51b81526020600482018190526024820152600080516020614fb8833981519152604482015290519081900360640190fd5b6009544210611eed5760405162461bcd60e51b81526004016107d290614cb9565b600c55565b611efa613dde565b60025460ff1615611f1d5760405162461bcd60e51b81526004016107d290614b86565b60408051610100810190915260078054829060ff166002811115611f3d57fe5b6002811115611f4857fe5b8152602001600182015481526020016002820154815260200160038201548152602001600482015481526020016005820154815260200160068201548152602001600782015481525050905090565b611f9f61395c565b6001600160a01b0316611fb0611d4f565b6001600160a01b031614611ff9576040805162461bcd60e51b81526020600482018190526024820152600080516020614fb8833981519152604482015290519081900360640190fd5b600954421061201a5760405162461bcd60e51b81526004016107d290614cb9565b816120375760405162461bcd60e51b81526004016107d2906147f5565b8181116120565760405162461bcd60e51b81526004016107d290614a91565b600f54600354604051631e1e7e5960e31b81526000926001600160a01b03169163f0f3f2c8916120899190600401614d9a565b60006040518083038186803b1580156120a157600080fd5b505afa1580156120b5573d6000803e3d6000fd5b505050506040513d6000823e601f3d908101601f191682016040526120dd91908101906142b4565b60200151905060018151111561248a5760005b815181101561248857306001600160a01b031682828151811061210f57fe5b60200260200101516001600160a01b031614801561212b575080155b156121e557600082826001018151811061214157fe5b60200260200101516001600160a01b0316639f8743f76040518163ffffffff1660e01b81526004016101006040518083038186803b15801561218257600080fd5b505afa158015612196573d6000803e3d6000fd5b505050506040513d601f19601f820116820180604052508101906121ba91906143af565b9050806040015184106121df5760405162461bcd60e51b81526004016107d290614c4b565b50612480565b306001600160a01b03168282815181106121fb57fe5b60200260200101516001600160a01b031614801561221a575060018110155b80156122295750815181600101105b1561239357600082600183038151811061223f57fe5b60200260200101516001600160a01b0316639f8743f76040518163ffffffff1660e01b81526004016101006040518083038186803b15801561228057600080fd5b505afa158015612294573d6000803e3d6000fd5b505050506040513d601f19601f820116820180604052508101906122b891906143af565b905060008383600101815181106122cb57fe5b60200260200101516001600160a01b0316639f8743f76040518163ffffffff1660e01b81526004016101006040518083038186803b15801561230c57600080fd5b505afa158015612320573d6000803e3d6000fd5b505050506040513d601f19601f8201168201806040525081019061234491906143af565b9050816060015186116123695760405162461bcd60e51b81526004016107d290614c14565b8060400151851061238c5760405162461bcd60e51b81526004016107d290614c4b565b5050612480565b306001600160a01b03168282815181106123a957fe5b60200260200101516001600160a01b03161480156123ca5750815181600101145b156124805760008260018303815181106123e057fe5b60200260200101516001600160a01b0316639f8743f76040518163ffffffff1660e01b81526004016101006040518083038186803b15801561242157600080fd5b505afa158015612435573d6000803e3d6000fd5b505050506040513d601f19601f8201168201806040525081019061245991906143af565b90508060600151851161247e5760405162461bcd60e51b81526004016107d290614c14565b505b6001016120f0565b505b50600991909155600a55565b60025460ff1681565b60025460609060ff16156124c55760405162461bcd60e51b81526004016107d290614b86565b6001600160a01b038216600090815260146020908152604080832080548251818502810185019093528083529193909284015b8282101561253e578382906000526020600020906002020160405180604001604052908160008201548152602001600182015481525050815260200190600101906124f8565b505050509050919050565b33612552611d4f565b6001600160a01b0316816001600160a01b031614156128bb57600954421061258c5760405162461bcd60e51b81526004016107d290614cb9565b6000805b835181101561264b5760005b845181101561260c578082146125fa578482815181106125b857fe5b6020026020010151600001518582815181106125d057fe5b60200260200101516000015114156125fa5760405162461bcd60e51b81526004016107d290614707565b61260581600161397f565b905061259c565b5061263784828151811061261c57fe5b6020026020010151602001518361397f90919063ffffffff16565b915061264481600161397f565b9050612590565b50600c5460165461265c908361397f565b111561267a5760405162461bcd60e51b81526004016107d2906147ac565b60055460ff161561278a5760155415612728576000805b84518110156127255760005b60155481101561271257601581815481106126b457fe5b9060005260206000209060020201600001548683815181106126d257fe5b6020026020010151600001511415612700576001925060405162461bcd60e51b81526004016107d2906148ca565b61270b81600161397f565b905061269d565b5061271e81600161397f565b9050612691565b50505b60005b835181101561278457601584828151811061274257fe5b60209081029190910181015182546001818101855560009485529383902082516002909202019081559101519082015561277d90829061397f565b905061272b565b506128b5565b60005b83518110156128b3576000805b60155481101561285c57601581815481106127b157fe5b9060005260206000209060020201600001548684815181106127cf57fe5b6020026020010151600001511415612854576128298684815181106127f057fe5b6020026020010151602001516015838154811061280957fe5b90600052602060002090600202016001015461397f90919063ffffffff16565b6015828154811061283657fe5b9060005260206000209060020201600101819055506001915061285c565b60010161279a565b50806128a057601585838151811061287057fe5b60209081029190910181015182546001818101855560009485529383902082516002909202019081559101519101555b506128ac81600161397f565b905061278d565b505b50612caf565b600f54600354604051631e1e7e5960e31b81526000926001600160a01b03169163f0f3f2c8916128ee9190600401614d9a565b60006040518083038186803b15801561290657600080fd5b505afa15801561291a573d6000803e3d6000fd5b505050506040513d6000823e601f3d908101601f1916820160405261294291908101906142b4565b6020015190506000805b825181101561299957836001600160a01b031683828151811061296b57fe5b60200260200101516001600160a01b0316141561298757600191505b61299281600161397f565b905061294c565b50806129b75760405162461bcd60e51b81526004016107d290614bd3565b60095442106129d85760405162461bcd60e51b81526004016107d290614cb9565b6000805b8551811015612a7c5760005b8651811015612a5857808214612a4657868281518110612a0457fe5b602002602001015160000151878281518110612a1c57fe5b6020026020010151600001511415612a465760405162461bcd60e51b81526004016107d290614707565b612a5181600161397f565b90506129e8565b50612a6886828151811061261c57fe5b9150612a7581600161397f565b90506129dc565b50600c54601654612a8d908361397f565b1115612aab5760405162461bcd60e51b81526004016107d2906147ac565b60055460ff1615612bbb5760155415612b59576000805b8651811015612b565760005b601554811015612b435760158181548110612ae557fe5b906000526020600020906002020160000154888381518110612b0357fe5b6020026020010151600001511415612b31576001925060405162461bcd60e51b81526004016107d2906148ca565b612b3c81600161397f565b9050612ace565b50612b4f81600161397f565b9050612ac2565b50505b60005b8551811015612bb5576015868281518110612b7357fe5b602090810291909101810151825460018181018555600094855293839020825160029092020190815591015190820155612bae90829061397f565b9050612b5c565b50612cab565b60005b8551811015611d36576000805b601554811015612c545760158181548110612be257fe5b906000526020600020906002020160000154888481518110612c0057fe5b6020026020010151600001511415612c4c57612c218884815181106127f057fe5b60158281548110612c2e57fe5b90600052602060002090600202016001018190555060019150612c54565b600101612bcb565b5080612c98576015878381518110612c6857fe5b60209081029190910181015182546001818101855560009485529383902082516002909202019081559101519101555b50612ca481600161397f565b9050612bbe565b5050505b5050565b600a544211612cd45760405162461bcd60e51b81526004016107d290614bab565b600b54421180612ce45750600b54155b612d005760405162461bcd60e51b81526004016107d29061484a565b33600090815260146020526040902054612d2c5760405162461bcd60e51b81526004016107d290614ab9565b60055460ff1615612d4f5760405162461bcd60e51b81526004016107d290614ae6565b33600081815260146020908152604080832080548251818502810185019093528083529192909190849084015b82821015612dc257838290600052602060002090600202016040518060400160405290816000820154815260200160018201548152505081526020019060010190612d7c565b5050506001600160a01b0384166000908152601460205260408120929350612deb929150613d8f565b60005b8151811015610ac957612e46828281518110612e0657fe5b60200260200101516020015160136000866001600160a01b03166001600160a01b031681526020019081526020016000205461397f90919063ffffffff16565b6001600160a01b038416600090815260136020526040902055600554610100900460ff1615612f1e576005548251606091630100000090046001600160a01b031690819063f242432a9030908890889088908110612ea057fe5b602002602001015160000151888881518110612eb857fe5b602002602001015160200151876040518663ffffffff1660e01b8152600401612ee59594939291906145ce565b600060405180830381600087803b158015612eff57600080fd5b505af1158015612f13573d6000803e3d6000fd5b505050505050612fcf565b6000600560000160039054906101000a90046001600160a01b03169050806001600160a01b0316634b04de6b3086868681518110612f5857fe5b602002602001015160000151878781518110612f7057fe5b6020026020010151602001516040518563ffffffff1660e01b8152600401612f9b94939291906145a5565b600060405180830381600087803b158015612fb557600080fd5b505af1158015612fc9573d6000803e3d6000fd5b50505050505b612fda81600161397f565b9050612dee565b6010546001600160a01b031681565b60116020526000908152604090205460ff1681565b61300d61395c565b6001600160a01b031661301e611d4f565b6001600160a01b031614613067576040805162461bcd60e51b81526020600482018190526024820152600080516020614fb8833981519152604482015290519081900360640190fd5b600a5442116130885760405162461bcd60e51b81526004016107d290614bab565b60006015805480602002602001604051908101604052809291908181526020016000905b828210156130f2578382906000526020600020906002020160405180604001604052908160008201548152602001600182015481525050815260200190600101906130ac565b5050600d54600c549394506001600160a01b03871693637d86606f935061311a925090613ccb565b84846040518463ffffffff1660e01b815260040161313a93929190614dfb565b600060405180830381600087803b15801561315457600080fd5b505af1158015613168573d6000803e3d6000fd5b5050505060156000610ac99190613d8f565b63bc197c8160e01b98975050505050505050565b60095442106131af5760405162461bcd60e51b81526004016107d290614cb9565b600f546001600160a01b031633146131d95760405162461bcd60e51b81526004016107d290614b27565b806005610ac98282614e90565b60025460609060ff161561320c5760405162461bcd60e51b81526004016107d290614b86565b6015805480602002602001604051908101604052809291908181526020016000905b828210156132745783829060005260206000209060020201604051806040016040529081600082015481526020016001820154815250508152602001906001019061322e565b50505050905090565b61328561395c565b6001600160a01b0316613296611d4f565b6001600160a01b0316146132df576040805162461bcd60e51b81526020600482018190526024820152600080516020614fb8833981519152604482015290519081900360640190fd5b60095442106133005760405162461bcd60e51b81526004016107d290614cb9565b600e55565b60025460009060ff161561332b5760405162461bcd60e51b81526004016107d290614b86565b506001600160a01b031660009081526013602052604090205490565b60025460009060ff161561336d5760405162461bcd60e51b81526004016107d290614b86565b6001600160a01b0382166000908152601360209081526040808320546012909252909120546107fe91613ccb565b60025460009060ff16156133c15760405162461bcd60e51b81526004016107d290614b86565b506001600160a01b031660009081526012602052604090205490565b63f23a6e6160e01b9695505050505050565b6133f761395c565b6001600160a01b0316613408611d4f565b6001600160a01b031614613451576040805162461bcd60e51b81526020600482018190526024820152600080516020614fb8833981519152604482015290519081900360640190fd5b6001600160a01b0381166134965760405162461bcd60e51b8152600401808060200182810382526026815260200180614f716026913960400191505060405180910390fd5b600080546040516001600160a01b03808516939216917f8be0079c531659141344cd1fd0a4f28419497f9722a3daafe3b4186f6b6457e091a3600080546001600160a01b0319166001600160a01b0392909216919091179055565b60025460009060ff16156135175760405162461bcd60e51b81526004016107d290614b86565b506001600160a01b031660009081526018602052604090205460ff1690565b61353e61395c565b6001600160a01b031661354f611d4f565b6001600160a01b031614613598576040805162461bcd60e51b81526020600482018190526024820152600080516020614fb8833981519152604482015290519081900360640190fd5b6002805460ff19166001179055565b60095442116135c85760405162461bcd60e51b81526004016107d290614901565b600a5442106135e95760405162461bcd60e51b81526004016107d2906146e3565b600c54600d548291906135fc908361397f565b1115806136095750600c54155b6136255760405162461bcd60e51b81526004016107d290614b5e565b600e5433600090815260126020526040902054839190613645908361397f565b1115806136525750600e54155b61366e5760405162461bcd60e51b81526004016107d290614775565b60025460ff16156136915760405162461bcd60e51b81526004016107d290614b86565b60055460ff16156136b45760405162461bcd60e51b81526004016107d290614ae6565b600854339034906000906136c99087906139e2565b6017546040516370a0823160e01b81529192506000916001600160a01b03909116906370a08231906136ff90879060040161456d565b60206040518083038186803b15801561371757600080fd5b505afa15801561372b573d6000803e3d6000fd5b505050506040513d601f19601f8201168201806040525081019061374f9190614478565b118061377357506001600160a01b03831660009081526018602052604090205460ff165b61378f5760405162461bcd60e51b81526004016107d29061481b565b808210156137af5760405162461bcd60e51b81526004016107d29061492b565b6137b883613a3b565b600060156000815481106137c857fe5b6000918252602090912060029091020154600d549091506137e9908861397f565b600d556001600160a01b03841660009081526012602052604090205461380f908861397f565b6001600160a01b0385166000908152601260205260408120919091556138359088613a93565b60408051808201825282815260208082018a81526001600160a01b03808916600090815260148452858120805460018181018355918352949091208551600290950201938455915192909101919091556005546006549351634b04de6b60e01b8152929363010000009091048216928392634b04de6b926138c192911690309088908f906004016145a5565b600060405180830381600087803b1580156138db57600080fd5b505af11580156138ef573d6000803e3d6000fd5b505050506138fd8585613ba0565b6003546005546040517f1ff3a7716f3fff8145d5b76fc24d79b1471d0f15c15fc3fbb4e894babc110e0192613949928a9263010000009091046001600160a01b03169088908f90614675565b60405180910390a1505050505050505050565b3390565b6001600160e01b03191660009081526001602052604090205460ff1690565b6000828201838110156139d9576040805162461bcd60e51b815260206004820152601b60248201527f536166654d6174683a206164646974696f6e206f766572666c6f770000000000604482015290519081900360640190fd5b90505b92915050565b6000826139f1575060006139dc565b828202828482816139fe57fe5b04146139d95760405162461bcd60e51b8152600401808060200182810382526021815260200180614f976021913960400191505060405180910390fd5b6001600160a01b03811660009081526011602052604090205460ff166107f0576001600160a01b0381166000908152601160205260409020805460ff19166001908117909155600454613a8d9161397f565b60045550565b6015548210613ab45760405162461bcd60e51b81526004016107d290614c82565b613ae58160158481548110613ac557fe5b906000526020600020906002020160010154613ccb90919063ffffffff16565b613b695760158054613af8906001613ccb565b81548110613b0257fe5b906000526020600020906002020160158381548110613b1d57fe5b6000918252602090912082546002909202019081556001918201549101556015805480613b4657fe5b600082815260208120600260001990930192830201818155600101559055612caf565b613b7a8160158481548110613ac557fe5b60158381548110613b8757fe5b9060005260206000209060020201600101819055505050565b601054600090613bca9061271090613bc4908590600160a01b900461ffff166139e2565b90613d28565b6010546040519192506001600160a01b03169082156108fc029083906000818181858888f19350505050158015613c05573d6000803e3d6000fd5b506006546001600160a01b03166108fc613c1f8484613ccb565b6040518115909202916000818181858888f19350505050158015613c47573d6000803e3d6000fd5b50336108fc613c568585613ccb565b6040518115909202916000818181858888f19350505050158015613c7e573d6000803e3d6000fd5b50505050565b60155460405160009190613ca5903390600019430140904290602001614543565b6040516020818303038152906040528051906020012060001c81613cc557fe5b06905090565b600082821115613d22576040805162461bcd60e51b815260206004820152601e60248201527f536166654d6174683a207375627472616374696f6e206f766572666c6f770000604482015290519081900360640190fd5b50900390565b6000808211613d7e576040805162461bcd60e51b815260206004820152601a60248201527f536166654d6174683a206469766973696f6e206279207a65726f000000000000604482015290519081900360640190fd5b818381613d8757fe5b049392505050565b50805460008255600202906000526020600020908101906107f09190613e24565b6040805160a08101825260008082526020820181905291810182905260608101829052608081019190915290565b6040805161010081019091528060008152602001600081526020016000815260200160008152602001600081526020016000815260200160008152602001600081525090565b5b80821115613e3f5760008082556001820155600201613e25565b5090565b60008083601f840112613e54578182fd5b5081356001600160401b03811115613e6a578182fd5b6020830191508360208083028501011115613e8457600080fd5b9250929050565b600082601f830112613e9b578081fd5b81356020613eb0613eab83614e46565b614e23565b82815281810190858301604080860288018501891015613ece578687fd5b865b86811015613f205781838b031215613ee6578788fd5b81518281018181106001600160401b0382111715613f0057fe5b835283358152868401358782015285529385019391810191600101613ed0565b509198975050505050505050565b60008083601f840112613f3f578182fd5b5081356001600160401b03811115613f55578182fd5b602083019150836020828501011115613e8457600080fd5b80516003811061080157600080fd5b600060a08284031215613f8d578081fd5b60405160a081018181106001600160401b0382111715613fa957fe5b80604052508091508251613fbc81614f62565b81526020830151613fcc81614f62565b60208201526040830151613fdf81614f62565b60408201526060830151613ff281614f4d565b6060820152608083015161400581614f4d565b6080919091015292915050565b600060208284031215614023578081fd5b81356139d981614f4d565b60008060008060008060008060a0898b031215614049578384fd5b883561405481614f4d565b9750602089013561406481614f4d565b965060408901356001600160401b038082111561407f578586fd5b61408b8c838d01613e43565b909850965060608b01359150808211156140a3578586fd5b6140af8c838d01613e43565b909650945060808b01359150808211156140c7578384fd5b506140d48b828c01613f2e565b999c989b5096995094979396929594505050565b6000806000806000608086880312156140ff578081fd5b853561410a81614f4d565b9450602086013561411a81614f4d565b93506040860135925060608601356001600160401b0381111561413b578182fd5b61414788828901613f2e565b969995985093965092949392505050565b60008060008060008060a08789031215614170578384fd5b863561417b81614f4d565b9550602087013561418b81614f4d565b9450604087013593506060870135925060808701356001600160401b038111156141b3578283fd5b6141bf89828a01613f2e565b979a9699509497509295939492505050565b600080604083850312156141e3578182fd5b82356141ee81614f4d565b946020939093013593505050565b6000806020838503121561420e578182fd5b82356001600160401b03811115614223578283fd5b61422f85828601613e43565b90969095509350505050565b60006020828403121561424c578081fd5b81356001600160401b03811115614261578182fd5b61426d84828501613e8b565b949350505050565b600060208284031215614286578081fd5b81356001600160e01b0319811681146139d9578182fd5b600060a082840312156142ae578081fd5b50919050565b600060208083850312156142c6578182fd5b82516001600160401b03808211156142dc578384fd5b9084019060e082870312156142ef578384fd5b60405160608101818110838211171561430457fe5b604052825161431281614f4d565b81528284015182811115614324578586fd5b83019150601f82018713614336578485fd5b8151614344613eab82614e46565b81815285810190848701878402860188018b1015614360578889fd5b8895505b8386101561438b57805161437781614f4d565b835260019590950194918701918701614364565b5083870152506143a090508760408501613f7c565b60408201529695505050505050565b60006101008083850312156143c2578182fd5b604051908101906001600160401b03821181831017156143de57fe5b816040526143eb84613f6d565b81526020840151602082015260408401516040820152606084015160608201526080840151608082015260a084015160a082015260c084015160c082015260e084015160e0820152809250505092915050565b60006020828403121561444f578081fd5b813561ffff811681146139d9578182fd5b600060208284031215614471578081fd5b5035919050565b600060208284031215614489578081fd5b5051919050565b600080604083850312156144a2578182fd5b50508035926020909101359150565b6000806000606084860312156144c5578081fd5b833592506020840135915060408401356001600160401b038111156144e8578182fd5b6144f486828701613e8b565b9150509250925092565b6000815180845260208085019450808401835b83811015614538578151805188528301518388015260409096019590820190600101614511565b509495945050505050565b60609390931b6bffffffffffffffffffffffff191683526014830191909152603482015260540190565b6001600160a01b0391909116815260200190565b6001600160a01b039384168152919092166020820152604081019190915260600190565b6001600160a01b0394851681529290931660208301526040820152606081019190915260800190565b600060018060a01b03808816835260208188168185015286604085015285606085015260a06080850152845191508160a0850152825b828110156146205785810182015185820160c001528101614604565b82811115614631578360c084870101525b5050601f01601f19169190910160c0019695505050505050565b6001600160a01b039485168152602081019390935292166040820152606081019190915260800190565b6001600160a01b03958616815260208101949094529190931660408301526060820192909252608081019190915260a00190565b6000602082526146bc60208301846144fe565b9392505050565b901515815260200190565b6001600160e01b031991909116815260200190565b6020808252600a9082015269154c954e88195b99195960b21b604082015260600190565b6020808252601e908201527f5532553a20696e707574206475706c69636174656420746f6b656e2049440000604082015260600190565b6020808252601e908201527f5532553a2063616c6c6572206e6f7420636f6e747261637420726f756e640000604082015260600190565b60208082526018908201527f5532553a20796f757220616d6f756e7420726561636865640000000000000000604082015260600190565b60208082526029908201527f5532553a20746f74616c204e4654732063616e277420657863656564206d6178604082015268105b5bdd5b9d13919560ba1b606082015260800190565b6020808252600c908201526b05532553a2073746172743d360a41b604082015260600190565b6020808252601590820152745532553a206f6e6c79204e465420686f6c6465727360581b604082015260600190565b6020808252601490820152735532553a2063616e277420636c61696d206e6f7760601b604082015260600190565b60208082526032908201527f5532553a2070726f6a65637420636f6c6c656374696f6e206e6f742045524331604082015271189a9a97aa992a9031b7b63632b1ba34b7b760711b606082015260800190565b60208082526018908201527f5532553a206475706c69636174656420746f6b656e2049440000000000000000604082015260600190565b60208082526010908201526f154c954e881b9bdd081cdd185c9d195960821b604082015260600190565b6020808252601590820152740aa64aa7440ecc2d8eaca40dcdee840cadcdeeaced605b1b604082015260600190565b60208082526011908201527005532553a207374617274436c61696d3d3607c1b604082015260600190565b6020808252601a908201527f5532553a207374617274436c61696d3c5f726f756e642e656e64000000000000604082015260600190565b60208082526022908201527f5532553a2070726f6a65637420636f6c6c656374696f6e206e6f742045524337604082015261323160f01b606082015260800190565b60208082526031908201527f5532553a2070726f6a65637420636f6c6c656374696f6e206e6f742045524337604082015270191897aa992a9031b7b63632b1ba34b7b760791b606082015260800190565b60208082526022908201527f5532553a2070726f6a65637420636f6c6c656374696f6e206973204552433131604082015261353560f01b606082015260800190565b6020808252600e908201526d154c954e88195b990f1cdd185c9d60921b604082015260600190565b6020808252601390820152720aa64aa7440c6d8c2d2dacac840cadcdeeaced606b1b604082015260600190565b60208082526021908201527f5532553a2070726f6a65637420636f6c6c656374696f6e2069732045524337326040820152603160f81b606082015260800190565b6020808252601f908201527f5532553a2063616c6c6572206e6f742070726f6a656374206d616e6167657200604082015260600190565b6020808252600e908201526d5532553a206e6f20737570706c7960901b604082015260600190565b6020808252600b908201526a154c954e881b1bd8dad95960aa1b604082015260600190565b6020808252600e908201526d154c954e881b9bdd08195b99195960921b604082015260600190565b60208082526021908201527f5532553a206f6e6c79206f776e6572206f7220636f6e747261637420726f756e6040820152601960fa1b606082015260800190565b6020808252601a908201527f5532553a2073746172743c726f756e644265666f72652e656e64000000000000604082015260600190565b60208082526019908201527f5532553a20656e643e726f756e6441667465722e737461727400000000000000604082015260600190565b60208082526017908201527f5532553a206172726179206f7574206f6620626f756e64000000000000000000604082015260600190565b6020808252600c908201526b154c954e881cdd185c9d195960a21b604082015260600190565b8151151581526020808301511515908201526040808301511515908201526060808301516001600160a01b0390811691830191909152608092830151169181019190915260a00190565b815161010082019060038110614d3b57fe5b808352506020830151602083015260408301516040830152606083015160608301526080830151608083015260a083015160a083015260c083015160c083015260e083015160e083015292915050565b61ffff91909116815260200190565b90815260200190565b83815260406020808301829052908201839052600090849060608401835b86811015614def578335614dd481614f4d565b6001600160a01b031682529282019290820190600101614dc1565b50979650505050505050565b600084825283602083015260606040830152614e1a60608301846144fe565b95945050505050565b6040518181016001600160401b0381118282101715614e3e57fe5b604052919050565b60006001600160401b03821115614e5957fe5b5060209081020190565b600081356139dc81614f4d565b80546001600160a01b0319166001600160a01b0392909216919091179055565b8135614e9b81614f62565b815490151560ff1660ff1991909116178082556020830135614ebc81614f62565b61ff00199190911690151560081b61ff0016178082556040830135614ee081614f62565b62ff0000199190911690151560101b62ff000016178155614f0c614f0660608401614e63565b82614f24565b612caf614f1b60808401614e63565b60018301614e70565b80546301000000600160b81b03191660189290921b6301000000600160b81b0316919091179055565b6001600160a01b03811681146107f057600080fd5b80151581146107f057600080fdfe4f776e61626c653a206e6577206f776e657220697320746865207a65726f2061646472657373536166654d6174683a206d756c7469706c69636174696f6e206f766572666c6f774f776e61626c653a2063616c6c6572206973206e6f7420746865206f776e6572a2646970667358221220aa7fc0f70d47f974d0811d58c66e93d957d7fd0e2c5f2d78296b3dda6e0786e264736f6c634300070600334f776e61626c653a206e6577206f776e657220697320746865207a65726f2061646472657373a2646970667358221220cbae411742f67aba78f5e76eae73db681a4478eb203c02415fc436e8062d9f5764736f6c63430007060033",
  "linkReferences": {},
  "deployedLinkReferences": {}
}