{
  "_format": "hh-sol-artifact-1",
  "contractName": "U2UPremintRoundFCFS",
  "sourceName": "contracts/U2UPremintRoundFCFS.sol",
  "abi": [
    {
      "inputs": [
        {
          "internalType": "uint256",
          "name": "projectId",
          "type": "uint256"
        },
        {
          "components": [
            {
              "internalType": "enum LibStructs.RoundType",
              "name": "roundType",
              "type": "uint8"
            },
            {
              "internalType": "uint256",
              "name": "price",
              "type": "uint256"
            },
            {
              "internalType": "uint256",
              "name": "start",
              "type": "uint256"
            },
            {
              "internalType": "uint256",
              "name": "end",
              "type": "uint256"
            },
            {
              "internalType": "uint256",
              "name": "startClaim",
              "type": "uint256"
            },
            {
              "internalType": "uint256",
              "name": "maxAmountNFT",
              "type": "uint256"
            },
            {
              "internalType": "uint256",
              "name": "soldAmountNFT",
              "type": "uint256"
            },
            {
              "internalType": "uint256",
              "name": "maxAmountNFTPerWallet",
              "type": "uint256"
            }
          ],
          "internalType": "struct LibStructs.Round",
          "name": "round",
          "type": "tuple"
        },
        {
          "components": [
            {
              "internalType": "bool",
              "name": "isERC721",
              "type": "bool"
            },
            {
              "internalType": "bool",
              "name": "isU2UCollection",
              "type": "bool"
            },
            {
              "internalType": "bool",
              "name": "isPreminted",
              "type": "bool"
            },
            {
              "internalType": "address",
              "name": "collectionAddress",
              "type": "address"
            },
            {
              "internalType": "address",
              "name": "owner",
              "type": "address"
            }
          ],
          "internalType": "struct LibStructs.Collection",
          "name": "collection",
          "type": "tuple"
        }
      ],
      "stateMutability": "nonpayable",
      "type": "constructor"
    },
    {
      "anonymous": false,
      "inputs": [
        {
          "indexed": false,
          "internalType": "address",
          "name": "buyer",
          "type": "address"
        },
        {
          "indexed": false,
          "internalType": "uint256",
          "name": "projectId",
          "type": "uint256"
        },
        {
          "indexed": false,
          "internalType": "address",
          "name": "collection",
          "type": "address"
        },
        {
          "indexed": false,
          "internalType": "uint256",
          "name": "tokenId",
          "type": "uint256"
        },
        {
          "indexed": false,
          "internalType": "uint256",
          "name": "amount",
          "type": "uint256"
        }
      ],
      "name": "BuyERC1155",
      "type": "event"
    },
    {
      "anonymous": false,
      "inputs": [
        {
          "indexed": false,
          "internalType": "address",
          "name": "buyer",
          "type": "address"
        },
        {
          "indexed": false,
          "internalType": "uint256",
          "name": "projectId",
          "type": "uint256"
        },
        {
          "indexed": false,
          "internalType": "address",
          "name": "collection",
          "type": "address"
        },
        {
          "indexed": false,
          "internalType": "uint256",
          "name": "tokenId",
          "type": "uint256"
        },
        {
          "indexed": false,
          "internalType": "uint256",
          "name": "amount",
          "type": "uint256"
        }
      ],
      "name": "BuyERC1155U2U",
      "type": "event"
    },
    {
      "anonymous": false,
      "inputs": [
        {
          "indexed": false,
          "internalType": "address",
          "name": "buyer",
          "type": "address"
        },
        {
          "indexed": false,
          "internalType": "uint256",
          "name": "projectId",
          "type": "uint256"
        },
        {
          "indexed": false,
          "internalType": "address",
          "name": "collection",
          "type": "address"
        },
        {
          "indexed": false,
          "internalType": "uint256",
          "name": "tokenId",
          "type": "uint256"
        }
      ],
      "name": "BuyERC721",
      "type": "event"
    },
    {
      "anonymous": false,
      "inputs": [
        {
          "indexed": false,
          "internalType": "address",
          "name": "buyer",
          "type": "address"
        },
        {
          "indexed": false,
          "internalType": "uint256",
          "name": "projectId",
          "type": "uint256"
        },
        {
          "indexed": false,
          "internalType": "address",
          "name": "collection",
          "type": "address"
        },
        {
          "indexed": false,
          "internalType": "uint256",
          "name": "tokenId",
          "type": "uint256"
        }
      ],
      "name": "BuyERC721U2U",
      "type": "event"
    },
    {
      "anonymous": false,
      "inputs": [
        {
          "indexed": true,
          "internalType": "address",
          "name": "previousOwner",
          "type": "address"
        },
        {
          "indexed": true,
          "internalType": "address",
          "name": "newOwner",
          "type": "address"
        }
      ],
      "name": "OwnershipTransferred",
      "type": "event"
    },
    {
      "inputs": [
        {
          "components": [
            {
              "internalType": "uint256",
              "name": "id",
              "type": "uint256"
            },
            {
              "internalType": "uint256",
              "name": "amount",
              "type": "uint256"
            }
          ],
          "internalType": "struct LibStructs.Token[]",
          "name": "tokens",
          "type": "tuple[]"
        }
      ],
      "name": "addTokens",
      "outputs": [],
      "stateMutability": "nonpayable",
      "type": "function"
    },
    {
      "inputs": [
        {
          "internalType": "uint256",
          "name": "amount",
          "type": "uint256"
        }
      ],
      "name": "buyERC1155",
      "outputs": [],
      "stateMutability": "payable",
      "type": "function"
    },
    {
      "inputs": [
        {
          "internalType": "uint256",
          "name": "amount",
          "type": "uint256"
        }
      ],
      "name": "buyERC1155U2U",
      "outputs": [],
      "stateMutability": "payable",
      "type": "function"
    },
    {
      "inputs": [],
      "name": "buyERC721",
      "outputs": [],
      "stateMutability": "payable",
      "type": "function"
    },
    {
      "inputs": [],
      "name": "buyERC721U2U",
      "outputs": [],
      "stateMutability": "payable",
      "type": "function"
    },
    {
      "inputs": [],
      "name": "claimERC1155",
      "outputs": [],
      "stateMutability": "nonpayable",
      "type": "function"
    },
    {
      "inputs": [],
      "name": "claimERC721",
      "outputs": [],
      "stateMutability": "nonpayable",
      "type": "function"
    },
    {
      "inputs": [],
      "name": "feePercent",
      "outputs": [
        {
          "internalType": "uint16",
          "name": "",
          "type": "uint16"
        }
      ],
      "stateMutability": "view",
      "type": "function"
    },
    {
      "inputs": [],
      "name": "feeReceiver",
      "outputs": [
        {
          "internalType": "address",
          "name": "",
          "type": "address"
        }
      ],
      "stateMutability": "view",
      "type": "function"
    },
    {
      "inputs": [
        {
          "internalType": "address",
          "name": "user",
          "type": "address"
        }
      ],
      "name": "getAmountBought",
      "outputs": [
        {
          "internalType": "uint256",
          "name": "",
          "type": "uint256"
        }
      ],
      "stateMutability": "view",
      "type": "function"
    },
    {
      "inputs": [
        {
          "internalType": "address",
          "name": "user",
          "type": "address"
        }
      ],
      "name": "getAmountClaimed",
      "outputs": [
        {
          "internalType": "uint256",
          "name": "",
          "type": "uint256"
        }
      ],
      "stateMutability": "view",
      "type": "function"
    },
    {
      "inputs": [],
      "name": "getAmountUser",
      "outputs": [
        {
          "internalType": "uint256",
          "name": "",
          "type": "uint256"
        }
      ],
      "stateMutability": "view",
      "type": "function"
    },
    {
      "inputs": [],
      "name": "getAvailableTokenIds",
      "outputs": [
        {
          "components": [
            {
              "internalType": "uint256",
              "name": "id",
              "type": "uint256"
            },
            {
              "internalType": "uint256",
              "name": "amount",
              "type": "uint256"
            }
          ],
          "internalType": "struct LibStructs.Token[]",
          "name": "",
          "type": "tuple[]"
        }
      ],
      "stateMutability": "view",
      "type": "function"
    },
    {
      "inputs": [
        {
          "internalType": "address",
          "name": "user",
          "type": "address"
        }
      ],
      "name": "getClaimableAmount",
      "outputs": [
        {
          "internalType": "uint256",
          "name": "",
          "type": "uint256"
        }
      ],
      "stateMutability": "view",
      "type": "function"
    },
    {
      "inputs": [],
      "name": "getCollection",
      "outputs": [
        {
          "components": [
            {
              "internalType": "bool",
              "name": "isERC721",
              "type": "bool"
            },
            {
              "internalType": "bool",
              "name": "isU2UCollection",
              "type": "bool"
            },
            {
              "internalType": "bool",
              "name": "isPreminted",
              "type": "bool"
            },
            {
              "internalType": "address",
              "name": "collectionAddress",
              "type": "address"
            },
            {
              "internalType": "address",
              "name": "owner",
              "type": "address"
            }
          ],
          "internalType": "struct LibStructs.Collection",
          "name": "",
          "type": "tuple"
        }
      ],
      "stateMutability": "view",
      "type": "function"
    },
    {
      "inputs": [
        {
          "internalType": "address",
          "name": "user",
          "type": "address"
        }
      ],
      "name": "getOwnerOfAmount",
      "outputs": [
        {
          "components": [
            {
              "internalType": "uint256",
              "name": "id",
              "type": "uint256"
            },
            {
              "internalType": "uint256",
              "name": "amount",
              "type": "uint256"
            }
          ],
          "internalType": "struct LibStructs.Token[]",
          "name": "",
          "type": "tuple[]"
        }
      ],
      "stateMutability": "view",
      "type": "function"
    },
    {
      "inputs": [],
      "name": "getProjectId",
      "outputs": [
        {
          "internalType": "uint256",
          "name": "",
          "type": "uint256"
        }
      ],
      "stateMutability": "view",
      "type": "function"
    },
    {
      "inputs": [],
      "name": "getRound",
      "outputs": [
        {
          "components": [
            {
              "internalType": "enum LibStructs.RoundType",
              "name": "roundType",
              "type": "uint8"
            },
            {
              "internalType": "uint256",
              "name": "price",
              "type": "uint256"
            },
            {
              "internalType": "uint256",
              "name": "start",
              "type": "uint256"
            },
            {
              "internalType": "uint256",
              "name": "end",
              "type": "uint256"
            },
            {
              "internalType": "uint256",
              "name": "startClaim",
              "type": "uint256"
            },
            {
              "internalType": "uint256",
              "name": "maxAmountNFT",
              "type": "uint256"
            },
            {
              "internalType": "uint256",
              "name": "soldAmountNFT",
              "type": "uint256"
            },
            {
              "internalType": "uint256",
              "name": "maxAmountNFTPerWallet",
              "type": "uint256"
            }
          ],
          "internalType": "struct LibStructs.Round",
          "name": "",
          "type": "tuple"
        }
      ],
      "stateMutability": "view",
      "type": "function"
    },
    {
      "inputs": [],
      "name": "isLocked",
      "outputs": [
        {
          "internalType": "bool",
          "name": "",
          "type": "bool"
        }
      ],
      "stateMutability": "view",
      "type": "function"
    },
    {
      "inputs": [
        {
          "internalType": "address",
          "name": "",
          "type": "address"
        }
      ],
      "name": "isUserJoined",
      "outputs": [
        {
          "internalType": "bool",
          "name": "",
          "type": "bool"
        }
      ],
      "stateMutability": "view",
      "type": "function"
    },
    {
      "inputs": [],
      "name": "lock",
      "outputs": [],
      "stateMutability": "nonpayable",
      "type": "function"
    },
    {
      "inputs": [
        {
          "internalType": "address",
          "name": "operator",
          "type": "address"
        },
        {
          "internalType": "address",
          "name": "from",
          "type": "address"
        },
        {
          "internalType": "uint256[]",
          "name": "ids",
          "type": "uint256[]"
        },
        {
          "internalType": "uint256[]",
          "name": "values",
          "type": "uint256[]"
        },
        {
          "internalType": "bytes",
          "name": "data",
          "type": "bytes"
        }
      ],
      "name": "onERC1155BatchReceived",
      "outputs": [
        {
          "internalType": "bytes4",
          "name": "",
          "type": "bytes4"
        }
      ],
      "stateMutability": "pure",
      "type": "function"
    },
    {
      "inputs": [
        {
          "internalType": "address",
          "name": "operator",
          "type": "address"
        },
        {
          "internalType": "address",
          "name": "from",
          "type": "address"
        },
        {
          "internalType": "uint256",
          "name": "id",
          "type": "uint256"
        },
        {
          "internalType": "uint256",
          "name": "value",
          "type": "uint256"
        },
        {
          "internalType": "bytes",
          "name": "data",
          "type": "bytes"
        }
      ],
      "name": "onERC1155Received",
      "outputs": [
        {
          "internalType": "bytes4",
          "name": "",
          "type": "bytes4"
        }
      ],
      "stateMutability": "pure",
      "type": "function"
    },
    {
      "inputs": [
        {
          "internalType": "address",
          "name": "operator",
          "type": "address"
        },
        {
          "internalType": "address",
          "name": "from",
          "type": "address"
        },
        {
          "internalType": "uint256",
          "name": "tokenId",
          "type": "uint256"
        },
        {
          "internalType": "bytes",
          "name": "data",
          "type": "bytes"
        }
      ],
      "name": "onERC721Received",
      "outputs": [
        {
          "internalType": "bytes4",
          "name": "",
          "type": "bytes4"
        }
      ],
      "stateMutability": "pure",
      "type": "function"
    },
    {
      "inputs": [],
      "name": "owner",
      "outputs": [
        {
          "internalType": "address",
          "name": "",
          "type": "address"
        }
      ],
      "stateMutability": "view",
      "type": "function"
    },
    {
      "inputs": [],
      "name": "projectManager",
      "outputs": [
        {
          "internalType": "address",
          "name": "",
          "type": "address"
        }
      ],
      "stateMutability": "view",
      "type": "function"
    },
    {
      "inputs": [
        {
          "internalType": "uint256",
          "name": "amount",
          "type": "uint256"
        },
        {
          "internalType": "uint256",
          "name": "newMaxNFTPerWallet",
          "type": "uint256"
        }
      ],
      "name": "receiveAndIncreaseMaxAmountNFT",
      "outputs": [],
      "stateMutability": "nonpayable",
      "type": "function"
    },
    {
      "inputs": [
        {
          "internalType": "uint256",
          "name": "amount",
          "type": "uint256"
        },
        {
          "internalType": "uint256",
          "name": "newMaxNFTPerWallet",
          "type": "uint256"
        },
        {
          "components": [
            {
              "internalType": "uint256",
              "name": "id",
              "type": "uint256"
            },
            {
              "internalType": "uint256",
              "name": "amount",
              "type": "uint256"
            }
          ],
          "internalType": "struct LibStructs.Token[]",
          "name": "tokens",
          "type": "tuple[]"
        }
      ],
      "name": "receiveTokensAndIncreaseMaxAmountNFT",
      "outputs": [],
      "stateMutability": "nonpayable",
      "type": "function"
    },
    {
      "inputs": [],
      "name": "renounceOwnership",
      "outputs": [],
      "stateMutability": "nonpayable",
      "type": "function"
    },
    {
      "inputs": [
        {
          "internalType": "uint256",
          "name": "startClaim",
          "type": "uint256"
        }
      ],
      "name": "setClaimTime",
      "outputs": [],
      "stateMutability": "nonpayable",
      "type": "function"
    },
    {
      "inputs": [
        {
          "components": [
            {
              "internalType": "bool",
              "name": "isERC721",
              "type": "bool"
            },
            {
              "internalType": "bool",
              "name": "isU2UCollection",
              "type": "bool"
            },
            {
              "internalType": "bool",
              "name": "isPreminted",
              "type": "bool"
            },
            {
              "internalType": "address",
              "name": "collectionAddress",
              "type": "address"
            },
            {
              "internalType": "address",
              "name": "owner",
              "type": "address"
            }
          ],
          "internalType": "struct LibStructs.Collection",
          "name": "newCollection",
          "type": "tuple"
        }
      ],
      "name": "setCollection",
      "outputs": [],
      "stateMutability": "nonpayable",
      "type": "function"
    },
    {
      "inputs": [
        {
          "internalType": "uint16",
          "name": "fee",
          "type": "uint16"
        }
      ],
      "name": "setFee",
      "outputs": [],
      "stateMutability": "nonpayable",
      "type": "function"
    },
    {
      "inputs": [
        {
          "internalType": "uint256",
          "name": "max",
          "type": "uint256"
        }
      ],
      "name": "setMaxAmountNFT",
      "outputs": [],
      "stateMutability": "nonpayable",
      "type": "function"
    },
    {
      "inputs": [
        {
          "internalType": "uint256",
          "name": "max",
          "type": "uint256"
        }
      ],
      "name": "setMaxAmountNFTPerWallet",
      "outputs": [],
      "stateMutability": "nonpayable",
      "type": "function"
    },
    {
      "inputs": [
        {
          "internalType": "uint256",
          "name": "price",
          "type": "uint256"
        }
      ],
      "name": "setPrice",
      "outputs": [],
      "stateMutability": "nonpayable",
      "type": "function"
    },
    {
      "inputs": [
        {
          "internalType": "uint256",
          "name": "start",
          "type": "uint256"
        },
        {
          "internalType": "uint256",
          "name": "end",
          "type": "uint256"
        }
      ],
      "name": "setTime",
      "outputs": [],
      "stateMutability": "nonpayable",
      "type": "function"
    },
    {
      "inputs": [
        {
          "components": [
            {
              "internalType": "uint256",
              "name": "id",
              "type": "uint256"
            },
            {
              "internalType": "uint256",
              "name": "amount",
              "type": "uint256"
            }
          ],
          "internalType": "struct LibStructs.Token[]",
          "name": "tokens",
          "type": "tuple[]"
        }
      ],
      "name": "setTokens",
      "outputs": [],
      "stateMutability": "nonpayable",
      "type": "function"
    },
    {
      "inputs": [
        {
          "internalType": "bytes4",
          "name": "interfaceID",
          "type": "bytes4"
        }
      ],
      "name": "supportsInterface",
      "outputs": [
        {
          "internalType": "bool",
          "name": "",
          "type": "bool"
        }
      ],
      "stateMutability": "view",
      "type": "function"
    },
    {
      "inputs": [
        {
          "internalType": "address",
          "name": "nextRound",
          "type": "address"
        },
        {
          "internalType": "uint256",
          "name": "newMaxNFTPerWallet",
          "type": "uint256"
        }
      ],
      "name": "transferNFTsToNextRound",
      "outputs": [],
      "stateMutability": "nonpayable",
      "type": "function"
    },
    {
      "inputs": [
        {
          "internalType": "address",
          "name": "newOwner",
          "type": "address"
        }
      ],
      "name": "transferOwnership",
      "outputs": [],
      "stateMutability": "nonpayable",
      "type": "function"
    }
  ],
  "bytecode": "0x60806040526002805460ff19169055600f805473ccb0c2790f30ae2e806a49813a2a66037458d3156001600160a01b0319918216179091556010805473d069121812e49ab933454f2fa1f6fb852bbe67cd92169190911761ffff60a01b1916607d60a21b1790553480156200007357600080fd5b5060405162004d9f38038062004d9f83398101604081905262000096916200035d565b6000620000a2620001fe565b600080546001600160a01b0319166001600160a01b0383169081178255604051929350917f8be0079c531659141344cd1fd0a4f28419497f9722a3daafe3b4186f6b6457e0908290a350620000fe6301ffc9a760e01b62000202565b6003839055815160078054849290829060ff191660018360028111156200012157fe5b0217905550602082810151600183015560408084015160028401556060808501516003850155608080860151600486015560a086015160058087019190915560c087015160068088019190915560e0909701516007909601959095558651855494880151938801519288015160ff199095169015151761ff001916610100931515939093029290921762ff000019166201000091151591909102176301000000600160b81b03191663010000006001600160a01b03938416021790925592015181546001600160a01b031916921691909117905550620004209050565b3390565b6001600160e01b0319808216141562000262576040805162461bcd60e51b815260206004820152601c60248201527f4552433136353a20696e76616c696420696e7465726661636520696400000000604482015290519081900360640190fd5b6001600160e01b0319166000908152600160208190526040909120805460ff19169091179055565b80516001600160a01b0381168114620002a257600080fd5b919050565b80518015158114620002a257600080fd5b805160038110620002a257600080fd5b600060a08284031215620002da578081fd5b60405160a081016001600160401b0381118282101715620002f757fe5b6040529050806200030883620002a7565b81526200031860208401620002a7565b60208201526200032b60408401620002a7565b60408201526200033e606084016200028a565b606082015262000351608084016200028a565b60808201525092915050565b60008060008385036101c081121562000374578384fd5b8451935061010080601f19830112156200038c578384fd5b60405191508082016001600160401b0381118382101715620003aa57fe5b604052620003bb60208701620002b8565b825260408601516020830152606086015160408301526080860151606083015260a0860151608083015260c086015160a083015260e086015160c08301528086015160e0830152508092505062000417856101208601620002c8565b90509250925092565b61496f80620004306000396000f3fe60806040526004361061023a5760003560e01c80639f8743f71161012e578063bd331d9c116100ab578063e1b0e0f41161006f578063e1b0e0f414610646578063f23a6e6114610666578063f2fde38b14610686578063f83d08ba146106a6578063ff94e88b146106bb5761023a565b8063bd331d9c146105b1578063c13f0a47146105d1578063c19eaa22146105e6578063d36862e814610606578063e12f3a61146106265761023a565b8063b2e3adbb116100f2578063b2e3adbb14610527578063b3f006741461053c578063b5c210ca14610551578063ba3b8dc614610571578063bc197c81146105915761023a565b80639f8743f714610483578063a0355eca146104a5578063a4e2d634146104c5578063b0158110146104da578063b1604a63146105075761023a565b80634251921e116101bc5780637fd6f15c116101805780637fd6f15c146103ec5780638da5cb5b1461040e5780638e0055531461042357806391b7f5ed1461044357806398f0ef9b146104635761023a565b80634251921e1461037857806368ec1e7b1461039a578063715018a6146103a257806372c3e3d6146103b75780637d86606f146103cc5761023a565b8063150b7a0211610203578063150b7a02146102f05780631e996b851461031d5780632e00b2dd1461033d5780632f1a66f714610350578063421cc337146103585761023a565b806269100b1461023f57806301ffc9a714610261578063029eb76e1461029757806303e4ecb8146102b95780631270e10c146102ce575b600080fd5b34801561024b57600080fd5b5061025f61025a366004613bc6565b6106ce565b005b34801561026d57600080fd5b5061028161027c366004613c00565b610772565b60405161028e9190614036565b60405180910390f35b3480156102a357600080fd5b506102ac610785565b60405161028e9190613ee0565b3480156102c557600080fd5b5061025f610794565b3480156102da57600080fd5b506102e3610a4d565b60405161028e9190614754565b3480156102fc57600080fd5b5061031061030b366004613ab2565b610a7a565b60405161028e9190614041565b34801561032957600080fd5b5061025f610338366004613e03565b610a8b565b61025f61034b366004613deb565b610ba3565b61025f610eca565b34801561036457600080fd5b5061025f610373366004613deb565b6111e2565b34801561038457600080fd5b5061038d6112a8565b60405161028e9190614699565b61025f61132c565b3480156103ae57600080fd5b5061025f61160d565b3480156103c357600080fd5b506102e36116b9565b3480156103d857600080fd5b5061025f6103e7366004613e24565b6116e6565b3480156103f857600080fd5b5061040161180b565b60405161028e9190614745565b34801561041a57600080fd5b506102ac61181c565b34801561042f57600080fd5b5061025f61043e366004613dc9565b61182b565b34801561044f57600080fd5b5061025f61045e366004613deb565b6118af565b34801561046f57600080fd5b5061025f61047e366004613deb565b611937565b34801561048f57600080fd5b506104986119bf565b60405161028e91906146e3565b3480156104b157600080fd5b5061025f6104c0366004613e03565b611a64565b3480156104d157600080fd5b50610281611f63565b3480156104e657600080fd5b506104fa6104f53660046139dc565b611f6c565b60405161028e919061401c565b34801561051357600080fd5b5061025f610522366004613bc6565b612016565b34801561053357600080fd5b5061025f612780565b34801561054857600080fd5b506102ac612aae565b34801561055d57600080fd5b5061028161056c3660046139dc565b612abd565b34801561057d57600080fd5b5061025f61058c366004613b9b565b612ad2565b34801561059d57600080fd5b506103106105ac3660046139f8565b612c47565b3480156105bd57600080fd5b5061025f6105cc366004613c28565b612c5b565b3480156105dd57600080fd5b506104fa612cb3565b3480156105f257600080fd5b5061025f610601366004613deb565b612d4a565b34801561061257600080fd5b506102e36106213660046139dc565b612dd2565b34801561063257600080fd5b506102e36106413660046139dc565b612e14565b34801561065257600080fd5b506102e36106613660046139dc565b612e68565b34801561067257600080fd5b50610310610681366004613b22565b612eaa565b34801561069257600080fd5b5061025f6106a13660046139dc565b612ebc565b3480156106b257600080fd5b5061025f612fbe565b61025f6106c9366004613deb565b61302f565b6106d6613326565b6001600160a01b03166106e761181c565b6001600160a01b031614610730576040805162461bcd60e51b8152602060048201819052602482015260008051602061491a833981519152604482015290519081900360640190fd5b600954421061075a5760405162461bcd60e51b815260040161075190614673565b60405180910390fd5b61076660156000613759565b61076f81612016565b50565b600061077d8261332a565b90505b919050565b600f546001600160a01b031681565b600a5442116107b55760405162461bcd60e51b8152600401610751906144ce565b600b544211806107c55750600b54155b6107e15760405162461bcd60e51b815260040161075190614281565b3360009081526014602052604090205461080d5760405162461bcd60e51b8152600401610751906143dc565b60055460ff1661082f5760405162461bcd60e51b815260040161075190614372565b33600081815260146020908152604080832080548251818502810185019093528083529192909190849084015b828210156108a25783829060005260206000209060020201604051806040016040529081600082015481526020016001820154815250508152602001906001019061085c565b5050506001600160a01b03841660009081526014602052604081209293506108cb929150613759565b60005b8151811015610a485781516001600160a01b038416600090815260136020526040902055600554610100900460ff161561099e576000600560000160039054906101000a90046001600160a01b03169050806001600160a01b03166342842e0e308686868151811061093c57fe5b6020026020010151600001516040518463ffffffff1660e01b815260040161096693929190613ef4565b600060405180830381600087803b15801561098057600080fd5b505af1158015610994573d6000803e3d6000fd5b5050505050610a36565b6000600560000160039054906101000a90046001600160a01b03169050806001600160a01b031663293200b430868686815181106109d857fe5b6020026020010151600001516040518463ffffffff1660e01b8152600401610a0293929190613ef4565b600060405180830381600087803b158015610a1c57600080fd5b505af1158015610a30573d6000803e3d6000fd5b50505050505b610a41816001613349565b90506108ce565b505050565b60025460009060ff1615610a735760405162461bcd60e51b8152600401610751906144a9565b5060035490565b630a85bd0160e11b95945050505050565b600f54600354604051631e1e7e5960e31b815233926000926001600160a01b039091169163f0f3f2c891610ac191600401614754565b60006040518083038186803b158015610ad957600080fd5b505afa158015610aed573d6000803e3d6000fd5b505050506040513d6000823e601f3d908101601f19168201604052610b159190810190613c3f565b6020015190506000805b8251811015610b6c57836001600160a01b0316838281518110610b3e57fe5b60200260200101516001600160a01b03161415610b5a57600191505b610b65816001613349565b9050610b1f565b5080610b8a5760405162461bcd60e51b8152600401610751906140f6565b600c54610b979086613349565b600c55505050600e5550565b6009544211610bc45760405162461bcd60e51b8152600401610751906142e6565b600a544210610be55760405162461bcd60e51b815260040161075190614056565b600c54600d54829190610bf89083613349565b111580610c055750600c54155b610c215760405162461bcd60e51b815260040161075190614481565b600e5433600090815260126020526040902054839190610c419083613349565b111580610c4e5750600e54155b610c6a5760405162461bcd60e51b81526004016107519061412d565b60025460ff1615610c8d5760405162461bcd60e51b8152600401610751906144a9565b60055460ff1615610cb05760405162461bcd60e51b8152600401610751906141cc565b600554610100900460ff16610cd75760405162461bcd60e51b815260040161075190614164565b60085433903490600090610cec9087906133ac565b905080821015610d0e5760405162461bcd60e51b8152600401610751906144f6565b610d1783613405565b60006015600081548110610d2757fe5b6000918252602090912060029091020154600d54909150610d489088613349565b600d556001600160a01b038416600090815260126020526040902054610d6e9088613349565b6001600160a01b038516600090815260126020526040812091909155610d94908861345d565b600554600654604051637921219560e11b81526001600160a01b036301000000909304831692606092849263f242432a92610ddb921690309088908f908890600401613f41565b600060405180830381600087803b158015610df557600080fd5b505af1158015610e09573d6000803e3d6000fd5b505060408051808201825286815260208082018e81526001600160a01b038c16600090815260148352938420805460018181018355918652929094208351600290930201918255519201919091559150610e659050868661356a565b7f4176a0eed17d645c2414488a594c6163719df60e816525d041251d1e6219a83787600354600560000160039054906101000a90046001600160a01b0316878e604051610eb6959493929190613fe8565b60405180910390a150505050505050505050565b6009544211610eeb5760405162461bcd60e51b8152600401610751906142e6565b600a544210610f0c5760405162461bcd60e51b815260040161075190614056565b600c54600d541080610f1e5750600c54155b610f3a5760405162461bcd60e51b815260040161075190614481565b600e54336000908152601260205260409020541080610f595750600e54155b610f755760405162461bcd60e51b81526004016107519061412d565b60025460ff1615610f985760405162461bcd60e51b8152600401610751906144a9565b601554610fb75760405162461bcd60e51b815260040161075190614647565b60055460ff16610fd95760405162461bcd60e51b81526004016107519061407a565b600554610100900460ff166110005760405162461bcd60e51b815260040161075190614164565b600854339034908110156110265760405162461bcd60e51b8152600401610751906144f6565b61102f82613405565b600061103961364e565b905060006015828154811061104a57fe5b6000918252602090912060029091020154600d5490915061106c906001613349565b600d556001600160a01b038416600090815260126020526040902054611093906001613349565b6001600160a01b0385166000908152601260205260409020556110b782600161345d565b600554600654604051632142170760e11b815263010000009092046001600160a01b039081169283926342842e0e926110f99291169030908790600401613ef4565b600060405180830381600087803b15801561111357600080fd5b505af1158015611127573d6000803e3d6000fd5b5050604080518082018252858152600160208083018281526001600160a01b038c166000908152601483529485208054808501825590865291909420835160029092020190815592519201919091556008549092506111889150869061356a565b6003546005546040517fe01ed4c4f469fbc4b6f97ecaaee0d1ae03e2d87394cf371cc92e0064effdda2c926111d2928a9263010000009091046001600160a01b0316908890613fbe565b60405180910390a1505050505050565b6111ea613326565b6001600160a01b03166111fb61181c565b6001600160a01b031614611244576040805162461bcd60e51b8152602060048201819052602482015260008051602061491a833981519152604482015290519081900360640190fd5b60095442106112655760405162461bcd60e51b815260040161075190614673565b806112825760405162461bcd60e51b815260040161075190614310565b600a5481116112a35760405162461bcd60e51b81526004016107519061433b565b600b55565b6112b061377a565b60025460ff16156112d35760405162461bcd60e51b8152600401610751906144a9565b506040805160a08101825260055460ff8082161515835261010082048116151560208401526201000082041615159282019290925263010000009091046001600160a01b03908116606083015260065416608082015290565b600954421161134d5760405162461bcd60e51b8152600401610751906142e6565b600a54421061136e5760405162461bcd60e51b815260040161075190614056565b600c54600d5410806113805750600c54155b61139c5760405162461bcd60e51b815260040161075190614481565b600e543360009081526012602052604090205410806113bb5750600e54155b6113d75760405162461bcd60e51b81526004016107519061412d565b60025460ff16156113fa5760405162461bcd60e51b8152600401610751906144a9565b6015546114195760405162461bcd60e51b815260040161075190614647565b60055460ff1661143b5760405162461bcd60e51b81526004016107519061407a565b600854339034908110156114615760405162461bcd60e51b8152600401610751906144f6565b61146a82613405565b600061147461364e565b905060006015828154811061148557fe5b6000918252602090912060029091020154600d549091506114a7906001613349565b600d556001600160a01b0384166000908152601260205260409020546114ce906001613349565b6001600160a01b0385166000908152601260205260409020556114f282600161345d565b600554600654604051630a4c802d60e21b815263010000009092046001600160a01b0390811692839263293200b4926115349291169030908790600401613ef4565b600060405180830381600087803b15801561154e57600080fd5b505af1158015611562573d6000803e3d6000fd5b5050604080518082018252858152600160208083018281526001600160a01b038c166000908152601483529485208054808501825590865291909420835160029092020190815592519201919091556008549092506115c39150869061356a565b6003546005546040517f6a72c352c64d27d46d3443219106d6aef11c7b87db76c9a0e0848fb236d3f62d926111d2928a9263010000009091046001600160a01b0316908890613fbe565b611615613326565b6001600160a01b031661162661181c565b6001600160a01b03161461166f576040805162461bcd60e51b8152602060048201819052602482015260008051602061491a833981519152604482015290519081900360640190fd5b600080546040516001600160a01b03909116907f8be0079c531659141344cd1fd0a4f28419497f9722a3daafe3b4186f6b6457e0908390a3600080546001600160a01b0319169055565b60025460009060ff16156116df5760405162461bcd60e51b8152600401610751906144a9565b5060045490565b600f54600354604051631e1e7e5960e31b815233926000926001600160a01b039091169163f0f3f2c89161171c91600401614754565b60006040518083038186803b15801561173457600080fd5b505afa158015611748573d6000803e3d6000fd5b505050506040513d6000823e601f3d908101601f191682016040526117709190810190613c3f565b6020015190506000805b82518110156117c757836001600160a01b031683828151811061179957fe5b60200260200101516001600160a01b031614156117b557600191505b6117c0816001613349565b905061177a565b50806117e55760405162461bcd60e51b8152600401610751906140f6565b600c546117f29087613349565b600c55600e85905561180384612016565b505050505050565b601054600160a01b900461ffff1681565b6000546001600160a01b031690565b611833613326565b6001600160a01b031661184461181c565b6001600160a01b03161461188d576040805162461bcd60e51b8152602060048201819052602482015260008051602061491a833981519152604482015290519081900360640190fd5b6010805461ffff909216600160a01b0261ffff60a01b19909216919091179055565b6118b7613326565b6001600160a01b03166118c861181c565b6001600160a01b031614611911576040805162461bcd60e51b8152602060048201819052602482015260008051602061491a833981519152604482015290519081900360640190fd5b60095442106119325760405162461bcd60e51b815260040161075190614673565b600855565b61193f613326565b6001600160a01b031661195061181c565b6001600160a01b031614611999576040805162461bcd60e51b8152602060048201819052602482015260008051602061491a833981519152604482015290519081900360640190fd5b60095442106119ba5760405162461bcd60e51b815260040161075190614673565b600c55565b6119c76137a8565b60025460ff16156119ea5760405162461bcd60e51b8152600401610751906144a9565b60408051610100810190915260078054829060ff166002811115611a0a57fe5b6002811115611a1557fe5b8152602001600182015481526020016002820154815260200160038201548152602001600482015481526020016005820154815260200160068201548152602001600782015481525050905090565b611a6c613326565b6001600160a01b0316611a7d61181c565b6001600160a01b031614611ac6576040805162461bcd60e51b8152602060048201819052602482015260008051602061491a833981519152604482015290519081900360640190fd5b6009544210611ae75760405162461bcd60e51b815260040161075190614673565b81611b045760405162461bcd60e51b81526004016107519061425b565b818111611b235760405162461bcd60e51b8152600401610751906143b4565b600f54600354604051631e1e7e5960e31b81526000926001600160a01b03169163f0f3f2c891611b569190600401614754565b60006040518083038186803b158015611b6e57600080fd5b505afa158015611b82573d6000803e3d6000fd5b505050506040513d6000823e601f3d908101601f19168201604052611baa9190810190613c3f565b602001519050600181511115611f575760005b8151811015611f5557306001600160a01b0316828281518110611bdc57fe5b60200260200101516001600160a01b0316148015611bf8575080155b15611cb2576000828260010181518110611c0e57fe5b60200260200101516001600160a01b0316639f8743f76040518163ffffffff1660e01b81526004016101006040518083038186803b158015611c4f57600080fd5b505afa158015611c63573d6000803e3d6000fd5b505050506040513d601f19601f82011682018060405250810190611c879190613d3a565b905080604001518410611cac5760405162461bcd60e51b8152600401610751906145d9565b50611f4d565b306001600160a01b0316828281518110611cc857fe5b60200260200101516001600160a01b0316148015611ce7575060018110155b8015611cf65750815181600101105b15611e60576000826001830381518110611d0c57fe5b60200260200101516001600160a01b0316639f8743f76040518163ffffffff1660e01b81526004016101006040518083038186803b158015611d4d57600080fd5b505afa158015611d61573d6000803e3d6000fd5b505050506040513d601f19601f82011682018060405250810190611d859190613d3a565b90506000838360010181518110611d9857fe5b60200260200101516001600160a01b0316639f8743f76040518163ffffffff1660e01b81526004016101006040518083038186803b158015611dd957600080fd5b505afa158015611ded573d6000803e3d6000fd5b505050506040513d601f19601f82011682018060405250810190611e119190613d3a565b905081606001518611611e365760405162461bcd60e51b8152600401610751906145a2565b80604001518510611e595760405162461bcd60e51b8152600401610751906145d9565b5050611f4d565b306001600160a01b0316828281518110611e7657fe5b60200260200101516001600160a01b0316148015611e975750815181600101145b15611f4d576000826001830381518110611ead57fe5b60200260200101516001600160a01b0316639f8743f76040518163ffffffff1660e01b81526004016101006040518083038186803b158015611eee57600080fd5b505afa158015611f02573d6000803e3d6000fd5b505050506040513d601f19601f82011682018060405250810190611f269190613d3a565b905080606001518511611f4b5760405162461bcd60e51b8152600401610751906145a2565b505b600101611bbd565b505b50600991909155600a55565b60025460ff1681565b60025460609060ff1615611f925760405162461bcd60e51b8152600401610751906144a9565b6001600160a01b038216600090815260146020908152604080832080548251818502810185019093528083529193909284015b8282101561200b57838290600052602060002090600202016040518060400160405290816000820154815260200160018201548152505081526020019060010190611fc5565b505050509050919050565b3361201f61181c565b6001600160a01b0316816001600160a01b031614156123885760095442106120595760405162461bcd60e51b815260040161075190614673565b6000805b83518110156121185760005b84518110156120d9578082146120c75784828151811061208557fe5b60200260200101516000015185828151811061209d57fe5b60200260200101516000015114156120c75760405162461bcd60e51b8152600401610751906140bf565b6120d2816001613349565b9050612069565b506121048482815181106120e957fe5b6020026020010151602001518361334990919063ffffffff16565b9150612111816001613349565b905061205d565b50600c546016546121299083613349565b11156121475760405162461bcd60e51b815260040161075190614212565b60055460ff161561225757601554156121f5576000805b84518110156121f25760005b6015548110156121df576015818154811061218157fe5b90600052602060002090600202016000015486838151811061219f57fe5b60200260200101516000015114156121cd576001925060405162461bcd60e51b8152600401610751906142af565b6121d8816001613349565b905061216a565b506121eb816001613349565b905061215e565b50505b60005b835181101561225157601584828151811061220f57fe5b60209081029190910181015182546001818101855560009485529383902082516002909202019081559101519082015561224a908290613349565b90506121f8565b50612382565b60005b8351811015612380576000805b601554811015612329576015818154811061227e57fe5b90600052602060002090600202016000015486848151811061229c57fe5b6020026020010151600001511415612321576122f68684815181106122bd57fe5b602002602001015160200151601583815481106122d657fe5b90600052602060002090600202016001015461334990919063ffffffff16565b6015828154811061230357fe5b90600052602060002090600202016001018190555060019150612329565b600101612267565b508061236d57601585838151811061233d57fe5b60209081029190910181015182546001818101855560009485529383902082516002909202019081559101519101555b50612379816001613349565b905061225a565b505b5061277c565b600f54600354604051631e1e7e5960e31b81526000926001600160a01b03169163f0f3f2c8916123bb9190600401614754565b60006040518083038186803b1580156123d357600080fd5b505afa1580156123e7573d6000803e3d6000fd5b505050506040513d6000823e601f3d908101601f1916820160405261240f9190810190613c3f565b6020015190506000805b825181101561246657836001600160a01b031683828151811061243857fe5b60200260200101516001600160a01b0316141561245457600191505b61245f816001613349565b9050612419565b50806124845760405162461bcd60e51b815260040161075190614561565b60095442106124a55760405162461bcd60e51b815260040161075190614673565b6000805b85518110156125495760005b865181101561252557808214612513578682815181106124d157fe5b6020026020010151600001518782815181106124e957fe5b60200260200101516000015114156125135760405162461bcd60e51b8152600401610751906140bf565b61251e816001613349565b90506124b5565b506125358682815181106120e957fe5b9150612542816001613349565b90506124a9565b50600c5460165461255a9083613349565b11156125785760405162461bcd60e51b815260040161075190614212565b60055460ff16156126885760155415612626576000805b86518110156126235760005b60155481101561261057601581815481106125b257fe5b9060005260206000209060020201600001548883815181106125d057fe5b60200260200101516000015114156125fe576001925060405162461bcd60e51b8152600401610751906142af565b612609816001613349565b905061259b565b5061261c816001613349565b905061258f565b50505b60005b855181101561268257601586828151811061264057fe5b60209081029190910181015182546001818101855560009485529383902082516002909202019081559101519082015561267b908290613349565b9050612629565b50612778565b60005b8551811015611803576000805b60155481101561272157601581815481106126af57fe5b9060005260206000209060020201600001548884815181106126cd57fe5b6020026020010151600001511415612719576126ee8884815181106122bd57fe5b601582815481106126fb57fe5b90600052602060002090600202016001018190555060019150612721565b600101612698565b508061276557601587838151811061273557fe5b60209081029190910181015182546001818101855560009485529383902082516002909202019081559101519101555b50612771816001613349565b905061268b565b5050505b5050565b600a5442116127a15760405162461bcd60e51b8152600401610751906144ce565b600b544211806127b15750600b54155b6127cd5760405162461bcd60e51b815260040161075190614281565b336000908152601460205260409020546127f95760405162461bcd60e51b8152600401610751906143dc565b60055460ff161561281c5760405162461bcd60e51b815260040161075190614409565b33600081815260146020908152604080832080548251818502810185019093528083529192909190849084015b8282101561288f57838290600052602060002090600202016040518060400160405290816000820154815260200160018201548152505081526020019060010190612849565b5050506001600160a01b03841660009081526014602052604081209293506128b8929150613759565b60005b8151811015610a48576129138282815181106128d357fe5b60200260200101516020015160136000866001600160a01b03166001600160a01b031681526020019081526020016000205461334990919063ffffffff16565b6001600160a01b038416600090815260136020526040902055600554610100900460ff16156129eb576005548251606091630100000090046001600160a01b031690819063f242432a903090889088908890811061296d57fe5b60200260200101516000015188888151811061298557fe5b602002602001015160200151876040518663ffffffff1660e01b81526004016129b2959493929190613f41565b600060405180830381600087803b1580156129cc57600080fd5b505af11580156129e0573d6000803e3d6000fd5b505050505050612a9c565b6000600560000160039054906101000a90046001600160a01b03169050806001600160a01b0316634b04de6b3086868681518110612a2557fe5b602002602001015160000151878781518110612a3d57fe5b6020026020010151602001516040518563ffffffff1660e01b8152600401612a689493929190613f18565b600060405180830381600087803b158015612a8257600080fd5b505af1158015612a96573d6000803e3d6000fd5b50505050505b612aa7816001613349565b90506128bb565b6010546001600160a01b031681565b60116020526000908152604090205460ff1681565b612ada613326565b6001600160a01b0316612aeb61181c565b6001600160a01b031614612b34576040805162461bcd60e51b8152602060048201819052602482015260008051602061491a833981519152604482015290519081900360640190fd5b600a544211612b555760405162461bcd60e51b8152600401610751906144ce565b60006015805480602002602001604051908101604052809291908181526020016000905b82821015612bbf57838290600052602060002090600202016040518060400160405290816000820154815260200160018201548152505081526020019060010190612b79565b5050600d54600c549394506001600160a01b03871693637d86606f9350612be7925090613695565b84846040518463ffffffff1660e01b8152600401612c079392919061475d565b600060405180830381600087803b158015612c2157600080fd5b505af1158015612c35573d6000803e3d6000fd5b5050505060156000610a489190613759565b63bc197c8160e01b98975050505050505050565b6009544210612c7c5760405162461bcd60e51b815260040161075190614673565b600f546001600160a01b03163314612ca65760405162461bcd60e51b81526004016107519061444a565b806005610a4882826147f2565b60025460609060ff1615612cd95760405162461bcd60e51b8152600401610751906144a9565b6015805480602002602001604051908101604052809291908181526020016000905b82821015612d4157838290600052602060002090600202016040518060400160405290816000820154815260200160018201548152505081526020019060010190612cfb565b50505050905090565b612d52613326565b6001600160a01b0316612d6361181c565b6001600160a01b031614612dac576040805162461bcd60e51b8152602060048201819052602482015260008051602061491a833981519152604482015290519081900360640190fd5b6009544210612dcd5760405162461bcd60e51b815260040161075190614673565b600e55565b60025460009060ff1615612df85760405162461bcd60e51b8152600401610751906144a9565b506001600160a01b031660009081526013602052604090205490565b60025460009060ff1615612e3a5760405162461bcd60e51b8152600401610751906144a9565b6001600160a01b03821660009081526013602090815260408083205460129092529091205461077d91613695565b60025460009060ff1615612e8e5760405162461bcd60e51b8152600401610751906144a9565b506001600160a01b031660009081526012602052604090205490565b63f23a6e6160e01b9695505050505050565b612ec4613326565b6001600160a01b0316612ed561181c565b6001600160a01b031614612f1e576040805162461bcd60e51b8152602060048201819052602482015260008051602061491a833981519152604482015290519081900360640190fd5b6001600160a01b038116612f635760405162461bcd60e51b81526004018080602001828103825260268152602001806148d36026913960400191505060405180910390fd5b600080546040516001600160a01b03808516939216917f8be0079c531659141344cd1fd0a4f28419497f9722a3daafe3b4186f6b6457e091a3600080546001600160a01b0319166001600160a01b0392909216919091179055565b612fc6613326565b6001600160a01b0316612fd761181c565b6001600160a01b031614613020576040805162461bcd60e51b8152602060048201819052602482015260008051602061491a833981519152604482015290519081900360640190fd5b6002805460ff19166001179055565b60095442116130505760405162461bcd60e51b8152600401610751906142e6565b600a5442106130715760405162461bcd60e51b815260040161075190614056565b600c54600d548291906130849083613349565b1115806130915750600c54155b6130ad5760405162461bcd60e51b815260040161075190614481565b600e54336000908152601260205260409020548391906130cd9083613349565b1115806130da5750600e54155b6130f65760405162461bcd60e51b81526004016107519061412d565b60025460ff16156131195760405162461bcd60e51b8152600401610751906144a9565b60055460ff161561313c5760405162461bcd60e51b8152600401610751906141cc565b600854339034906000906131519087906133ac565b9050808210156131735760405162461bcd60e51b8152600401610751906144f6565b61317c83613405565b6000601560008154811061318c57fe5b6000918252602090912060029091020154600d549091506131ad9088613349565b600d556001600160a01b0384166000908152601260205260409020546131d39088613349565b6001600160a01b0385166000908152601260205260408120919091556131f9908861345d565b600554600654604051634b04de6b60e01b815263010000009092046001600160a01b03908116928392634b04de6b9261323d92911690309087908e90600401613f18565b600060405180830381600087803b15801561325757600080fd5b505af115801561326b573d6000803e3d6000fd5b505060408051808201825285815260208082018d81526001600160a01b038b166000908152601483529384208054600181810183559186529290942083516002909302019182555192019190915591506132c79050858561356a565b6003546005546040517f1ff3a7716f3fff8145d5b76fc24d79b1471d0f15c15fc3fbb4e894babc110e0192613313928a9263010000009091046001600160a01b03169088908f90613fe8565b60405180910390a1505050505050505050565b3390565b6001600160e01b03191660009081526001602052604090205460ff1690565b6000828201838110156133a3576040805162461bcd60e51b815260206004820152601b60248201527f536166654d6174683a206164646974696f6e206f766572666c6f770000000000604482015290519081900360640190fd5b90505b92915050565b6000826133bb575060006133a6565b828202828482816133c857fe5b04146133a35760405162461bcd60e51b81526004018080602001828103825260218152602001806148f96021913960400191505060405180910390fd5b6001600160a01b03811660009081526011602052604090205460ff1661076f576001600160a01b0381166000908152601160205260409020805460ff1916600190811790915560045461345791613349565b60045550565b601554821061347e5760405162461bcd60e51b815260040161075190614610565b6134af816015848154811061348f57fe5b90600052602060002090600202016001015461369590919063ffffffff16565b61353357601580546134c2906001613695565b815481106134cc57fe5b9060005260206000209060020201601583815481106134e757fe5b600091825260209091208254600290920201908155600191820154910155601580548061351057fe5b60008281526020812060026000199093019283020181815560010155905561277c565b613544816015848154811061348f57fe5b6015838154811061355157fe5b9060005260206000209060020201600101819055505050565b601054600090613594906127109061358e908590600160a01b900461ffff166133ac565b906136f2565b6010546040519192506001600160a01b03169082156108fc029083906000818181858888f193505050501580156135cf573d6000803e3d6000fd5b506006546001600160a01b03166108fc6135e98484613695565b6040518115909202916000818181858888f19350505050158015613611573d6000803e3d6000fd5b50336108fc6136208585613695565b6040518115909202916000818181858888f19350505050158015613648573d6000803e3d6000fd5b50505050565b6015546040516000919061366f903390600019430140904290602001613eb6565b6040516020818303038152906040528051906020012060001c8161368f57fe5b06905090565b6000828211156136ec576040805162461bcd60e51b815260206004820152601e60248201527f536166654d6174683a207375627472616374696f6e206f766572666c6f770000604482015290519081900360640190fd5b50900390565b6000808211613748576040805162461bcd60e51b815260206004820152601a60248201527f536166654d6174683a206469766973696f6e206279207a65726f000000000000604482015290519081900360640190fd5b81838161375157fe5b049392505050565b508054600082556002029060005260206000209081019061076f91906137ee565b6040805160a08101825260008082526020820181905291810182905260608101829052608081019190915290565b6040805161010081019091528060008152602001600081526020016000815260200160008152602001600081526020016000815260200160008152602001600081525090565b5b8082111561380957600080825560018201556002016137ef565b5090565b600082601f83011261381d578081fd5b8135602061383261382d836147a8565b614785565b82815281810190858301604080860288018501891015613850578687fd5b865b868110156138a25781838b031215613868578788fd5b81518281018181106001600160401b038211171561388257fe5b835283358152868401358782015285529385019391810191600101613852565b509198975050505050505050565b60008083601f8401126138c1578182fd5b5081356001600160401b038111156138d7578182fd5b60208301915083602080830285010111156138f157600080fd5b9250929050565b60008083601f840112613909578182fd5b5081356001600160401b0381111561391f578182fd5b6020830191508360208285010111156138f157600080fd5b80516003811061078057600080fd5b600060a08284031215613957578081fd5b60405160a081018181106001600160401b038211171561397357fe5b80604052508091508251613986816148c4565b81526020830151613996816148c4565b602082015260408301516139a9816148c4565b604082015260608301516139bc816148af565b606082015260808301516139cf816148af565b6080919091015292915050565b6000602082840312156139ed578081fd5b81356133a3816148af565b60008060008060008060008060a0898b031215613a13578384fd5b8835613a1e816148af565b97506020890135613a2e816148af565b965060408901356001600160401b0380821115613a49578586fd5b613a558c838d016138b0565b909850965060608b0135915080821115613a6d578586fd5b613a798c838d016138b0565b909650945060808b0135915080821115613a91578384fd5b50613a9e8b828c016138f8565b999c989b5096995094979396929594505050565b600080600080600060808688031215613ac9578081fd5b8535613ad4816148af565b94506020860135613ae4816148af565b93506040860135925060608601356001600160401b03811115613b05578182fd5b613b11888289016138f8565b969995985093965092949392505050565b60008060008060008060a08789031215613b3a578384fd5b8635613b45816148af565b95506020870135613b55816148af565b9450604087013593506060870135925060808701356001600160401b03811115613b7d578283fd5b613b8989828a016138f8565b979a9699509497509295939492505050565b60008060408385031215613bad578182fd5b8235613bb8816148af565b946020939093013593505050565b600060208284031215613bd7578081fd5b81356001600160401b03811115613bec578182fd5b613bf88482850161380d565b949350505050565b600060208284031215613c11578081fd5b81356001600160e01b0319811681146133a3578182fd5b600060a08284031215613c39578081fd5b50919050565b60006020808385031215613c51578182fd5b82516001600160401b0380821115613c67578384fd5b9084019060e08287031215613c7a578384fd5b604051606081018181108382111715613c8f57fe5b6040528251613c9d816148af565b81528284015182811115613caf578586fd5b83019150601f82018713613cc1578485fd5b8151613ccf61382d826147a8565b81815285810190848701878402860188018b1015613ceb578889fd5b8895505b83861015613d16578051613d02816148af565b835260019590950194918701918701613cef565b508387015250613d2b90508760408501613946565b60408201529695505050505050565b6000610100808385031215613d4d578182fd5b604051908101906001600160401b0382118183101715613d6957fe5b81604052613d7684613937565b81526020840151602082015260408401516040820152606084015160608201526080840151608082015260a084015160a082015260c084015160c082015260e084015160e0820152809250505092915050565b600060208284031215613dda578081fd5b813561ffff811681146133a3578182fd5b600060208284031215613dfc578081fd5b5035919050565b60008060408385031215613e15578182fd5b50508035926020909101359150565b600080600060608486031215613e38578081fd5b833592506020840135915060408401356001600160401b03811115613e5b578182fd5b613e678682870161380d565b9150509250925092565b6000815180845260208085019450808401835b83811015613eab578151805188528301518388015260409096019590820190600101613e84565b509495945050505050565b60609390931b6bffffffffffffffffffffffff191683526014830191909152603482015260540190565b6001600160a01b0391909116815260200190565b6001600160a01b039384168152919092166020820152604081019190915260600190565b6001600160a01b0394851681529290931660208301526040820152606081019190915260800190565b600060018060a01b03808816835260208188168185015286604085015285606085015260a06080850152845191508160a0850152825b82811015613f935785810182015185820160c001528101613f77565b82811115613fa4578360c084870101525b5050601f01601f19169190910160c0019695505050505050565b6001600160a01b039485168152602081019390935292166040820152606081019190915260800190565b6001600160a01b03958616815260208101949094529190931660408301526060820192909252608081019190915260a00190565b60006020825261402f6020830184613e71565b9392505050565b901515815260200190565b6001600160e01b031991909116815260200190565b6020808252600a9082015269154c954e88195b99195960b21b604082015260600190565b60208082526025908201527f5532553a2070726f6a65637420636f6c6c656374696f6e206973206e6f742045604082015264524337323160d81b606082015260800190565b6020808252601e908201527f5532553a20696e707574206475706c69636174656420746f6b656e2049440000604082015260600190565b6020808252601e908201527f5532553a2063616c6c6572206e6f7420636f6e747261637420726f756e640000604082015260600190565b60208082526018908201527f5532553a20796f757220616d6f756e7420726561636865640000000000000000604082015260600190565b60208082526042908201527f5532553a20746869732066756e6374696f6e206f6e6c7920776f726b7320776960408201527f7468204e46547320637265617465642066726f6d2055325520636f6e74726163606082015261747360f01b608082015260a00190565b60208082526026908201527f5532553a2070726f6a65637420636f6c6c656374696f6e206973206e6f74204560408201526552433131353560d01b606082015260800190565b60208082526029908201527f5532553a20746f74616c204e4654732063616e277420657863656564206d6178604082015268105b5bdd5b9d13919560ba1b606082015260800190565b6020808252600c908201526b05532553a2073746172743d360a41b604082015260600190565b6020808252601490820152735532553a2063616e277420636c61696d206e6f7760601b604082015260600190565b60208082526018908201527f5532553a206475706c69636174656420746f6b656e2049440000000000000000604082015260600190565b60208082526010908201526f154c954e881b9bdd081cdd185c9d195960821b604082015260600190565b60208082526011908201527005532553a207374617274436c61696d3d3607c1b604082015260600190565b6020808252601a908201527f5532553a207374617274436c61696d3c5f726f756e642e656e64000000000000604082015260600190565b60208082526022908201527f5532553a2070726f6a65637420636f6c6c656374696f6e206973204552433131604082015261353560f01b606082015260800190565b6020808252600e908201526d154c954e88195b990f1cdd185c9d60921b604082015260600190565b6020808252601390820152720aa64aa7440c6d8c2d2dacac840cadcdeeaced606b1b604082015260600190565b60208082526021908201527f5532553a2070726f6a65637420636f6c6c656374696f6e2069732045524337326040820152603160f81b606082015260800190565b6020808252601f908201527f5532553a2063616c6c6572206e6f742070726f6a656374206d616e6167657200604082015260600190565b6020808252600e908201526d5532553a206e6f20737570706c7960901b604082015260600190565b6020808252600b908201526a154c954e881b1bd8dad95960aa1b604082015260600190565b6020808252600e908201526d154c954e881b9bdd08195b99195960921b604082015260600190565b60208082526045908201527f5532553a20616d6f756e7420746f207472616e73666572206d7573742062652060408201527f657175616c206f722067726561746572207468616e2077686974656c69737420606082015264707269636560d81b608082015260a00190565b60208082526021908201527f5532553a206f6e6c79206f776e6572206f7220636f6e747261637420726f756e6040820152601960fa1b606082015260800190565b6020808252601a908201527f5532553a2073746172743c726f756e644265666f72652e656e64000000000000604082015260600190565b60208082526019908201527f5532553a20656e643e726f756e6441667465722e737461727400000000000000604082015260600190565b60208082526017908201527f5532553a206172726179206f7574206f6620626f756e64000000000000000000604082015260600190565b60208082526012908201527105532553a20746f6b656e20494473203d20360741b604082015260600190565b6020808252600c908201526b154c954e881cdd185c9d195960a21b604082015260600190565b8151151581526020808301511515908201526040808301511515908201526060808301516001600160a01b0390811691830191909152608092830151169181019190915260a00190565b8151610100820190600381106146f557fe5b808352506020830151602083015260408301516040830152606083015160608301526080830151608083015260a083015160a083015260c083015160c083015260e083015160e083015292915050565b61ffff91909116815260200190565b90815260200190565b60008482528360208301526060604083015261477c6060830184613e71565b95945050505050565b6040518181016001600160401b03811182821017156147a057fe5b604052919050565b60006001600160401b038211156147bb57fe5b5060209081020190565b600081356133a6816148af565b80546001600160a01b0319166001600160a01b0392909216919091179055565b81356147fd816148c4565b815490151560ff1660ff199190911617808255602083013561481e816148c4565b61ff00199190911690151560081b61ff0016178082556040830135614842816148c4565b62ff0000199190911690151560101b62ff00001617815561486e614868606084016147c5565b82614886565b61277c61487d608084016147c5565b600183016147d2565b80546301000000600160b81b03191660189290921b6301000000600160b81b0316919091179055565b6001600160a01b038116811461076f57600080fd5b801515811461076f57600080fdfe4f776e61626c653a206e6577206f776e657220697320746865207a65726f2061646472657373536166654d6174683a206d756c7469706c69636174696f6e206f766572666c6f774f776e61626c653a2063616c6c6572206973206e6f7420746865206f776e6572a264697066735822122001ddf5dfa9350f2bc5f892f4f57db73ee0e20376ff592563aad29889c7c2e99b64736f6c63430007060033",
  "linkReferences": {},
  "deployedLinkReferences": {}
}