{
  "_format": "hh-sol-artifact-1",
  "contractName": "U2UProjectManager",
  "sourceName": "contracts/U2UProjectManager.sol",
  "abi": [
    {
      "anonymous": false,
      "inputs": [
        {
          "indexed": false,
          "internalType": "address",
          "name": "creator",
          "type": "address"
        },
        {
          "indexed": false,
          "internalType": "uint256",
          "name": "projectId",
          "type": "uint256"
        },
        {
          "components": [
            {
              "internalType": "bool",
              "name": "isERC721",
              "type": "bool"
            },
            {
              "internalType": "bool",
              "name": "isU2UCollection",
              "type": "bool"
            },
            {
              "internalType": "bool",
              "name": "isPreminted",
              "type": "bool"
            },
            {
              "internalType": "address",
              "name": "collectionAddress",
              "type": "address"
            },
            {
              "internalType": "address",
              "name": "owner",
              "type": "address"
            }
          ],
          "indexed": false,
          "internalType": "struct LibStructs.Collection",
          "name": "collection",
          "type": "tuple"
        }
      ],
      "name": "CreateProject",
      "type": "event"
    },
    {
      "anonymous": false,
      "inputs": [
        {
          "indexed": true,
          "internalType": "address",
          "name": "previousOwner",
          "type": "address"
        },
        {
          "indexed": true,
          "internalType": "address",
          "name": "newOwner",
          "type": "address"
        }
      ],
      "name": "OwnershipTransferred",
      "type": "event"
    },
    {
      "inputs": [
        {
          "components": [
            {
              "internalType": "enum LibStructs.RoundType",
              "name": "roundType",
              "type": "uint8"
            },
            {
              "internalType": "uint256",
              "name": "price",
              "type": "uint256"
            },
            {
              "internalType": "uint256",
              "name": "start",
              "type": "uint256"
            },
            {
              "internalType": "uint256",
              "name": "end",
              "type": "uint256"
            },
            {
              "internalType": "uint256",
              "name": "startClaim",
              "type": "uint256"
            },
            {
              "internalType": "uint256",
              "name": "maxAmountNFT",
              "type": "uint256"
            },
            {
              "internalType": "uint256",
              "name": "soldAmountNFT",
              "type": "uint256"
            },
            {
              "internalType": "uint256",
              "name": "maxAmountNFTPerWallet",
              "type": "uint256"
            }
          ],
          "internalType": "struct LibStructs.Round[]",
          "name": "rounds",
          "type": "tuple[]"
        },
        {
          "components": [
            {
              "internalType": "bool",
              "name": "isERC721",
              "type": "bool"
            },
            {
              "internalType": "bool",
              "name": "isU2UCollection",
              "type": "bool"
            },
            {
              "internalType": "bool",
              "name": "isPreminted",
              "type": "bool"
            },
            {
              "internalType": "address",
              "name": "collectionAddress",
              "type": "address"
            },
            {
              "internalType": "address",
              "name": "owner",
              "type": "address"
            }
          ],
          "internalType": "struct LibStructs.Collection",
          "name": "collection",
          "type": "tuple"
        },
        {
          "internalType": "address",
          "name": "projectOwner",
          "type": "address"
        }
      ],
      "name": "createProject",
      "outputs": [],
      "stateMutability": "nonpayable",
      "type": "function"
    },
    {
      "inputs": [
        {
          "internalType": "uint256",
          "name": "projectId",
          "type": "uint256"
        }
      ],
      "name": "getProject",
      "outputs": [
        {
          "components": [
            {
              "internalType": "address",
              "name": "projectOwner",
              "type": "address"
            },
            {
              "internalType": "address[]",
              "name": "roundAddresses",
              "type": "address[]"
            },
            {
              "components": [
                {
                  "internalType": "bool",
                  "name": "isERC721",
                  "type": "bool"
                },
                {
                  "internalType": "bool",
                  "name": "isU2UCollection",
                  "type": "bool"
                },
                {
                  "internalType": "bool",
                  "name": "isPreminted",
                  "type": "bool"
                },
                {
                  "internalType": "address",
                  "name": "collectionAddress",
                  "type": "address"
                },
                {
                  "internalType": "address",
                  "name": "owner",
                  "type": "address"
                }
              ],
              "internalType": "struct LibStructs.Collection",
              "name": "collection",
              "type": "tuple"
            }
          ],
          "internalType": "struct LibStructs.Project",
          "name": "",
          "type": "tuple"
        }
      ],
      "stateMutability": "view",
      "type": "function"
    },
    {
      "inputs": [],
      "name": "getProjectCount",
      "outputs": [
        {
          "internalType": "uint256",
          "name": "",
          "type": "uint256"
        }
      ],
      "stateMutability": "view",
      "type": "function"
    },
    {
      "inputs": [],
      "name": "owner",
      "outputs": [
        {
          "internalType": "address",
          "name": "",
          "type": "address"
        }
      ],
      "stateMutability": "view",
      "type": "function"
    },
    {
      "inputs": [],
      "name": "renounceOwnership",
      "outputs": [],
      "stateMutability": "nonpayable",
      "type": "function"
    },
    {
      "inputs": [
        {
          "internalType": "uint256",
          "name": "projectId",
          "type": "uint256"
        },
        {
          "components": [
            {
              "internalType": "bool",
              "name": "isERC721",
              "type": "bool"
            },
            {
              "internalType": "bool",
              "name": "isU2UCollection",
              "type": "bool"
            },
            {
              "internalType": "bool",
              "name": "isPreminted",
              "type": "bool"
            },
            {
              "internalType": "address",
              "name": "collectionAddress",
              "type": "address"
            },
            {
              "internalType": "address",
              "name": "owner",
              "type": "address"
            }
          ],
          "internalType": "struct LibStructs.Collection",
          "name": "newCollection",
          "type": "tuple"
        }
      ],
      "name": "setCollection",
      "outputs": [],
      "stateMutability": "nonpayable",
      "type": "function"
    },
    {
      "inputs": [
        {
          "internalType": "uint256",
          "name": "projectId",
          "type": "uint256"
        },
        {
          "internalType": "address[]",
          "name": "roundAddresses",
          "type": "address[]"
        }
      ],
      "name": "setRoundContracts",
      "outputs": [],
      "stateMutability": "nonpayable",
      "type": "function"
    },
    {
      "inputs": [
        {
          "internalType": "address",
          "name": "newOwner",
          "type": "address"
        }
      ],
      "name": "transferOwnership",
      "outputs": [],
      "stateMutability": "nonpayable",
      "type": "function"
    }
  ],
  "bytecode": "0x608060405234801561001057600080fd5b50600061001b61006a565b600080546001600160a01b0319166001600160a01b0383169081178255604051929350917f8be0079c531659141344cd1fd0a4f28419497f9722a3daafe3b4186f6b6457e0908290a35061006e565b3390565b6114828061007d6000396000f3fe608060405234801561001057600080fd5b50600436106100885760003560e01c8063be4653ea1161005b578063be4653ea146100dd578063c9cf6d2c146100f0578063f0f3f2c814610103578063f2fde38b1461012357610088565b80633bcff3b01461008d578063715018a6146100ab5780637601518a146100b55780638da5cb5b146100c8575b600080fd5b610095610136565b6040516100a291906112ed565b60405180910390f35b6100b3610147565b005b6100b36100c3366004610f4a565b6101f3565b6100d0610498565b6040516100a29190610fea565b6100b36100eb366004610ed1565b6104a7565b6100b36100fe366004610d95565b61055c565b610116610111366004610eb9565b6108bf565b6040516100a29190611240565b6100b3610131366004610d79565b6109ee565b60006101426001610af0565b905090565b61014f610af8565b6001600160a01b0316610160610498565b6001600160a01b0316146101a9576040805162461bcd60e51b8152602060048201819052602482015260008051602061142d833981519152604482015290519081900360640190fd5b600080546040516001600160a01b03909116907f8be0079c531659141344cd1fd0a4f28419497f9722a3daafe3b4186f6b6457e0908390a3600080546001600160a01b0319169055565b6101fb610af8565b6001600160a01b031661020c610498565b6001600160a01b031614610255576040805162461bcd60e51b8152602060048201819052602482015260008051602061142d833981519152604482015290519081900360640190fd5b60008281526002602052604090205482906001600160a01b03166102945760405162461bcd60e51b815260040161028b906110b5565b60405180910390fd5b600083815260026020526040812060010180548592919082906102b357fe5b9060005260206000200160009054906101000a90046001600160a01b031690506000816001600160a01b0316639f8743f76040518163ffffffff1660e01b81526004016101006040518083038186803b15801561030f57600080fd5b505afa158015610323573d6000803e3d6000fd5b505050506040513d601f19601f820116820180604052508101906103479190610e29565b90508060400151421061036c5760405162461bcd60e51b815260040161028b9061102a565b6000868152600260209081526040808320600101805482518185028101850190935280835291929091908301828280156103cf57602002820191906000526020600020905b81546001600160a01b031681526001909101906020018083116103b1575b5050505050905060005b815181101561046e578181815181106103ee57fe5b60200260200101516001600160a01b031663bd331d9c886040518263ffffffff1660e01b81526004016104219190611232565b600060405180830381600087803b15801561043b57600080fd5b505af115801561044f573d6000803e3d6000fd5b50505050610467600182610afc90919063ffffffff16565b90506103d9565b50600087815260026020819052604090912087910161048d8282611323565b505050505050505050565b6000546001600160a01b031690565b6104af610af8565b6001600160a01b03166104c0610498565b6001600160a01b031614610509576040805162461bcd60e51b8152602060048201819052602482015260008051602061142d833981519152604482015290519081900360640190fd5b806001811080159061051c575060068111155b6105385760405162461bcd60e51b815260040161028b90611123565b6000848152600260205260409020610554600182018585610bf4565b505050505050565b610564610af8565b6001600160a01b0316610575610498565b6001600160a01b0316146105be576040805162461bcd60e51b8152602060048201819052602482015260008051602061142d833981519152604482015290519081900360640190fd5b82600181108015906105d1575060068111155b6105ed5760405162461bcd60e51b815260040161028b90611123565b60006105ff6080850160608601610d79565b6001600160a01b031614156106265760405162461bcd60e51b815260040161028b9061107e565b60005b848110156106ca5761067e86868381811061064057fe5b905061010002016040013587878481811061065757fe5b905061010002016060013588888581811061066e57fe5b9050610100020160800135610b5f565b600181018511156106c2576106c286868381811061069857fe5b90506101000201606001358787846001018181106106b257fe5b9050610100020160400135610bc8565b600101610629565b5060008467ffffffffffffffff811180156106e457600080fd5b5060405190808252806020026020018201604052801561070e578160200160208202803683370190505b50905061071b6001610beb565b60006002600061072b6001610af0565b815260208082019290925260400160002080546001600160a01b0319166001600160a01b038716178155835190925061076c91600184019190850190610c57565b50846002820161077c8282611323565b905050806002600061078e6001610af0565b81526020810191909152604001600020815481546001600160a01b0319166001600160a01b03909116178155600180830180546107ce9284019190610cac565b5060028281018054918301805460ff191660ff938416151517808255825461ff0019909116610100918290048516151590910217808255825462ff00001990911662010000918290049094161515029290921780835590546301000000600160b81b03199091166301000000918290046001600160a01b0390811690920217909155600392830154929091018054929091166001600160a01b03199092169190911790557fe865f339e74e80371555f8b7e4256b2400bfb577129fea31862625bf661f2b628461089e6001610af0565b876040516108ae93929190610ffe565b60405180910390a150505050505050565b6108c7610cec565b60008281526002602052604090205482906001600160a01b03166108fd5760405162461bcd60e51b815260040161028b906110b5565b600083815260026020908152604091829020825160608101845281546001600160a01b031681526001820180548551818602810186019096528086529194929385810193929083018282801561097c57602002820191906000526020600020905b81546001600160a01b0316815260019091019060200180831161095e575b50505091835250506040805160a081018252600284015460ff80821615158352610100820481161515602080850191909152620100008304909116151593830193909352630100000090046001600160a01b039081166060830152600390940154909316608084015201529392505050565b6109f6610af8565b6001600160a01b0316610a07610498565b6001600160a01b031614610a50576040805162461bcd60e51b8152602060048201819052602482015260008051602061142d833981519152604482015290519081900360640190fd5b6001600160a01b038116610a955760405162461bcd60e51b81526004018080602001828103825260268152602001806114076026913960400191505060405180910390fd5b600080546040516001600160a01b03808516939216917f8be0079c531659141344cd1fd0a4f28419497f9722a3daafe3b4186f6b6457e091a3600080546001600160a01b0319166001600160a01b0392909216919091179055565b80545b919050565b3390565b600082820183811015610b56576040805162461bcd60e51b815260206004820152601b60248201527f536166654d6174683a206164646974696f6e206f766572666c6f770000000000604482015290519081900360640190fd5b90505b92915050565b82610b7c5760405162461bcd60e51b815260040161028b9061115a565b828211610b9b5760405162461bcd60e51b815260040161028b90611191565b81811180610ba7575080155b610bc35760405162461bcd60e51b815260040161028b906110ec565b505050565b818111610be75760405162461bcd60e51b815260040161028b906111dd565b5050565b80546001019055565b828054828255906000526020600020908101928215610c47579160200282015b82811115610c475781546001600160a01b0319166001600160a01b03843516178255602090920191600190910190610c14565b50610c53929150610d10565b5090565b828054828255906000526020600020908101928215610c47579160200282015b82811115610c4757825182546001600160a01b0319166001600160a01b03909116178255602090920191600190910190610c77565b828054828255906000526020600020908101928215610c475760005260206000209182015b82811115610c47578254825591600101919060010190610cd1565b6040805160608082018352600082526020820152908101610d0b610d25565b905290565b5b80821115610c535760008155600101610d11565b6040805160a08101825260008082526020820181905291810182905260608101829052608081019190915290565b805160038110610af357600080fd5b600060a08284031215610d73578081fd5b50919050565b600060208284031215610d8a578081fd5b8135610b56816113e0565b60008060008060e08587031215610daa578283fd5b843567ffffffffffffffff80821115610dc1578485fd5b818701915087601f830112610dd4578485fd5b813581811115610de2578586fd5b88602061010083028501011115610df7578586fd5b602092830196509450610e0e918891508701610d62565b915060c0850135610e1e816113e0565b939692955090935050565b6000610100808385031215610e3c578182fd5b6040519081019067ffffffffffffffff82118183101715610e5957fe5b81604052610e6684610d53565b81526020840151602082015260408401516040820152606084015160608201526080840151608082015260a084015160a082015260c084015160c082015260e084015160e0820152809250505092915050565b600060208284031215610eca578081fd5b5035919050565b600080600060408486031215610ee5578283fd5b83359250602084013567ffffffffffffffff80821115610f03578384fd5b818601915086601f830112610f16578384fd5b813581811115610f24578485fd5b8760208083028501011115610f37578485fd5b6020830194508093505050509250925092565b60008060c08385031215610f5c578182fd5b82359150610f6d8460208501610d62565b90509250929050565b8035610f81816113f8565b151582526020810135610f93816113f8565b151560208301526040810135610fa8816113f8565b151560408301526060810135610fbd816113e0565b6001600160a01b039081166060840152608082013590610fdc826113e0565b808216608085015250505050565b6001600160a01b0391909116815260200190565b6001600160a01b03841681526020810183905260e081016110226040830184610f76565b949350505050565b60208082526034908201527f5532553a2063616e277420706572666f726d207468697320616374696f6e2061604082015273199d195c881c1c9bda9958dd081cdd185c9d195960621b606082015260800190565b6020808252601f908201527f5532553a20636f6c6c656374696f6e206164647265737320696e76616c696400604082015260600190565b6020808252601b908201527f5532553a2070726f6a65637420646f6573206e6f742065786973740000000000604082015260600190565b6020808252601c908201527f5532553a207374617274436c61696d20213d20302026203c20656e6400000000604082015260600190565b60208082526019908201527f5532553a20696e76616c696420726f756e6420616d6f756e7400000000000000604082015260600190565b6020808252601b908201527f5532553a2073746172742074696d652063616e6e6f7420626520300000000000604082015260600190565b6020808252602c908201527f5532553a20656e642074696d65206d757374206265206869676865722074686160408201526b6e2073746172742074696d6560a01b606082015260800190565b60208082526035908201527f5532553a206c6174657220726f756e64206d7573742073746172742061667465604082015274722070726576696f757320726f756e6420656e647360581b606082015260800190565b60a08101610b598284610f76565b602080825282516001600160a01b03908116838301528382015160e060408501528051610100850181905260009392918301919084906101208701905b8083101561129f5784518416825293850193600192909201919085019061127d565b506040880151935083511515606088015284840151151560808801526040840151151560a08801528260608501511660c08801528260808501511660e0880152809550505050505092915050565b90815260200190565b60008135610b59816113e0565b80546001600160a01b0319166001600160a01b0392909216919091179055565b813561132e816113f8565b815490151560ff1660ff199190911617808255602083013561134f816113f8565b61ff00199190911690151560081b61ff0016178082556040830135611373816113f8565b62ff0000199190911690151560101b62ff00001617815561139f611399606084016112f6565b826113b7565b610be76113ae608084016112f6565b60018301611303565b80546301000000600160b81b03191660189290921b6301000000600160b81b0316919091179055565b6001600160a01b03811681146113f557600080fd5b50565b80151581146113f557600080fdfe4f776e61626c653a206e6577206f776e657220697320746865207a65726f20616464726573734f776e61626c653a2063616c6c6572206973206e6f7420746865206f776e6572a2646970667358221220d50081a53d729f88ce31cacff30f2b5b7701e3c9b0f37d858391593a6c271dac64736f6c63430007060033",
  "linkReferences": {},
  "deployedLinkReferences": {}
}