{
  "_format": "hh-sol-artifact-1",
  "contractName": "U2UDeployerMintRoundFCFS",
  "sourceName": "contracts/deployers/U2UDeployerMintRoundFCFS.sol",
  "abi": [
    {
      "anonymous": false,
      "inputs": [
        {
          "indexed": true,
          "internalType": "address",
          "name": "previousOwner",
          "type": "address"
        },
        {
          "indexed": true,
          "internalType": "address",
          "name": "newOwner",
          "type": "address"
        }
      ],
      "name": "OwnershipTransferred",
      "type": "event"
    },
    {
      "inputs": [
        {
          "internalType": "uint256",
          "name": "projectCount",
          "type": "uint256"
        },
        {
          "components": [
            {
              "internalType": "enum LibStructs.RoundType",
              "name": "roundType",
              "type": "uint8"
            },
            {
              "internalType": "uint256",
              "name": "price",
              "type": "uint256"
            },
            {
              "internalType": "uint256",
              "name": "start",
              "type": "uint256"
            },
            {
              "internalType": "uint256",
              "name": "end",
              "type": "uint256"
            },
            {
              "internalType": "uint256",
              "name": "startClaim",
              "type": "uint256"
            },
            {
              "internalType": "uint256",
              "name": "maxAmountNFT",
              "type": "uint256"
            },
            {
              "internalType": "uint256",
              "name": "soldAmountNFT",
              "type": "uint256"
            },
            {
              "internalType": "uint256",
              "name": "maxAmountNFTPerWallet",
              "type": "uint256"
            }
          ],
          "internalType": "struct LibStructs.Round",
          "name": "round",
          "type": "tuple"
        },
        {
          "components": [
            {
              "internalType": "bool",
              "name": "isERC721",
              "type": "bool"
            },
            {
              "internalType": "bool",
              "name": "isU2UCollection",
              "type": "bool"
            },
            {
              "internalType": "bool",
              "name": "isPreminted",
              "type": "bool"
            },
            {
              "internalType": "address",
              "name": "collectionAddress",
              "type": "address"
            },
            {
              "internalType": "address",
              "name": "owner",
              "type": "address"
            }
          ],
          "internalType": "struct LibStructs.Collection",
          "name": "collection",
          "type": "tuple"
        }
      ],
      "name": "deploy",
      "outputs": [
        {
          "internalType": "address",
          "name": "",
          "type": "address"
        }
      ],
      "stateMutability": "nonpayable",
      "type": "function"
    },
    {
      "inputs": [
        {
          "internalType": "uint256",
          "name": "",
          "type": "uint256"
        }
      ],
      "name": "deployedContracts",
      "outputs": [
        {
          "internalType": "address",
          "name": "",
          "type": "address"
        }
      ],
      "stateMutability": "view",
      "type": "function"
    },
    {
      "inputs": [],
      "name": "deployedContractsLength",
      "outputs": [
        {
          "internalType": "uint256",
          "name": "",
          "type": "uint256"
        }
      ],
      "stateMutability": "view",
      "type": "function"
    },
    {
      "inputs": [],
      "name": "owner",
      "outputs": [
        {
          "internalType": "address",
          "name": "",
          "type": "address"
        }
      ],
      "stateMutability": "view",
      "type": "function"
    },
    {
      "inputs": [],
      "name": "projectManager",
      "outputs": [
        {
          "internalType": "address",
          "name": "",
          "type": "address"
        }
      ],
      "stateMutability": "view",
      "type": "function"
    },
    {
      "inputs": [],
      "name": "renounceOwnership",
      "outputs": [],
      "stateMutability": "nonpayable",
      "type": "function"
    },
    {
      "inputs": [
        {
          "internalType": "address",
          "name": "newOwner",
          "type": "address"
        }
      ],
      "name": "transferOwnership",
      "outputs": [],
      "stateMutability": "nonpayable",
      "type": "function"
    }
  ],
  "bytecode": "0x6080604052600180546001600160a01b03191673ccb0c2790f30ae2e806a49813a2a66037458d31517905534801561003657600080fd5b506000610041610090565b600080546001600160a01b0319166001600160a01b0383169081178255604051929350917f8be0079c531659141344cd1fd0a4f28419497f9722a3daafe3b4186f6b6457e0908290a350610094565b3390565b614b20806100a36000396000f3fe60806040523480156200001157600080fd5b5060043610620000885760003560e01c8063715018a61162000063578063715018a614620000df5780638da5cb5b14620000eb5780639ad1ee1014620000f5578063f2fde38b146200010c5762000088565b8063029eb76e146200008d5780630852aaab14620000af57806327ed1bf314620000c8575b600080fd5b6200009762000123565b604051620000a6919062000634565b60405180910390f35b620000b962000132565b604051620000a6919062000648565b62000097620000d936600462000528565b62000138565b620000e9620002a4565b005b6200009762000367565b62000097620001063660046200050f565b62000376565b620000e96200011d366004620004eb565b620003a1565b6001546001600160a01b031681565b60025490565b600062000144620004bc565b6001600160a01b03166200015762000367565b6001600160a01b031614620001b3576040805162461bcd60e51b815260206004820181905260248201527f4f776e61626c653a2063616c6c6572206973206e6f7420746865206f776e6572604482015290519081900360640190fd5b6000848484604051620001c690620004c0565b620001d49392919062000651565b604051809103906000f080158015620001f1573d6000803e3d6000fd5b50600280546001810182556000919091527f405787fa12a823e0f2b7631cc41b3ba8828b3321ca811111fa75cd3aa3bb5ace0180546001600160a01b0319166001600160a01b03831690811790915560405163f2fde38b60e01b81529192509063f2fde38b906200026790339060040162000634565b600060405180830381600087803b1580156200028257600080fd5b505af115801562000297573d6000803e3d6000fd5b5092979650505050505050565b620002ae620004bc565b6001600160a01b0316620002c162000367565b6001600160a01b0316146200031d576040805162461bcd60e51b815260206004820181905260248201527f4f776e61626c653a2063616c6c6572206973206e6f7420746865206f776e6572604482015290519081900360640190fd5b600080546040516001600160a01b03909116907f8be0079c531659141344cd1fd0a4f28419497f9722a3daafe3b4186f6b6457e0908390a3600080546001600160a01b0319169055565b6000546001600160a01b031690565b600281815481106200038757600080fd5b6000918252602090912001546001600160a01b0316905081565b620003ab620004bc565b6001600160a01b0316620003be62000367565b6001600160a01b0316146200041a576040805162461bcd60e51b815260206004820181905260248201527f4f776e61626c653a2063616c6c6572206973206e6f7420746865206f776e6572604482015290519081900360640190fd5b6001600160a01b038116620004615760405162461bcd60e51b815260040180806020018281038252602681526020018062004ac56026913960400191505060405180910390fd5b600080546040516001600160a01b03808516939216917f8be0079c531659141344cd1fd0a4f28419497f9722a3daafe3b4186f6b6457e091a3600080546001600160a01b0319166001600160a01b0392909216919091179055565b3390565b6143ec80620006d983390190565b80356001600160a01b0381168114620004e657600080fd5b919050565b600060208284031215620004fd578081fd5b6200050882620004ce565b9392505050565b60006020828403121562000521578081fd5b5035919050565b60008060008385036101c08112156200053f578283fd5b84359350610100601f198201121562000556578283fd5b60208501925060a061011f19820112156200056f578182fd5b50610120840190509250925092565b6001600160a01b03169052565b15159052565b600381106200059c57fe5b9052565b8035801515808214620005b257600080fd5b8352506020810135801515808214620005ca57600080fd5b60208401525060408101358015158114620005e457600080fd5b620005f360408401826200058b565b506200060260608201620004ce565b6200061160608401826200057e565b506200062060808201620004ce565b6200062f60808401826200057e565b505050565b6001600160a01b0391909116815260200190565b90815260200190565b8381526101c081018335600381106200066957600080fd5b62000678602084018262000591565b50602084013560408301526040840135606083015260608401356080830152608084013560a083015260a084013560c083015260c084013560e083015260e0840135610100830152620006d0610120830184620005a0565b94935050505056fe60806040526002805460ff19169055600f805473ccb0c2790f30ae2e806a49813a2a66037458d3156001600160a01b0319918216179091556010805473d069121812e49ab933454f2fa1f6fb852bbe67cd92169190911761ffff60a01b1916607d60a21b1790553480156200007357600080fd5b50604051620043ec380380620043ec83398101604081905262000096916200035d565b6000620000a2620001fe565b600080546001600160a01b0319166001600160a01b0383169081178255604051929350917f8be0079c531659141344cd1fd0a4f28419497f9722a3daafe3b4186f6b6457e0908290a350620000fe6301ffc9a760e01b62000202565b6003839055815160078054849290829060ff191660018360028111156200012157fe5b0217905550602082810151600183015560408084015160028401556060808501516003850155608080860151600486015560a086015160058087019190915560c087015160068088019190915560e0909701516007909601959095558651855494880151938801519288015160ff199095169015151761ff001916610100931515939093029290921762ff000019166201000091151591909102176301000000600160b81b03191663010000006001600160a01b03938416021790925592015181546001600160a01b031916921691909117905550620004209050565b3390565b6001600160e01b0319808216141562000262576040805162461bcd60e51b815260206004820152601c60248201527f4552433136353a20696e76616c696420696e7465726661636520696400000000604482015290519081900360640190fd5b6001600160e01b0319166000908152600160208190526040909120805460ff19169091179055565b80516001600160a01b0381168114620002a257600080fd5b919050565b80518015158114620002a257600080fd5b805160038110620002a257600080fd5b600060a08284031215620002da578081fd5b60405160a081016001600160401b0381118282101715620002f757fe5b6040529050806200030883620002a7565b81526200031860208401620002a7565b60208201526200032b60408401620002a7565b60408201526200033e606084016200028a565b606082015262000351608084016200028a565b60808201525092915050565b60008060008385036101c081121562000374578384fd5b8451935061010080601f19830112156200038c578384fd5b60405191508082016001600160401b0381118382101715620003aa57fe5b604052620003bb60208701620002b8565b825260408601516020830152606086015160408301526080860151606083015260a0860151608083015260c086015160a083015260e086015160c08301528086015160e0830152508092505062000417856101208601620002c8565b90509250925092565b613fbc80620004306000396000f3fe60806040526004361061020f5760003560e01c8063a0355eca11610118578063c19eaa22116100a0578063f23a6e611161006f578063f23a6e61146105be578063f2fde38b146105de578063f83d08ba146105fe578063fd2ab80914610613578063ff94e88b146106265761020f565b8063c19eaa221461053e578063d36862e81461055e578063e12f3a611461057e578063e1b0e0f41461059e5761020f565b8063b3f00674116100e7578063b3f00674146104a9578063b5c210ca146104be578063ba3b8dc6146104de578063bc197c81146104fe578063bd331d9c1461051e5761020f565b8063a0355eca14610432578063a4e2d63414610452578063b015811014610467578063b2e3adbb146104945761020f565b806368ec1e7b1161019b5780638da5cb5b1161016a5780638da5cb5b1461039b5780638e005553146103b057806391b7f5ed146103d057806398f0ef9b146103f05780639f8743f7146104105761020f565b806368ec1e7b14610347578063715018a61461034f57806372c3e3d6146103645780637fd6f15c146103795761020f565b8063150b7a02116101e2578063150b7a02146102a55780631e996b85146102d2578063421cc337146102f25780634251921e146103125780635d8da021146103345761020f565b806301ffc9a714610214578063029eb76e1461024a57806303e4ecb81461026c5780631270e10c14610283575b600080fd5b34801561022057600080fd5b5061023461022f36600461304c565b610639565b60405161024191906135a9565b60405180910390f35b34801561025657600080fd5b5061025f61064c565b6040516102419190613412565b34801561027857600080fd5b5061028161065b565b005b34801561028f57600080fd5b5061029861091d565b6040516102419190613d02565b3480156102b157600080fd5b506102c56102c0366004612f38565b61094a565b60405161024191906135b4565b3480156102de57600080fd5b506102816102ed3660046132f2565b61095b565b3480156102fe57600080fd5b5061028161030d3660046132c2565b610a73565b34801561031e57600080fd5b50610327610b39565b6040516102419190613ab1565b6102816103423660046130cd565b610bbd565b610281610ee7565b34801561035b57600080fd5b5061028161121a565b34801561037057600080fd5b506102986112c6565b34801561038557600080fd5b5061038e6112f3565b6040516102419190613cf3565b3480156103a757600080fd5b5061025f611304565b3480156103bc57600080fd5b506102816103cb3660046132a0565b611313565b3480156103dc57600080fd5b506102816103eb3660046132c2565b611397565b3480156103fc57600080fd5b5061028161040b3660046132c2565b61141f565b34801561041c57600080fd5b506104256114a7565b6040516102419190613c91565b34801561043e57600080fd5b5061028161044d3660046132f2565b61154c565b34801561045e57600080fd5b50610234611a4b565b34801561047357600080fd5b50610487610482366004612e62565b611a54565b6040516102419190613567565b3480156104a057600080fd5b50610281611afe565b3480156104b557600080fd5b5061025f611e2c565b3480156104ca57600080fd5b506102346104d9366004612e62565b611e3b565b3480156104ea57600080fd5b506102816104f9366004613021565b611e50565b34801561050a57600080fd5b506102c5610519366004612e7e565b611f47565b34801561052a57600080fd5b50610281610539366004613074565b611f5b565b34801561054a57600080fd5b506102816105593660046132c2565b611fb3565b34801561056a57600080fd5b50610298610579366004612e62565b61203b565b34801561058a57600080fd5b50610298610599366004612e62565b61207d565b3480156105aa57600080fd5b506102986105b9366004612e62565b6120d1565b3480156105ca57600080fd5b506102c56105d9366004612fa8565b612113565b3480156105ea57600080fd5b506102816105f9366004612e62565b612125565b34801561060a57600080fd5b50610281612227565b610281610621366004613096565b612298565b6102816106343660046132c2565b612618565b60006106448261298b565b90505b919050565b600f546001600160a01b031681565b600a5442116106855760405162461bcd60e51b815260040161067c9061398a565b60405180910390fd5b600b544211806106955750600b54155b6106b15760405162461bcd60e51b815260040161067c90613774565b336000908152601460205260409020546106dd5760405162461bcd60e51b815260040161067c90613898565b60055460ff166106ff5760405162461bcd60e51b815260040161067c9061382e565b33600081815260146020908152604080832080548251818502810185019093528083529192909190849084015b828210156107725783829060005260206000209060020201604051806040016040529081600082015481526020016001820154815250508152602001906001019061072c565b5050506001600160a01b038416600090815260146020526040812092935061079b929150612c6b565b60005b81518110156109185781516001600160a01b038416600090815260136020526040902055600554610100900460ff161561086e576000600560000160039054906101000a90046001600160a01b03169050806001600160a01b03166342842e0e308686868151811061080c57fe5b6020026020010151600001516040518463ffffffff1660e01b815260040161083693929190613426565b600060405180830381600087803b15801561085057600080fd5b505af1158015610864573d6000803e3d6000fd5b5050505050610906565b6000600560000160039054906101000a90046001600160a01b03169050806001600160a01b031663293200b430868686815181106108a857fe5b6020026020010151600001516040518463ffffffff1660e01b81526004016108d293929190613426565b600060405180830381600087803b1580156108ec57600080fd5b505af1158015610900573d6000803e3d6000fd5b50505050505b6109118160016129aa565b905061079e565b505050565b60025460009060ff16156109435760405162461bcd60e51b815260040161067c90613965565b5060035490565b630a85bd0160e11b95945050505050565b600f54600354604051631e1e7e5960e31b815233926000926001600160a01b039091169163f0f3f2c89161099191600401613d02565b60006040518083038186803b1580156109a957600080fd5b505afa1580156109bd573d6000803e3d6000fd5b505050506040513d6000823e601f3d908101601f191682016040526109e59190810190613107565b6020015190506000805b8251811015610a3c57836001600160a01b0316838281518110610a0e57fe5b60200260200101516001600160a01b03161415610a2a57600191505b610a358160016129aa565b90506109ef565b5080610a5a5760405162461bcd60e51b815260040161067c90613632565b600c54610a6790866129aa565b600c55505050600e5550565b610a7b612a0d565b6001600160a01b0316610a8c611304565b6001600160a01b031614610ad5576040805162461bcd60e51b81526020600482018190526024820152600080516020613f67833981519152604482015290519081900360640190fd5b6009544210610af65760405162461bcd60e51b815260040161067c90613a8b565b80610b135760405162461bcd60e51b815260040161067c906137cc565b600a548111610b345760405162461bcd60e51b815260040161067c906137f7565b600b55565b610b41612c8c565b60025460ff1615610b645760405162461bcd60e51b815260040161067c90613965565b506040805160a08101825260055460ff8082161515835261010082048116151560208401526201000082041615159282019290925263010000009091046001600160a01b03908116606083015260065416608082015290565b6009544211610bde5760405162461bcd60e51b815260040161067c906137a2565b600a544210610bff5760405162461bcd60e51b815260040161067c906135c9565b600c54600d541080610c115750600c54155b610c2d5760405162461bcd60e51b815260040161067c9061393d565b600e54336000908152601260205260409020541080610c4c5750600e54155b610c685760405162461bcd60e51b815260040161067c90613669565b60025460ff1615610c8b5760405162461bcd60e51b815260040161067c90613965565b60055460ff16610cad5760405162461bcd60e51b815260040161067c906135ed565b600554610100900460ff16610cd45760405162461bcd60e51b815260040161067c906136a0565b60085433903490811015610cfa5760405162461bcd60e51b815260040161067c906139b2565b610d0382612a11565b600d54610d119060016129aa565b600d556001600160a01b038216600090815260126020526040902054610d389060016129aa565b6001600160a01b03808416600090815260126020526040902091909155600554600b54630100000090910490911690610dd057604051631153badb60e11b81526001600160a01b038216906322a775b690610d999087908790600401613bcf565b600060405180830381600087803b158015610db357600080fd5b505af1158015610dc7573d6000803e3d6000fd5b50505050610e31565b604051631153badb60e11b81526001600160a01b038216906322a775b690610dfe9087903090600401613bcf565b600060405180830381600087803b158015610e1857600080fd5b505af1158015610e2c573d6000803e3d6000fd5b505050505b60408051808201825285358152600160208083018281526001600160a01b038816600090815260148352948520805480850182559086529190942083516002909202019081559251920191909155600854610e8d908490612a6a565b6003546005546040517fe01ed4c4f469fbc4b6f97ecaaee0d1ae03e2d87394cf371cc92e0064effdda2c92610ed892889263010000009091046001600160a01b0316908a3590613509565b60405180910390a15050505050565b6009544211610f085760405162461bcd60e51b815260040161067c906137a2565b600a544210610f295760405162461bcd60e51b815260040161067c906135c9565b600c54600d541080610f3b5750600c54155b610f575760405162461bcd60e51b815260040161067c9061393d565b600e54336000908152601260205260409020541080610f765750600e54155b610f925760405162461bcd60e51b815260040161067c90613669565b60025460ff1615610fb55760405162461bcd60e51b815260040161067c90613965565b60055460ff16610fd75760405162461bcd60e51b815260040161067c906135ed565b60085433903490811015610ffd5760405162461bcd60e51b815260040161067c906139b2565b61100682612a11565b600d546110149060016129aa565b600d556001600160a01b03821660009081526012602052604090205461103b9060016129aa565b6001600160a01b03808416600090815260126020526040812092909255600554600b54630100000090910490911691906110f4576040516354ba0f2760e01b81526001600160a01b038316906354ba0f279061109b908790600401613412565b602060405180830381600087803b1580156110b557600080fd5b505af11580156110c9573d6000803e3d6000fd5b505050506040513d601f19601f820116820180604052508101906110ed91906132da565b9050611175565b6040516354ba0f2760e01b81526001600160a01b038316906354ba0f2790611120903090600401613412565b602060405180830381600087803b15801561113a57600080fd5b505af115801561114e573d6000803e3d6000fd5b505050506040513d601f19601f8201168201806040525081019061117291906132da565b90505b604080518082018252828152600160208083018281526001600160a01b0389166000908152601483529485208054808501825590865291909420835160029092020190815592519201919091556008546111d0908590612a6a565b6003546005546040517f6a72c352c64d27d46d3443219106d6aef11c7b87db76c9a0e0848fb236d3f62d92610ed892899263010000009091046001600160a01b0316908790613509565b611222612a0d565b6001600160a01b0316611233611304565b6001600160a01b03161461127c576040805162461bcd60e51b81526020600482018190526024820152600080516020613f67833981519152604482015290519081900360640190fd5b600080546040516001600160a01b03909116907f8be0079c531659141344cd1fd0a4f28419497f9722a3daafe3b4186f6b6457e0908390a3600080546001600160a01b0319169055565b60025460009060ff16156112ec5760405162461bcd60e51b815260040161067c90613965565b5060045490565b601054600160a01b900461ffff1681565b6000546001600160a01b031690565b61131b612a0d565b6001600160a01b031661132c611304565b6001600160a01b031614611375576040805162461bcd60e51b81526020600482018190526024820152600080516020613f67833981519152604482015290519081900360640190fd5b6010805461ffff909216600160a01b0261ffff60a01b19909216919091179055565b61139f612a0d565b6001600160a01b03166113b0611304565b6001600160a01b0316146113f9576040805162461bcd60e51b81526020600482018190526024820152600080516020613f67833981519152604482015290519081900360640190fd5b600954421061141a5760405162461bcd60e51b815260040161067c90613a8b565b600855565b611427612a0d565b6001600160a01b0316611438611304565b6001600160a01b031614611481576040805162461bcd60e51b81526020600482018190526024820152600080516020613f67833981519152604482015290519081900360640190fd5b60095442106114a25760405162461bcd60e51b815260040161067c90613a8b565b600c55565b6114af612cba565b60025460ff16156114d25760405162461bcd60e51b815260040161067c90613965565b60408051610100810190915260078054829060ff1660028111156114f257fe5b60028111156114fd57fe5b8152602001600182015481526020016002820154815260200160038201548152602001600482015481526020016005820154815260200160068201548152602001600782015481525050905090565b611554612a0d565b6001600160a01b0316611565611304565b6001600160a01b0316146115ae576040805162461bcd60e51b81526020600482018190526024820152600080516020613f67833981519152604482015290519081900360640190fd5b60095442106115cf5760405162461bcd60e51b815260040161067c90613a8b565b816115ec5760405162461bcd60e51b815260040161067c9061374e565b81811161160b5760405162461bcd60e51b815260040161067c90613870565b600f54600354604051631e1e7e5960e31b81526000926001600160a01b03169163f0f3f2c89161163e9190600401613d02565b60006040518083038186803b15801561165657600080fd5b505afa15801561166a573d6000803e3d6000fd5b505050506040513d6000823e601f3d908101601f191682016040526116929190810190613107565b602001519050600181511115611a3f5760005b8151811015611a3d57306001600160a01b03168282815181106116c457fe5b60200260200101516001600160a01b03161480156116e0575080155b1561179a5760008282600101815181106116f657fe5b60200260200101516001600160a01b0316639f8743f76040518163ffffffff1660e01b81526004016101006040518083038186803b15801561173757600080fd5b505afa15801561174b573d6000803e3d6000fd5b505050506040513d601f19601f8201168201806040525081019061176f9190613211565b9050806040015184106117945760405162461bcd60e51b815260040161067c90613a54565b50611a35565b306001600160a01b03168282815181106117b057fe5b60200260200101516001600160a01b03161480156117cf575060018110155b80156117de5750815181600101105b156119485760008260018303815181106117f457fe5b60200260200101516001600160a01b0316639f8743f76040518163ffffffff1660e01b81526004016101006040518083038186803b15801561183557600080fd5b505afa158015611849573d6000803e3d6000fd5b505050506040513d601f19601f8201168201806040525081019061186d9190613211565b9050600083836001018151811061188057fe5b60200260200101516001600160a01b0316639f8743f76040518163ffffffff1660e01b81526004016101006040518083038186803b1580156118c157600080fd5b505afa1580156118d5573d6000803e3d6000fd5b505050506040513d601f19601f820116820180604052508101906118f99190613211565b90508160600151861161191e5760405162461bcd60e51b815260040161067c90613a1d565b806040015185106119415760405162461bcd60e51b815260040161067c90613a54565b5050611a35565b306001600160a01b031682828151811061195e57fe5b60200260200101516001600160a01b031614801561197f5750815181600101145b15611a3557600082600183038151811061199557fe5b60200260200101516001600160a01b0316639f8743f76040518163ffffffff1660e01b81526004016101006040518083038186803b1580156119d657600080fd5b505afa1580156119ea573d6000803e3d6000fd5b505050506040513d601f19601f82011682018060405250810190611a0e9190613211565b905080606001518511611a335760405162461bcd60e51b815260040161067c90613a1d565b505b6001016116a5565b505b50600991909155600a55565b60025460ff1681565b60025460609060ff1615611a7a5760405162461bcd60e51b815260040161067c90613965565b6001600160a01b038216600090815260146020908152604080832080548251818502810185019093528083529193909284015b82821015611af357838290600052602060002090600202016040518060400160405290816000820154815260200160018201548152505081526020019060010190611aad565b505050509050919050565b600a544211611b1f5760405162461bcd60e51b815260040161067c9061398a565b600b54421180611b2f5750600b54155b611b4b5760405162461bcd60e51b815260040161067c90613774565b33600090815260146020526040902054611b775760405162461bcd60e51b815260040161067c90613898565b60055460ff1615611b9a5760405162461bcd60e51b815260040161067c906138c5565b33600081815260146020908152604080832080548251818502810185019093528083529192909190849084015b82821015611c0d57838290600052602060002090600202016040518060400160405290816000820154815260200160018201548152505081526020019060010190611bc7565b5050506001600160a01b0384166000908152601460205260408120929350611c36929150612c6b565b60005b815181101561091857611c91828281518110611c5157fe5b60200260200101516020015160136000866001600160a01b03166001600160a01b03168152602001908152602001600020546129aa90919063ffffffff16565b6001600160a01b038416600090815260136020526040902055600554610100900460ff1615611d69576005548251606091630100000090046001600160a01b031690819063f242432a9030908890889088908110611ceb57fe5b602002602001015160000151888881518110611d0357fe5b602002602001015160200151876040518663ffffffff1660e01b8152600401611d30959493929190613473565b600060405180830381600087803b158015611d4a57600080fd5b505af1158015611d5e573d6000803e3d6000fd5b505050505050611e1a565b6000600560000160039054906101000a90046001600160a01b03169050806001600160a01b0316634b04de6b3086868681518110611da357fe5b602002602001015160000151878781518110611dbb57fe5b6020026020010151602001516040518563ffffffff1660e01b8152600401611de6949392919061344a565b600060405180830381600087803b158015611e0057600080fd5b505af1158015611e14573d6000803e3d6000fd5b50505050505b611e258160016129aa565b9050611c39565b6010546001600160a01b031681565b60116020526000908152604090205460ff1681565b611e58612a0d565b6001600160a01b0316611e69611304565b6001600160a01b031614611eb2576040805162461bcd60e51b81526020600482018190526024820152600080516020613f67833981519152604482015290519081900360640190fd5b600a544211611ed35760405162461bcd60e51b815260040161067c9061398a565b600d54600c546001600160a01b03841691631e996b8591611ef391612b4e565b836040518363ffffffff1660e01b8152600401611f11929190613d0b565b600060405180830381600087803b158015611f2b57600080fd5b505af1158015611f3f573d6000803e3d6000fd5b505050505050565b63bc197c8160e01b98975050505050505050565b6009544210611f7c5760405162461bcd60e51b815260040161067c90613a8b565b600f546001600160a01b03163314611fa65760405162461bcd60e51b815260040161067c90613906565b8060056109188282613e3b565b611fbb612a0d565b6001600160a01b0316611fcc611304565b6001600160a01b031614612015576040805162461bcd60e51b81526020600482018190526024820152600080516020613f67833981519152604482015290519081900360640190fd5b60095442106120365760405162461bcd60e51b815260040161067c90613a8b565b600e55565b60025460009060ff16156120615760405162461bcd60e51b815260040161067c90613965565b506001600160a01b031660009081526013602052604090205490565b60025460009060ff16156120a35760405162461bcd60e51b815260040161067c90613965565b6001600160a01b03821660009081526013602090815260408083205460129092529091205461064491612b4e565b60025460009060ff16156120f75760405162461bcd60e51b815260040161067c90613965565b506001600160a01b031660009081526012602052604090205490565b63f23a6e6160e01b9695505050505050565b61212d612a0d565b6001600160a01b031661213e611304565b6001600160a01b031614612187576040805162461bcd60e51b81526020600482018190526024820152600080516020613f67833981519152604482015290519081900360640190fd5b6001600160a01b0381166121cc5760405162461bcd60e51b8152600401808060200182810382526026815260200180613f206026913960400191505060405180910390fd5b600080546040516001600160a01b03808516939216917f8be0079c531659141344cd1fd0a4f28419497f9722a3daafe3b4186f6b6457e091a3600080546001600160a01b0319166001600160a01b0392909216919091179055565b61222f612a0d565b6001600160a01b0316612240611304565b6001600160a01b031614612289576040805162461bcd60e51b81526020600482018190526024820152600080516020613f67833981519152604482015290519081900360640190fd5b6002805460ff19166001179055565b60095442116122b95760405162461bcd60e51b815260040161067c906137a2565b600a5442106122da5760405162461bcd60e51b815260040161067c906135c9565b600c54600d54604083013591906122f190836129aa565b1115806122fe5750600c54155b61231a5760405162461bcd60e51b815260040161067c9061393d565b600e5433600090815260126020526040908190205490840135919061233f90836129aa565b11158061234c5750600e54155b6123685760405162461bcd60e51b815260040161067c90613669565b60025460ff161561238b5760405162461bcd60e51b815260040161067c90613965565b60055460ff16156123ae5760405162461bcd60e51b815260040161067c90613708565b600554610100900460ff166123d55760405162461bcd60e51b815260040161067c906136a0565b600854339034906000906123ee90604088013590612bab565b9050808210156124105760405162461bcd60e51b815260040161067c906139b2565b61241983612a11565b600d5461242a9060408801356129aa565b600d556001600160a01b0383166000908152601260205260409081902054612454918801356129aa565b6001600160a01b03808516600090815260126020526040902091909155600554600b546301000000909104909116906124f15760408051630eaead6760e01b81526001600160a01b03831691630eaead67916124ba918b91899183013590600401613afb565b600060405180830381600087803b1580156124d457600080fd5b505af11580156124e8573d6000803e3d6000fd5b50505050612557565b60408051630eaead6760e01b81526001600160a01b03831691630eaead6791612524918b91309183013590600401613afb565b600060405180830381600087803b15801561253e57600080fd5b505af1158015612552573d6000803e3d6000fd5b505050505b604080518082018252883581528882013560208083019182526001600160a01b03881660009081526014825293842080546001818101835591865291909420835160029092020190815590519201919091556125b38484612a6a565b600354600554604080517f4176a0eed17d645c2414488a594c6163719df60e816525d041251d1e6219a83793612606938a93919263010000009091046001600160a01b0316918e3591908f013590613533565b60405180910390a15050505050505050565b60095442116126395760405162461bcd60e51b815260040161067c906137a2565b600a54421061265a5760405162461bcd60e51b815260040161067c906135c9565b600c54600d5482919061266d90836129aa565b11158061267a5750600c54155b6126965760405162461bcd60e51b815260040161067c9061393d565b600e54336000908152601260205260409020548391906126b690836129aa565b1115806126c35750600e54155b6126df5760405162461bcd60e51b815260040161067c90613669565b60025460ff16156127025760405162461bcd60e51b815260040161067c90613965565b60055460ff16156127255760405162461bcd60e51b815260040161067c90613708565b6008543390349060009061273a908790612bab565b90508082101561275c5760405162461bcd60e51b815260040161067c906139b2565b61276583612a11565b600d5461277290876129aa565b600d556001600160a01b03831660009081526012602052604090205461279890876129aa565b6001600160a01b03808516600090815260126020526040812092909255600554600b546301000000909104909116919061285357604051633c168eab60e01b81526001600160a01b03831690633c168eab906127fa9088908c906004016134f0565b602060405180830381600087803b15801561281457600080fd5b505af1158015612828573d6000803e3d6000fd5b505050506040513d601f19601f8201168201806040525081019061284c91906132da565b90506128d6565b604051633c168eab60e01b81526001600160a01b03831690633c168eab906128819030908c906004016134f0565b602060405180830381600087803b15801561289b57600080fd5b505af11580156128af573d6000803e3d6000fd5b505050506040513d601f19601f820116820180604052508101906128d391906132da565b90505b60408051808201825282815260208082018b81526001600160a01b0389166000908152601483529384208054600181810183559186529290942083516002909302019182555192019190915561292c8585612a6a565b6003546005546040517f1ff3a7716f3fff8145d5b76fc24d79b1471d0f15c15fc3fbb4e894babc110e0192612978928a9263010000009091046001600160a01b03169087908f90613533565b60405180910390a1505050505050505050565b6001600160e01b03191660009081526001602052604090205460ff1690565b600082820183811015612a04576040805162461bcd60e51b815260206004820152601b60248201527f536166654d6174683a206164646974696f6e206f766572666c6f770000000000604482015290519081900360640190fd5b90505b92915050565b3390565b6001600160a01b03811660009081526011602052604090205460ff16612a67576001600160a01b0381166000908152601160205260409020805460ff19166001908117909155600454612a63916129aa565b6004555b50565b601054600090612a949061271090612a8e908590600160a01b900461ffff16612bab565b90612c04565b6010546040519192506001600160a01b03169082156108fc029083906000818181858888f19350505050158015612acf573d6000803e3d6000fd5b506006546001600160a01b03166108fc612ae98484612b4e565b6040518115909202916000818181858888f19350505050158015612b11573d6000803e3d6000fd5b50336108fc612b208585612b4e565b6040518115909202916000818181858888f19350505050158015612b48573d6000803e3d6000fd5b50505050565b600082821115612ba5576040805162461bcd60e51b815260206004820152601e60248201527f536166654d6174683a207375627472616374696f6e206f766572666c6f770000604482015290519081900360640190fd5b50900390565b600082612bba57506000612a07565b82820282848281612bc757fe5b0414612a045760405162461bcd60e51b8152600401808060200182810382526021815260200180613f466021913960400191505060405180910390fd5b6000808211612c5a576040805162461bcd60e51b815260206004820152601a60248201527f536166654d6174683a206469766973696f6e206279207a65726f000000000000604482015290519081900360640190fd5b818381612c6357fe5b049392505050565b5080546000825560020290600052602060002090810190612a679190612d00565b6040805160a08101825260008082526020820181905291810182905260608101829052608081019190915290565b6040805161010081019091528060008152602001600081526020016000815260200160008152602001600081526020016000815260200160008152602001600081525090565b5b80821115612d1b5760008082556001820155600201612d01565b5090565b60008083601f840112612d30578182fd5b5081356001600160401b03811115612d46578182fd5b6020830191508360208083028501011115612d6057600080fd5b9250929050565b60008083601f840112612d78578182fd5b5081356001600160401b03811115612d8e578182fd5b602083019150836020828501011115612d6057600080fd5b80516003811061064757600080fd5b600060a08284031215612dc6578081fd5b50919050565b600060a08284031215612ddd578081fd5b60405160a081018181106001600160401b0382111715612df957fe5b80604052508091508251612e0c81613f11565b81526020830151612e1c81613f11565b60208201526040830151612e2f81613f11565b60408201526060830151612e4281613efc565b60608201526080830151612e5581613efc565b6080919091015292915050565b600060208284031215612e73578081fd5b8135612a0481613efc565b60008060008060008060008060a0898b031215612e99578384fd5b8835612ea481613efc565b97506020890135612eb481613efc565b965060408901356001600160401b0380821115612ecf578586fd5b612edb8c838d01612d1f565b909850965060608b0135915080821115612ef3578586fd5b612eff8c838d01612d1f565b909650945060808b0135915080821115612f17578384fd5b50612f248b828c01612d67565b999c989b5096995094979396929594505050565b600080600080600060808688031215612f4f578081fd5b8535612f5a81613efc565b94506020860135612f6a81613efc565b93506040860135925060608601356001600160401b03811115612f8b578182fd5b612f9788828901612d67565b969995985093965092949392505050565b60008060008060008060a08789031215612fc0578182fd5b8635612fcb81613efc565b95506020870135612fdb81613efc565b9450604087013593506060870135925060808701356001600160401b03811115613003578283fd5b61300f89828a01612d67565b979a9699509497509295939492505050565b60008060408385031215613033578182fd5b823561303e81613efc565b946020939093013593505050565b60006020828403121561305d578081fd5b81356001600160e01b031981168114612a04578182fd5b600060a08284031215613085578081fd5b61308f8383612db5565b9392505050565b6000602082840312156130a7578081fd5b81356001600160401b038111156130bc578182fd5b820160c08185031215612a04578182fd5b6000602082840312156130de578081fd5b81356001600160401b038111156130f3578182fd5b6130ff84828501612db5565b949350505050565b60006020808385031215613119578182fd5b82516001600160401b038082111561312f578384fd5b9084019060e08287031215613142578384fd5b60405160608101818110838211171561315757fe5b604052825161316581613efc565b81528284015182811115613177578586fd5b8301601f81018813613187578586fd5b80518381111561319357fe5b85810293506131a3868501613d19565b8181528681019083880186850189018c10156131bd57898afd5b8996505b838710156131eb57805194506131d685613efc565b848352600196909601959188019188016131c1565b508088860152505050506132028760408501612dcc565b60408201529695505050505050565b6000610100808385031215613224578182fd5b604051908101906001600160401b038211818310171561324057fe5b8160405261324d84612da6565b81526020840151602082015260408401516040820152606084015160608201526080840151608082015260a084015160a082015260c084015160c082015260e084015160e0820152809250505092915050565b6000602082840312156132b1578081fd5b813561ffff81168114612a04578182fd5b6000602082840312156132d3578081fd5b5035919050565b6000602082840312156132eb578081fd5b5051919050565b60008060408385031215613304578182fd5b50508035926020909101359150565b6001600160a01b03169052565b818352602080840193600091908185020181018584845b8781101561336d57828403895261334e8288613dca565b6133598682846133e8565b9a87019a9550505090840190600101613337565b5091979650505050505050565b60008284526020808501945082825b858110156133dd57813561339c81613efc565b6001600160a01b03168752818301356bffffffffffffffffffffffff81168082146133c5578586fd5b88850152506040968701969190910190600101613389565b509495945050505050565b60008284528282602086013780602084860101526020601f19601f85011685010190509392505050565b6001600160a01b0391909116815260200190565b6001600160a01b039384168152919092166020820152604081019190915260600190565b6001600160a01b0394851681529290931660208301526040820152606081019190915260800190565b600060018060a01b03808816835260208188168185015286604085015285606085015260a06080850152845191508160a0850152825b828110156134c55785810182015185820160c0015281016134a9565b828111156134d6578360c084870101525b5050601f01601f19169190910160c0019695505050505050565b6001600160a01b03929092168252602082015260400190565b6001600160a01b039485168152602081019390935292166040820152606081019190915260800190565b6001600160a01b03958616815260208101949094529190931660408301526060820192909252608081019190915260a00190565b602080825282518282018190526000919060409081850190868401855b8281101561336d57815180518552860151868501529284019290850190600101613584565b901515815260200190565b6001600160e01b031991909116815260200190565b6020808252600a9082015269154c954e88195b99195960b21b604082015260600190565b60208082526025908201527f5532553a2070726f6a65637420636f6c6c656374696f6e206973206e6f742045604082015264524337323160d81b606082015260800190565b6020808252601e908201527f5532553a2063616c6c6572206e6f7420636f6e747261637420726f756e640000604082015260600190565b60208082526018908201527f5532553a20796f757220616d6f756e7420726561636865640000000000000000604082015260600190565b60208082526042908201527f5532553a20746869732066756e6374696f6e206f6e6c7920776f726b7320776960408201527f7468204e46547320637265617465642066726f6d2055325520636f6e74726163606082015261747360f01b608082015260a00190565b60208082526026908201527f5532553a2070726f6a65637420636f6c6c656374696f6e206973206e6f74204560408201526552433131353560d01b606082015260800190565b6020808252600c908201526b05532553a2073746172743d360a41b604082015260600190565b6020808252601490820152735532553a2063616e277420636c61696d206e6f7760601b604082015260600190565b60208082526010908201526f154c954e881b9bdd081cdd185c9d195960821b604082015260600190565b60208082526011908201527005532553a207374617274436c61696d3d3607c1b604082015260600190565b6020808252601a908201527f5532553a207374617274436c61696d3c5f726f756e642e656e64000000000000604082015260600190565b60208082526022908201527f5532553a2070726f6a65637420636f6c6c656374696f6e206973204552433131604082015261353560f01b606082015260800190565b6020808252600e908201526d154c954e88195b990f1cdd185c9d60921b604082015260600190565b6020808252601390820152720aa64aa7440c6d8c2d2dacac840cadcdeeaced606b1b604082015260600190565b60208082526021908201527f5532553a2070726f6a65637420636f6c6c656374696f6e2069732045524337326040820152603160f81b606082015260800190565b6020808252601f908201527f5532553a2063616c6c6572206e6f742070726f6a656374206d616e6167657200604082015260600190565b6020808252600e908201526d5532553a206e6f20737570706c7960901b604082015260600190565b6020808252600b908201526a154c954e881b1bd8dad95960aa1b604082015260600190565b6020808252600e908201526d154c954e881b9bdd08195b99195960921b604082015260600190565b60208082526045908201527f5532553a20616d6f756e7420746f207472616e73666572206d7573742062652060408201527f657175616c206f722067726561746572207468616e2077686974656c69737420606082015264707269636560d81b608082015260a00190565b6020808252601a908201527f5532553a2073746172743c726f756e644265666f72652e656e64000000000000604082015260600190565b60208082526019908201527f5532553a20656e643e726f756e6441667465722e737461727400000000000000604082015260600190565b6020808252600c908201526b154c954e881cdd185c9d195960a21b604082015260600190565b8151151581526020808301511515908201526040808301511515908201526060808301516001600160a01b0390811691830191909152608092830151169181019190915260a00190565b60006060825284356060830152613b156020860186613dca565b60c06080850152613b2b610120850182846133e8565b915050604086013560a0840152613b456060870187613d83565b605f19808685030160c0870152613b5d84838561337a565b9350613b6c60808a018a613d83565b93509150808685030160e0870152613b8584848461337a565b9350613b9460a08a018a613d3c565b93509150808685030161010087015250613baf838383613320565b9350505050613bc16020830185613313565b826040830152949350505050565b60006040825283356040830152613be96020850185613dca565b60a06060850152613bfe60e0850182846133e8565b915050613c0e6040860186613d83565b603f1980868503016080870152613c2684838561337a565b9350613c356060890189613d83565b93509150808685030160a0870152613c4e84848461337a565b9350613c5d6080890189613d3c565b93509150808685030160c087015250613c77838383613320565b935050505060018060a01b03831660208301529392505050565b815161010082019060038110613ca357fe5b808352506020830151602083015260408301516040830152606083015160608301526080830151608083015260a083015160a083015260c083015160c083015260e083015160e083015292915050565b61ffff91909116815260200190565b90815260200190565b918252602082015260400190565b6040518181016001600160401b0381118282101715613d3457fe5b604052919050565b6000808335601e19843603018112613d52578283fd5b83016020810192503590506001600160401b03811115613d7157600080fd5b602081023603831315612d6057600080fd5b6000808335601e19843603018112613d99578283fd5b83016020810192503590506001600160401b03811115613db857600080fd5b604081023603831315612d6057600080fd5b6000808335601e19843603018112613de0578283fd5b83016020810192503590506001600160401b03811115613dff57600080fd5b803603831315612d6057600080fd5b60008135612a0781613efc565b80546001600160a01b0319166001600160a01b0392909216919091179055565b8135613e4681613f11565b815490151560ff1660ff1991909116178082556020830135613e6781613f11565b61ff00199190911690151560081b61ff0016178082556040830135613e8b81613f11565b62ff0000199190911690151560101b62ff000016178155613eb7613eb160608401613e0e565b82613ed3565b613ecf613ec660808401613e0e565b60018301613e1b565b5050565b80546301000000600160b81b03191660189290921b6301000000600160b81b0316919091179055565b6001600160a01b0381168114612a6757600080fd5b8015158114612a6757600080fdfe4f776e61626c653a206e6577206f776e657220697320746865207a65726f2061646472657373536166654d6174683a206d756c7469706c69636174696f6e206f766572666c6f774f776e61626c653a2063616c6c6572206973206e6f7420746865206f776e6572a2646970667358221220709c82d921e67734ca2ca03303892491b2ee39f2523fbf7f07dbba12f58069c064736f6c634300070600334f776e61626c653a206e6577206f776e657220697320746865207a65726f2061646472657373a2646970667358221220e26eda5bf78b94e16897d6dd70b5f0deab17b9c2d27e4f172b91a6f4405c648d64736f6c63430007060033",
  "linkReferences": {},
  "deployedLinkReferences": {}
}