{
  "_format": "hh-sol-artifact-1",
  "contractName": "NFT",
  "sourceName": "contracts/NFT.sol",
  "abi": [
    {
      "inputs": [],
      "stateMutability": "nonpayable",
      "type": "constructor"
    },
    {
      "anonymous": false,
      "inputs": [
        {
          "indexed": true,
          "internalType": "address",
          "name": "owner",
          "type": "address"
        },
        {
          "indexed": true,
          "internalType": "address",
          "name": "approved",
          "type": "address"
        },
        {
          "indexed": true,
          "internalType": "uint256",
          "name": "tokenId",
          "type": "uint256"
        }
      ],
      "name": "Approval",
      "type": "event"
    },
    {
      "anonymous": false,
      "inputs": [
        {
          "indexed": true,
          "internalType": "address",
          "name": "owner",
          "type": "address"
        },
        {
          "indexed": true,
          "internalType": "address",
          "name": "operator",
          "type": "address"
        },
        {
          "indexed": false,
          "internalType": "bool",
          "name": "approved",
          "type": "bool"
        }
      ],
      "name": "ApprovalForAll",
      "type": "event"
    },
    {
      "anonymous": false,
      "inputs": [
        {
          "indexed": true,
          "internalType": "address",
          "name": "from",
          "type": "address"
        },
        {
          "indexed": true,
          "internalType": "address",
          "name": "to",
          "type": "address"
        },
        {
          "indexed": true,
          "internalType": "uint256",
          "name": "tokenId",
          "type": "uint256"
        }
      ],
      "name": "Transfer",
      "type": "event"
    },
    {
      "inputs": [
        {
          "internalType": "address",
          "name": "to",
          "type": "address"
        },
        {
          "internalType": "uint256",
          "name": "tokenId",
          "type": "uint256"
        }
      ],
      "name": "approve",
      "outputs": [],
      "stateMutability": "nonpayable",
      "type": "function"
    },
    {
      "inputs": [
        {
          "internalType": "address",
          "name": "owner",
          "type": "address"
        }
      ],
      "name": "balanceOf",
      "outputs": [
        {
          "internalType": "uint256",
          "name": "",
          "type": "uint256"
        }
      ],
      "stateMutability": "view",
      "type": "function"
    },
    {
      "inputs": [],
      "name": "baseURI",
      "outputs": [
        {
          "internalType": "string",
          "name": "",
          "type": "string"
        }
      ],
      "stateMutability": "view",
      "type": "function"
    },
    {
      "inputs": [
        {
          "internalType": "uint256",
          "name": "tokenId",
          "type": "uint256"
        }
      ],
      "name": "getApproved",
      "outputs": [
        {
          "internalType": "address",
          "name": "",
          "type": "address"
        }
      ],
      "stateMutability": "view",
      "type": "function"
    },
    {
      "inputs": [
        {
          "internalType": "address",
          "name": "owner",
          "type": "address"
        },
        {
          "internalType": "address",
          "name": "operator",
          "type": "address"
        }
      ],
      "name": "isApprovedForAll",
      "outputs": [
        {
          "internalType": "bool",
          "name": "",
          "type": "bool"
        }
      ],
      "stateMutability": "view",
      "type": "function"
    },
    {
      "inputs": [
        {
          "internalType": "address",
          "name": "to",
          "type": "address"
        },
        {
          "internalType": "uint256",
          "name": "amount",
          "type": "uint256"
        }
      ],
      "name": "mintBatchNFT",
      "outputs": [
        {
          "internalType": "uint256[]",
          "name": "",
          "type": "uint256[]"
        }
      ],
      "stateMutability": "nonpayable",
      "type": "function"
    },
    {
      "inputs": [
        {
          "internalType": "address",
          "name": "to",
          "type": "address"
        }
      ],
      "name": "mintNFT",
      "outputs": [
        {
          "internalType": "uint256",
          "name": "",
          "type": "uint256"
        }
      ],
      "stateMutability": "nonpayable",
      "type": "function"
    },
    {
      "inputs": [],
      "name": "name",
      "outputs": [
        {
          "internalType": "string",
          "name": "",
          "type": "string"
        }
      ],
      "stateMutability": "view",
      "type": "function"
    },
    {
      "inputs": [
        {
          "internalType": "uint256",
          "name": "tokenId",
          "type": "uint256"
        }
      ],
      "name": "ownerOf",
      "outputs": [
        {
          "internalType": "address",
          "name": "",
          "type": "address"
        }
      ],
      "stateMutability": "view",
      "type": "function"
    },
    {
      "inputs": [
        {
          "internalType": "address",
          "name": "from",
          "type": "address"
        },
        {
          "internalType": "address",
          "name": "to",
          "type": "address"
        },
        {
          "internalType": "uint256",
          "name": "tokenId",
          "type": "uint256"
        }
      ],
      "name": "safeTransferFrom",
      "outputs": [],
      "stateMutability": "nonpayable",
      "type": "function"
    },
    {
      "inputs": [
        {
          "internalType": "address",
          "name": "from",
          "type": "address"
        },
        {
          "internalType": "address",
          "name": "to",
          "type": "address"
        },
        {
          "internalType": "uint256",
          "name": "tokenId",
          "type": "uint256"
        },
        {
          "internalType": "bytes",
          "name": "_data",
          "type": "bytes"
        }
      ],
      "name": "safeTransferFrom",
      "outputs": [],
      "stateMutability": "nonpayable",
      "type": "function"
    },
    {
      "inputs": [
        {
          "internalType": "address",
          "name": "from",
          "type": "address"
        },
        {
          "internalType": "address",
          "name": "to",
          "type": "address"
        },
        {
          "internalType": "uint256",
          "name": "tokenId",
          "type": "uint256"
        }
      ],
      "name": "safeTransferNFTFrom",
      "outputs": [],
      "stateMutability": "nonpayable",
      "type": "function"
    },
    {
      "inputs": [
        {
          "internalType": "address",
          "name": "operator",
          "type": "address"
        },
        {
          "internalType": "bool",
          "name": "approved",
          "type": "bool"
        }
      ],
      "name": "setApprovalForAll",
      "outputs": [],
      "stateMutability": "nonpayable",
      "type": "function"
    },
    {
      "inputs": [
        {
          "internalType": "bytes4",
          "name": "interfaceId",
          "type": "bytes4"
        }
      ],
      "name": "supportsInterface",
      "outputs": [
        {
          "internalType": "bool",
          "name": "",
          "type": "bool"
        }
      ],
      "stateMutability": "view",
      "type": "function"
    },
    {
      "inputs": [],
      "name": "symbol",
      "outputs": [
        {
          "internalType": "string",
          "name": "",
          "type": "string"
        }
      ],
      "stateMutability": "view",
      "type": "function"
    },
    {
      "inputs": [
        {
          "internalType": "uint256",
          "name": "index",
          "type": "uint256"
        }
      ],
      "name": "tokenByIndex",
      "outputs": [
        {
          "internalType": "uint256",
          "name": "",
          "type": "uint256"
        }
      ],
      "stateMutability": "view",
      "type": "function"
    },
    {
      "inputs": [
        {
          "internalType": "address",
          "name": "owner",
          "type": "address"
        },
        {
          "internalType": "uint256",
          "name": "index",
          "type": "uint256"
        }
      ],
      "name": "tokenOfOwnerByIndex",
      "outputs": [
        {
          "internalType": "uint256",
          "name": "",
          "type": "uint256"
        }
      ],
      "stateMutability": "view",
      "type": "function"
    },
    {
      "inputs": [
        {
          "internalType": "uint256",
          "name": "tokenId",
          "type": "uint256"
        }
      ],
      "name": "tokenURI",
      "outputs": [
        {
          "internalType": "string",
          "name": "",
          "type": "string"
        }
      ],
      "stateMutability": "view",
      "type": "function"
    },
    {
      "inputs": [],
      "name": "totalSupply",
      "outputs": [
        {
          "internalType": "uint256",
          "name": "",
          "type": "uint256"
        }
      ],
      "stateMutability": "view",
      "type": "function"
    },
    {
      "inputs": [
        {
          "internalType": "address",
          "name": "from",
          "type": "address"
        },
        {
          "internalType": "address",
          "name": "to",
          "type": "address"
        },
        {
          "internalType": "uint256",
          "name": "tokenId",
          "type": "uint256"
        }
      ],
      "name": "transferFrom",
      "outputs": [],
      "stateMutability": "nonpayable",
      "type": "function"
    }
  ],
  "bytecode": "0x60806040523480156200001157600080fd5b5060408051808201825260048152634e46543160e01b602080830191909152825180840190935260078352664e465453594d3160c81b90830152906200005e6301ffc9a760e01b620000c8565b8151620000739060069060208501906200014d565b508051620000899060079060208401906200014d565b506200009c6380ac58cd60e01b620000c8565b620000ae635b5e139f60e01b620000c8565b620000c063780e9d6360e01b620000c8565b5050620001f9565b6001600160e01b0319808216141562000128576040805162461bcd60e51b815260206004820152601c60248201527f4552433136353a20696e76616c696420696e7465726661636520696400000000604482015290519081900360640190fd5b6001600160e01b0319166000908152602081905260409020805460ff19166001179055565b828054600181600116156101000203166002900490600052602060002090601f016020900481019282620001855760008555620001d0565b82601f10620001a057805160ff1916838001178555620001d0565b82800160010185558215620001d0579182015b82811115620001d0578251825591602001919060010190620001b3565b50620001de929150620001e2565b5090565b5b80821115620001de5760008155600101620001e3565b611d0380620002096000396000f3fe608060405234801561001057600080fd5b506004361061012c5760003560e01c806354ba0f27116100ad578063a22cb46511610071578063a22cb465146103ce578063b88d4fde146103fc578063c87b56dd146104c2578063e985e9c5146104df578063fa01c7571461050d5761012c565b806354ba0f27146103555780636352211e1461037b5780636c0360eb1461039857806370a08231146103a057806395d89b41146103c65761012c565b806323b872dd116100f457806323b872dd1461026a578063293200b4146102a05780632f745c59146102d657806342842e0e146103025780634f6ccce7146103385761012c565b806301ffc9a71461013157806306fdde031461016c578063081812fc146101e9578063095ea7b31461022257806318160ddd14610250575b600080fd5b6101586004803603602081101561014757600080fd5b50356001600160e01b031916610589565b604080519115158252519081900360200190f35b6101746105ac565b6040805160208082528351818301528351919283929083019185019080838360005b838110156101ae578181015183820152602001610196565b50505050905090810190601f1680156101db5780820380516001836020036101000a031916815260200191505b509250505060405180910390f35b610206600480360360208110156101ff57600080fd5b5035610642565b604080516001600160a01b039092168252519081900360200190f35b61024e6004803603604081101561023857600080fd5b506001600160a01b0381351690602001356106a4565b005b61025861077f565b60408051918252519081900360200190f35b61024e6004803603606081101561028057600080fd5b506001600160a01b03813581169160208101359091169060400135610790565b61024e600480360360608110156102b657600080fd5b506001600160a01b038135811691602081013590911690604001356107e7565b610258600480360360408110156102ec57600080fd5b506001600160a01b0381351690602001356107f2565b61024e6004803603606081101561031857600080fd5b506001600160a01b0381358116916020810135909116906040013561081d565b6102586004803603602081101561034e57600080fd5b5035610838565b6102586004803603602081101561036b57600080fd5b50356001600160a01b031661084e565b6102066004803603602081101561039157600080fd5b5035610877565b61017461089f565b610258600480360360208110156103b657600080fd5b50356001600160a01b0316610900565b61017461090b565b61024e600480360360408110156103e457600080fd5b506001600160a01b038135169060200135151561096c565b61024e6004803603608081101561041257600080fd5b6001600160a01b0382358116926020810135909116916040820135919081019060808101606082013564010000000081111561044d57600080fd5b82018360208201111561045f57600080fd5b8035906020019184600183028401116401000000008311171561048157600080fd5b91908080601f016020809104026020016040519081016040528093929190818152602001838380828437600092019190915250929550610a71945050505050565b610174600480360360208110156104d857600080fd5b5035610acf565b610158600480360360408110156104f557600080fd5b506001600160a01b0381358116916020013516610d50565b6105396004803603604081101561052357600080fd5b506001600160a01b038135169060200135610d7e565b60408051602080825283518183015283519192839290830191858101910280838360005b8381101561057557818101518382015260200161055d565b505050509050019250505060405180910390f35b6001600160e01b0319811660009081526020819052604090205460ff165b919050565b60068054604080516020601f60026000196101006001881615020190951694909404938401819004810282018101909252828152606093909290918301828280156106385780601f1061060d57610100808354040283529160200191610638565b820191906000526020600020905b81548152906001019060200180831161061b57829003601f168201915b5050505050905090565b600061064d82610e12565b6106885760405162461bcd60e51b815260040180806020018281038252602c815260200180611bf8602c913960400191505060405180910390fd5b506000908152600460205260409020546001600160a01b031690565b60006106af82610877565b9050806001600160a01b0316836001600160a01b031614156107025760405162461bcd60e51b8152600401808060200182810382526021815260200180611c7c6021913960400191505060405180910390fd5b806001600160a01b0316610714610e1f565b6001600160a01b03161480610735575061073581610730610e1f565b610d50565b6107705760405162461bcd60e51b8152600401808060200182810382526038815260200180611b4b6038913960400191505060405180910390fd5b61077a8383610e23565b505050565b600061078b6002610e91565b905090565b6107a161079b610e1f565b82610e9c565b6107dc5760405162461bcd60e51b8152600401808060200182810382526031815260200180611c9d6031913960400191505060405180910390fd5b61077a838383610f40565b61077a83838361081d565b6001600160a01b0382166000908152600160205260408120610814908361108c565b90505b92915050565b61077a83838360405180602001604052806000815250610a71565b600080610846600284611098565b509392505050565b600061085a600a6110b4565b61086d82610868600a6110bd565b6110c1565b610817600a6110bd565b600061081782604051806060016040528060298152602001611bad60299139600291906110df565b60098054604080516020601f60026000196101006001881615020190951694909404938401819004810282018101909252828152606093909290918301828280156106385780601f1061060d57610100808354040283529160200191610638565b6000610817826110f6565b60078054604080516020601f60026000196101006001881615020190951694909404938401819004810282018101909252828152606093909290918301828280156106385780601f1061060d57610100808354040283529160200191610638565b610974610e1f565b6001600160a01b0316826001600160a01b031614156109da576040805162461bcd60e51b815260206004820152601960248201527f4552433732313a20617070726f766520746f2063616c6c657200000000000000604482015290519081900360640190fd5b80600560006109e7610e1f565b6001600160a01b03908116825260208083019390935260409182016000908120918716808252919093529120805460ff191692151592909217909155610a2b610e1f565b6001600160a01b03167f17307eab39ab6107e8899845ad3d59bd9653f200f220920489ca2b5937696c318360405180821515815260200191505060405180910390a35050565b610a82610a7c610e1f565b83610e9c565b610abd5760405162461bcd60e51b8152600401808060200182810382526031815260200180611c9d6031913960400191505060405180910390fd5b610ac98484848461115e565b50505050565b6060610ada82610e12565b610b155760405162461bcd60e51b815260040180806020018281038252602f815260200180611c4d602f913960400191505060405180910390fd5b60008281526008602090815260408083208054825160026001831615610100026000190190921691909104601f810185900485028201850190935282815292909190830182828015610ba85780601f10610b7d57610100808354040283529160200191610ba8565b820191906000526020600020905b815481529060010190602001808311610b8b57829003601f168201915b505050505090506000610bb961089f565b9050805160001415610bcd575090506105a7565b815115610c8e5780826040516020018083805190602001908083835b60208310610c085780518252601f199092019160209182019101610be9565b51815160209384036101000a600019018019909216911617905285519190930192850191508083835b60208310610c505780518252601f199092019160209182019101610c31565b6001836020036101000a03801982511681845116808217855250505050505090500192505050604051602081830303815290604052925050506105a7565b80610c98856111b0565b6040516020018083805190602001908083835b60208310610cca5780518252601f199092019160209182019101610cab565b51815160209384036101000a600019018019909216911617905285519190930192850191508083835b60208310610d125780518252601f199092019160209182019101610cf3565b6001836020036101000a0380198251168184511680821785525050505050509050019250505060405160208183030381529060405292505050919050565b6001600160a01b03918216600090815260056020908152604080832093909416825291909152205460ff1690565b606060008267ffffffffffffffff81118015610d9957600080fd5b50604051908082528060200260200182016040528015610dc3578160200160208202803683370190505b50905060005b8381101561084657610ddb600a6110b4565b610de985610868600a6110bd565b610df3600a6110bd565b828281518110610dff57fe5b6020908102919091010152600101610dc9565b600061081760028361128b565b3390565b600081815260046020526040902080546001600160a01b0319166001600160a01b0384169081179091558190610e5882610877565b6001600160a01b03167f8c5be1e5ebec7d5bd14f71427d1e84f3dd0314c0f7b2291e5b200ac8c7c3b92560405160405180910390a45050565b6000610817826110bd565b6000610ea782610e12565b610ee25760405162461bcd60e51b815260040180806020018281038252602c815260200180611b1f602c913960400191505060405180910390fd5b6000610eed83610877565b9050806001600160a01b0316846001600160a01b03161480610f285750836001600160a01b0316610f1d84610642565b6001600160a01b0316145b80610f385750610f388185610d50565b949350505050565b826001600160a01b0316610f5382610877565b6001600160a01b031614610f985760405162461bcd60e51b8152600401808060200182810382526029815260200180611c246029913960400191505060405180910390fd5b6001600160a01b038216610fdd5760405162461bcd60e51b8152600401808060200182810382526024815260200180611afb6024913960400191505060405180910390fd5b610fe883838361077a565b610ff3600082610e23565b6001600160a01b03831660009081526001602052604090206110159082611297565b506001600160a01b038216600090815260016020526040902061103890826112a3565b50611045600282846112af565b5080826001600160a01b0316846001600160a01b03167fddf252ad1be2c89b69c2b068fc378daa952ba7f163c4a11628f55a4df523b3ef60405160405180910390a4505050565b600061081483836112c5565b60008080806110a78686611329565b9097909650945050505050565b80546001019055565b5490565b6110db8282604051806020016040528060008152506113a4565b5050565b60006110ec8484846113f6565b90505b9392505050565b60006001600160a01b03821661113d5760405162461bcd60e51b815260040180806020018281038252602a815260200180611b83602a913960400191505060405180910390fd5b6001600160a01b038216600090815260016020526040902061081790610e91565b611169848484610f40565b611175848484846114c0565b610ac95760405162461bcd60e51b8152600401808060200182810382526032815260200180611ac96032913960400191505060405180910390fd5b6060816111d557506040805180820190915260018152600360fc1b60208201526105a7565b8160005b81156111ed57600101600a820491506111d9565b60008167ffffffffffffffff8111801561120657600080fd5b506040519080825280601f01601f191660200182016040528015611231576020820181803683370190505b50859350905060001982015b831561128257600a840660300160f81b8282806001900393508151811061126057fe5b60200101906001600160f81b031916908160001a905350600a8404935061123d565b50949350505050565b60006108148383611628565b60006108148383611640565b60006108148383611706565b60006110ec84846001600160a01b038516611750565b815460009082106113075760405162461bcd60e51b8152600401808060200182810382526022815260200180611aa76022913960400191505060405180910390fd5b82600001828154811061131657fe5b9060005260206000200154905092915050565b81546000908190831061136d5760405162461bcd60e51b8152600401808060200182810382526022815260200180611bd66022913960400191505060405180910390fd5b600084600001848154811061137e57fe5b906000526020600020906002020190508060000154816001015492509250509250929050565b6113ae83836117e7565b6113bb60008484846114c0565b61077a5760405162461bcd60e51b8152600401808060200182810382526032815260200180611ac96032913960400191505060405180910390fd5b600082815260018401602052604081205482816114915760405162461bcd60e51b81526004018080602001828103825283818151815260200191508051906020019080838360005b8381101561145657818101518382015260200161143e565b50505050905090810190601f1680156114835780820380516001836020036101000a031916815260200191505b509250505060405180910390fd5b508460000160018203815481106114a457fe5b9060005260206000209060020201600101549150509392505050565b60006114d4846001600160a01b0316611915565b6114e057506001610f38565b60006115ee630a85bd0160e11b6114f5610e1f565b88878760405160240180856001600160a01b03168152602001846001600160a01b0316815260200183815260200180602001828103825283818151815260200191508051906020019080838360005b8381101561155c578181015183820152602001611544565b50505050905090810190601f1680156115895780820380516001836020036101000a031916815260200191505b5095505050505050604051602081830303815290604052906001600160e01b0319166020820180516001600160e01b038381831617835250505050604051806060016040528060328152602001611ac9603291396001600160a01b038816919061191b565b9050600081806020019051602081101561160757600080fd5b50516001600160e01b031916630a85bd0160e11b1492505050949350505050565b60009081526001919091016020526040902054151590565b600081815260018301602052604081205480156116fc578354600019808301919081019060009087908390811061167357fe5b906000526020600020015490508087600001848154811061169057fe5b6000918252602080832090910192909255828152600189810190925260409020908401905586548790806116c057fe5b60019003818190600052602060002001600090559055866001016000878152602001908152602001600020600090556001945050505050610817565b6000915050610817565b60006117128383611628565b61174857508154600181810184556000848152602080822090930184905584548482528286019093526040902091909155610817565b506000610817565b6000828152600184016020526040812054806117b55750506040805180820182528381526020808201848152865460018181018955600089815284812095516002909302909501918255915190820155865486845281880190925292909120556110ef565b828560000160018303815481106117c857fe5b90600052602060002090600202016001018190555060009150506110ef565b6001600160a01b038216611842576040805162461bcd60e51b815260206004820181905260248201527f4552433732313a206d696e7420746f20746865207a65726f2061646472657373604482015290519081900360640190fd5b61184b81610e12565b1561189d576040805162461bcd60e51b815260206004820152601c60248201527f4552433732313a20746f6b656e20616c7265616479206d696e74656400000000604482015290519081900360640190fd5b6118a96000838361077a565b6001600160a01b03821660009081526001602052604090206118cb90826112a3565b506118d8600282846112af565b5060405181906001600160a01b038416906000907fddf252ad1be2c89b69c2b068fc378daa952ba7f163c4a11628f55a4df523b3ef908290a45050565b3b151590565b60606110ec84846000858561192f85611915565b611980576040805162461bcd60e51b815260206004820152601d60248201527f416464726573733a2063616c6c20746f206e6f6e2d636f6e7472616374000000604482015290519081900360640190fd5b600080866001600160a01b031685876040518082805190602001908083835b602083106119be5780518252601f19909201916020918201910161199f565b6001836020036101000a03801982511681845116808217855250505050505090500191505060006040518083038185875af1925050503d8060008114611a20576040519150601f19603f3d011682016040523d82523d6000602084013e611a25565b606091505b5091509150611a35828286611a40565b979650505050505050565b60608315611a4f5750816110ef565b825115611a5f5782518084602001fd5b60405162461bcd60e51b815260206004820181815284516024840152845185939192839260440191908501908083836000831561145657818101518382015260200161143e56fe456e756d657261626c655365743a20696e646578206f7574206f6620626f756e64734552433732313a207472616e7366657220746f206e6f6e20455243373231526563656976657220696d706c656d656e7465724552433732313a207472616e7366657220746f20746865207a65726f20616464726573734552433732313a206f70657261746f7220717565727920666f72206e6f6e6578697374656e7420746f6b656e4552433732313a20617070726f76652063616c6c6572206973206e6f74206f776e6572206e6f7220617070726f76656420666f7220616c6c4552433732313a2062616c616e636520717565727920666f7220746865207a65726f20616464726573734552433732313a206f776e657220717565727920666f72206e6f6e6578697374656e7420746f6b656e456e756d657261626c654d61703a20696e646578206f7574206f6620626f756e64734552433732313a20617070726f76656420717565727920666f72206e6f6e6578697374656e7420746f6b656e4552433732313a207472616e73666572206f6620746f6b656e2074686174206973206e6f74206f776e4552433732314d657461646174613a2055524920717565727920666f72206e6f6e6578697374656e7420746f6b656e4552433732313a20617070726f76616c20746f2063757272656e74206f776e65724552433732313a207472616e736665722063616c6c6572206973206e6f74206f776e6572206e6f7220617070726f766564a264697066735822122036bfede6776d6f11da45270f63b665e3ac6d81847b8b30891b4501e69a03781d64736f6c63430007060033",
  "linkReferences": {},
  "deployedLinkReferences": {}
}